{
    "abi": [
        {
            "type": "constructor",
            "inputs": [
                {
                    "name": "_ERC721CipherAddress",
                    "type": "address",
                    "internalType": "address"
                }
            ],
            "stateMutability": "nonpayable"
        },
        {
            "type": "function",
            "name": "cancelOffer",
            "inputs": [
                {
                    "name": "offerId",
                    "type": "uint256",
                    "internalType": "uint256"
                }
            ],
            "outputs": [],
            "stateMutability": "nonpayable"
        },
        {
            "type": "function",
            "name": "changeERC721Implementation",
            "inputs": [
                {
                    "name": "newAddress",
                    "type": "address",
                    "internalType": "address"
                }
            ],
            "outputs": [],
            "stateMutability": "nonpayable"
        },
        {
            "type": "function",
            "name": "createOffer",
            "inputs": [],
            "outputs": [
                {
                    "name": "offerId",
                    "type": "uint256",
                    "internalType": "uint256"
                }
            ],
            "stateMutability": "payable"
        },
        {
            "type": "function",
            "name": "currentOffers",
            "inputs": [],
            "outputs": [
                {
                    "name": "",
                    "type": "uint256",
                    "internalType": "uint256"
                }
            ],
            "stateMutability": "view"
        },
        {
            "type": "function",
            "name": "fulfillOffer",
            "inputs": [
                {
                    "name": "offerId",
                    "type": "uint256",
                    "internalType": "uint256"
                },
                {
                    "name": "from",
                    "type": "address",
                    "internalType": "address"
                },
                {
                    "name": "to",
                    "type": "address",
                    "internalType": "address"
                },
                {
                    "name": "id",
                    "type": "uint256",
                    "internalType": "uint256"
                },
                {
                    "name": "_pA",
                    "type": "uint256[2]",
                    "internalType": "uint256[2]"
                },
                {
                    "name": "_pB",
                    "type": "uint256[2][2]",
                    "internalType": "uint256[2][2]"
                },
                {
                    "name": "_pC",
                    "type": "uint256[2]",
                    "internalType": "uint256[2]"
                },
                {
                    "name": "_pubSignals",
                    "type": "uint256[13]",
                    "internalType": "uint256[13]"
                }
            ],
            "outputs": [],
            "stateMutability": "nonpayable"
        },
        {
            "type": "function",
            "name": "getOffers",
            "inputs": [
                {
                    "name": "start",
                    "type": "uint256",
                    "internalType": "uint256"
                },
                {
                    "name": "end",
                    "type": "uint256",
                    "internalType": "uint256"
                }
            ],
            "outputs": [
                {
                    "name": "offerIds",
                    "type": "uint256[]",
                    "internalType": "uint256[]"
                },
                {
                    "name": "activeOffers",
                    "type": "tuple[]",
                    "internalType": "struct NFTMarketplace.Offer[]",
                    "components": [
                        {
                            "name": "buyer",
                            "type": "address",
                            "internalType": "address"
                        },
                        {
                            "name": "price",
                            "type": "uint256",
                            "internalType": "uint256"
                        }
                    ]
                }
            ],
            "stateMutability": "view"
        },
        {
            "type": "function",
            "name": "getOffersByAddress",
            "inputs": [
                {
                    "name": "buyer",
                    "type": "address",
                    "internalType": "address"
                }
            ],
            "outputs": [
                {
                    "name": "offerIds",
                    "type": "uint256[]",
                    "internalType": "uint256[]"
                },
                {
                    "name": "userOffers",
                    "type": "tuple[]",
                    "internalType": "struct NFTMarketplace.Offer[]",
                    "components": [
                        {
                            "name": "buyer",
                            "type": "address",
                            "internalType": "address"
                        },
                        {
                            "name": "price",
                            "type": "uint256",
                            "internalType": "uint256"
                        }
                    ]
                }
            ],
            "stateMutability": "view"
        },
        {
            "type": "function",
            "name": "marketOpen",
            "inputs": [],
            "outputs": [
                {
                    "name": "",
                    "type": "bool",
                    "internalType": "bool"
                }
            ],
            "stateMutability": "view"
        },
        {
            "type": "function",
            "name": "offers",
            "inputs": [
                {
                    "name": "",
                    "type": "uint256",
                    "internalType": "uint256"
                }
            ],
            "outputs": [
                {
                    "name": "buyer",
                    "type": "address",
                    "internalType": "address"
                },
                {
                    "name": "price",
                    "type": "uint256",
                    "internalType": "uint256"
                }
            ],
            "stateMutability": "view"
        },
        {
            "type": "function",
            "name": "owner",
            "inputs": [],
            "outputs": [
                {
                    "name": "",
                    "type": "address",
                    "internalType": "address"
                }
            ],
            "stateMutability": "view"
        },
        {
            "type": "function",
            "name": "pointerEmptyOffers",
            "inputs": [
                {
                    "name": "",
                    "type": "uint256",
                    "internalType": "uint256"
                }
            ],
            "outputs": [
                {
                    "name": "",
                    "type": "uint256",
                    "internalType": "uint256"
                }
            ],
            "stateMutability": "view"
        },
        {
            "type": "function",
            "name": "setMarket",
            "inputs": [
                {
                    "name": "_setMarket",
                    "type": "bool",
                    "internalType": "bool"
                }
            ],
            "outputs": [],
            "stateMutability": "nonpayable"
        },
        {
            "type": "function",
            "name": "transferOwnership",
            "inputs": [
                {
                    "name": "newOwner",
                    "type": "address",
                    "internalType": "address"
                }
            ],
            "outputs": [],
            "stateMutability": "nonpayable"
        },
        {
            "type": "event",
            "name": "OfferCreated",
            "inputs": [
                {
                    "name": "offerId",
                    "type": "uint256",
                    "indexed": true,
                    "internalType": "uint256"
                },
                {
                    "name": "buyer",
                    "type": "address",
                    "indexed": true,
                    "internalType": "address"
                },
                {
                    "name": "price",
                    "type": "uint256",
                    "indexed": false,
                    "internalType": "uint256"
                }
            ],
            "anonymous": false
        },
        {
            "type": "event",
            "name": "OwnershipTransferred",
            "inputs": [
                {
                    "name": "user",
                    "type": "address",
                    "indexed": true,
                    "internalType": "address"
                },
                {
                    "name": "newOwner",
                    "type": "address",
                    "indexed": true,
                    "internalType": "address"
                }
            ],
            "anonymous": false
        }
    ],
    "bytecode": {
        "object": "0x608060405234801561000f575f5ffd5b506040516127fd3803806127fd833981810160405281019061003191906101f9565b33805f5f6101000a81548173ffffffffffffffffffffffffffffffffffffffff021916908373ffffffffffffffffffffffffffffffffffffffff1602179055508073ffffffffffffffffffffffffffffffffffffffff165f73ffffffffffffffffffffffffffffffffffffffff167f8be0079c531659141344cd1fd0a4f28419497f9722a3daafe3b4186f6b6457e060405160405180910390a3505f73ffffffffffffffffffffffffffffffffffffffff168173ffffffffffffffffffffffffffffffffffffffff160361013a576040517f08c379a00000000000000000000000000000000000000000000000000000000081526004016101319061027e565b60405180910390fd5b80600260016101000a81548173ffffffffffffffffffffffffffffffffffffffff021916908373ffffffffffffffffffffffffffffffffffffffff160217905550600160025f6101000a81548160ff0219169083151502179055505061029c565b5f5ffd5b5f73ffffffffffffffffffffffffffffffffffffffff82169050919050565b5f6101c88261019f565b9050919050565b6101d8816101be565b81146101e2575f5ffd5b50565b5f815190506101f3816101cf565b92915050565b5f6020828403121561020e5761020d61019b565b5b5f61021b848285016101e5565b91505092915050565b5f82825260208201905092915050565b7f496e76616c6964204552433732312061646472657373000000000000000000005f82015250565b5f610268601683610224565b915061027382610234565b602082019050919050565b5f6020820190508181035f8301526102958161025c565b9050919050565b612554806102a95f395ff3fe6080604052600436106100c1575f3560e01c8063b8b9abe71161007e578063c7b5139111610058578063c7b513911461027c578063d7726853146102a4578063ef706adf146102cc578063f2fde38b146102f4576100c1565b8063b8b9abe7146101d9578063bfa5e00d14610215578063c66bc04614610252576100c1565b806311fc2d20146100c55780638a72ea6a146100ef5780638da5cb5b1461012c57806397d6eb1914610156578063b058ed6914610193578063b788a00d146101b1575b5f5ffd5b3480156100d0575f5ffd5b506100d961031c565b6040516100e691906116a4565b60405180910390f35b3480156100fa575f5ffd5b50610115600480360381019061011091906116eb565b610322565b604051610123929190611755565b60405180910390f35b348015610137575f5ffd5b50610140610361565b60405161014d919061177c565b60405180910390f35b348015610161575f5ffd5b5061017c60048036038101906101779190611795565b610385565b60405161018a92919061196e565b60405180910390f35b61019b610664565b6040516101a891906116a4565b60405180910390f35b3480156101bc575f5ffd5b506101d760048036038101906101d29190611a34565b61091a565b005b3480156101e4575f5ffd5b506101ff60048036038101906101fa91906116eb565b610ed3565b60405161020c91906116a4565b60405180910390f35b348015610220575f5ffd5b5061023b60048036038101906102369190611ae7565b610ef3565b60405161024992919061196e565b60405180910390f35b34801561025d575f5ffd5b506102666110f4565b6040516102739190611b2c565b60405180910390f35b348015610287575f5ffd5b506102a2600480360381019061029d9190611ae7565b611106565b005b3480156102af575f5ffd5b506102ca60048036038101906102c59190611b6f565b6111d8565b005b3480156102d7575f5ffd5b506102f260048036038101906102ed91906116eb565b611282565b005b3480156102ff575f5ffd5b5061031a60048036038101906103159190611ae7565b611534565b005b60035481565b6001602052805f5260405f205f91509050805f015f9054906101000a900473ffffffffffffffffffffffffffffffffffffffff16908060010154905082565b5f5f9054906101000a900473ffffffffffffffffffffffffffffffffffffffff1681565b60608060035484106103cc576040517f08c379a00000000000000000000000000000000000000000000000000000000081526004016103c390611bf4565b60405180910390fd5b600354831115610411576040517f08c379a000000000000000000000000000000000000000000000000000000000815260040161040890611c5c565b60405180910390fd5b828410610453576040517f08c379a000000000000000000000000000000000000000000000000000000000815260040161044a90611cc4565b60405180910390fd5b838361045f9190611d0f565b67ffffffffffffffff81111561047857610477611d42565b5b6040519080825280602002602001820160405280156104a65781602001602082028036833780820191505090505b50915083836104b59190611d0f565b67ffffffffffffffff8111156104ce576104cd611d42565b5b60405190808252806020026020018201604052801561050757816020015b6104f461165e565b8152602001906001900390816104ec5790505b5090505f5f90505f8590505b84811015610655575f73ffffffffffffffffffffffffffffffffffffffff1660015f8381526020019081526020015f205f015f9054906101000a900473ffffffffffffffffffffffffffffffffffffffff1673ffffffffffffffffffffffffffffffffffffffff1614610648578084838151811061059457610593611d6f565b5b60200260200101818152505060015f8281526020019081526020015f206040518060400160405290815f82015f9054906101000a900473ffffffffffffffffffffffffffffffffffffffff1673ffffffffffffffffffffffffffffffffffffffff1673ffffffffffffffffffffffffffffffffffffffff16815260200160018201548152505083838151811061062d5761062c611d6f565b5b60200260200101819052506001826106459190611d9c565b91505b8080600101915050610513565b50808352808252509250929050565b5f5f34116106a7576040517f08c379a000000000000000000000000000000000000000000000000000000000815260040161069e90611e19565b60405180910390fd5b6001151560025f9054906101000a900460ff161515146106fc576040517f08c379a00000000000000000000000000000000000000000000000000000000081526004016106f390611e81565b60405180910390fd5b5f600480549050036107b85760405180604001604052803373ffffffffffffffffffffffffffffffffffffffff1681526020013481525060015f60035481526020019081526020015f205f820151815f015f6101000a81548173ffffffffffffffffffffffffffffffffffffffff021916908373ffffffffffffffffffffffffffffffffffffffff16021790555060208201518160010155905050600354905060035f8154809291906107ae90611e9f565b91905055506108c8565b60405180604001604052803373ffffffffffffffffffffffffffffffffffffffff1681526020013481525060015f600460016004805490506107fa9190611d0f565b8154811061080b5761080a611d6f565b5b905f5260205f20015481526020019081526020015f205f820151815f015f6101000a81548173ffffffffffffffffffffffffffffffffffffffff021916908373ffffffffffffffffffffffffffffffffffffffff16021790555060208201518160010155905050600460016004805490506108869190611d0f565b8154811061089757610896611d6f565b5b905f5260205f200154905060048054806108b4576108b3611ee6565b5b600190038181905f5260205f20015f905590555b3373ffffffffffffffffffffffffffffffffffffffff16817fb61c892d3af89c520a4214d8f8dc61896cdb6fd28991a0a836288fe73028a18c3460405161090f91906116a4565b60405180910390a390565b600354881061095e576040517f08c379a000000000000000000000000000000000000000000000000000000000815260040161095590611f5d565b60405180910390fd5b60015f8981526020019081526020015f205f015f9054906101000a900473ffffffffffffffffffffffffffffffffffffffff1673ffffffffffffffffffffffffffffffffffffffff163373ffffffffffffffffffffffffffffffffffffffff16036109fe576040517f08c379a00000000000000000000000000000000000000000000000000000000081526004016109f590611fc5565b60405180910390fd5b5f60015f8a81526020019081526020015f206001015403610a54576040517f08c379a0000000000000000000000000000000000000000000000000000000008152600401610a4b9061202d565b60405180910390fd5b5f73ffffffffffffffffffffffffffffffffffffffff1660015f8a81526020019081526020015f205f015f9054906101000a900473ffffffffffffffffffffffffffffffffffffffff1673ffffffffffffffffffffffffffffffffffffffff1603610af4576040517f08c379a0000000000000000000000000000000000000000000000000000000008152600401610aeb90612095565b60405180910390fd5b3373ffffffffffffffffffffffffffffffffffffffff168773ffffffffffffffffffffffffffffffffffffffff1614610b62576040517f08c379a0000000000000000000000000000000000000000000000000000000008152600401610b59906120fd565b60405180910390fd5b6001151560025f9054906101000a900460ff16151514610bb7576040517f08c379a0000000000000000000000000000000000000000000000000000000008152600401610bae90611e81565b60405180910390fd5b60015f8981526020019081526020015f205f015f9054906101000a900473ffffffffffffffffffffffffffffffffffffffff1673ffffffffffffffffffffffffffffffffffffffff168673ffffffffffffffffffffffffffffffffffffffff1614610c57576040517f08c379a0000000000000000000000000000000000000000000000000000000008152600401610c4e90612165565b60405180910390fd5b5f60015f8a81526020019081526020015f206040518060400160405290815f82015f9054906101000a900473ffffffffffffffffffffffffffffffffffffffff1673ffffffffffffffffffffffffffffffffffffffff1673ffffffffffffffffffffffffffffffffffffffff168152602001600182015481525050905060405180604001604052805f73ffffffffffffffffffffffffffffffffffffffff1681526020015f81525060015f8b81526020019081526020015f205f820151815f015f6101000a81548173ffffffffffffffffffffffffffffffffffffffff021916908373ffffffffffffffffffffffffffffffffffffffff16021790555060208201518160010155905050600489908060018154018082558091505060019003905f5260205f20015f90919091909150555f3373ffffffffffffffffffffffffffffffffffffffff168260200151604051610db0906121b0565b5f6040518083038185875af1925050503d805f8114610dea576040519150601f19603f3d011682016040523d82523d5f602084013e610def565b606091505b5050905080610e33576040517f08c379a0000000000000000000000000000000000000000000000000000000008152600401610e2a9061220e565b60405180910390fd5b600260019054906101000a900473ffffffffffffffffffffffffffffffffffffffff1673ffffffffffffffffffffffffffffffffffffffff1663b18fe8408a8a8a8a8a8a8a6040518863ffffffff1660e01b8152600401610e9a979695949392919061230e565b5f604051808303815f87803b158015610eb1575f5ffd5b505af1158015610ec3573d5f5f3e3d5ffd5b5050505050505050505050505050565b60048181548110610ee2575f80fd5b905f5260205f20015f915090505481565b60608060035467ffffffffffffffff811115610f1257610f11611d42565b5b604051908082528060200260200182016040528015610f405781602001602082028036833780820191505090505b50915060035467ffffffffffffffff811115610f5f57610f5e611d42565b5b604051908082528060200260200182016040528015610f9857816020015b610f8561165e565b815260200190600190039081610f7d5790505b5090505f5f90505f5f90505b6003548110156110e7578473ffffffffffffffffffffffffffffffffffffffff1660015f8381526020019081526020015f205f015f9054906101000a900473ffffffffffffffffffffffffffffffffffffffff1673ffffffffffffffffffffffffffffffffffffffff16036110da578084838151811061102757611026611d6f565b5b60200260200101818152505060015f8281526020019081526020015f206040518060400160405290815f82015f9054906101000a900473ffffffffffffffffffffffffffffffffffffffff1673ffffffffffffffffffffffffffffffffffffffff1673ffffffffffffffffffffffffffffffffffffffff1681526020016001820154815250508383815181106110c0576110bf611d6f565b5b602002602001018190525081806110d690611e9f565b9250505b8080600101915050610fa4565b5080835280825250915091565b60025f9054906101000a900460ff1681565b5f5f9054906101000a900473ffffffffffffffffffffffffffffffffffffffff1673ffffffffffffffffffffffffffffffffffffffff163373ffffffffffffffffffffffffffffffffffffffff1614611194576040517f08c379a000000000000000000000000000000000000000000000000000000000815260040161118b906123c8565b60405180910390fd5b80600260016101000a81548173ffffffffffffffffffffffffffffffffffffffff021916908373ffffffffffffffffffffffffffffffffffffffff16021790555050565b5f5f9054906101000a900473ffffffffffffffffffffffffffffffffffffffff1673ffffffffffffffffffffffffffffffffffffffff163373ffffffffffffffffffffffffffffffffffffffff1614611266576040517f08c379a000000000000000000000000000000000000000000000000000000000815260040161125d906123c8565b60405180910390fd5b8060025f6101000a81548160ff02191690831515021790555050565b60035481106112c6576040517f08c379a00000000000000000000000000000000000000000000000000000000081526004016112bd90611f5d565b60405180910390fd5b60015f8281526020019081526020015f205f015f9054906101000a900473ffffffffffffffffffffffffffffffffffffffff1673ffffffffffffffffffffffffffffffffffffffff163373ffffffffffffffffffffffffffffffffffffffff1614611366576040517f08c379a000000000000000000000000000000000000000000000000000000000815260040161135d90612430565b60405180910390fd5b5f60015f8381526020019081526020015f2060010154036113bc576040517f08c379a00000000000000000000000000000000000000000000000000000000081526004016113b390612498565b60405180910390fd5b5f60015f8381526020019081526020015f2060010154905060405180604001604052805f73ffffffffffffffffffffffffffffffffffffffff1681526020015f81525060015f8481526020019081526020015f205f820151815f015f6101000a81548173ffffffffffffffffffffffffffffffffffffffff021916908373ffffffffffffffffffffffffffffffffffffffff16021790555060208201518160010155905050600482908060018154018082558091505060019003905f5260205f20015f90919091909150555f3373ffffffffffffffffffffffffffffffffffffffff16826040516114ac906121b0565b5f6040518083038185875af1925050503d805f81146114e6576040519150601f19603f3d011682016040523d82523d5f602084013e6114eb565b606091505b505090508061152f576040517f08c379a000000000000000000000000000000000000000000000000000000000815260040161152690612500565b60405180910390fd5b505050565b5f5f9054906101000a900473ffffffffffffffffffffffffffffffffffffffff1673ffffffffffffffffffffffffffffffffffffffff163373ffffffffffffffffffffffffffffffffffffffff16146115c2576040517f08c379a00000000000000000000000000000000000000000000000000000000081526004016115b9906123c8565b60405180910390fd5b805f5f6101000a81548173ffffffffffffffffffffffffffffffffffffffff021916908373ffffffffffffffffffffffffffffffffffffffff1602179055508073ffffffffffffffffffffffffffffffffffffffff163373ffffffffffffffffffffffffffffffffffffffff167f8be0079c531659141344cd1fd0a4f28419497f9722a3daafe3b4186f6b6457e060405160405180910390a350565b60405180604001604052805f73ffffffffffffffffffffffffffffffffffffffff1681526020015f81525090565b5f819050919050565b61169e8161168c565b82525050565b5f6020820190506116b75f830184611695565b92915050565b5f5ffd5b6116ca8161168c565b81146116d4575f5ffd5b50565b5f813590506116e5816116c1565b92915050565b5f60208284031215611700576116ff6116bd565b5b5f61170d848285016116d7565b91505092915050565b5f73ffffffffffffffffffffffffffffffffffffffff82169050919050565b5f61173f82611716565b9050919050565b61174f81611735565b82525050565b5f6040820190506117685f830185611746565b6117756020830184611695565b9392505050565b5f60208201905061178f5f830184611746565b92915050565b5f5f604083850312156117ab576117aa6116bd565b5b5f6117b8858286016116d7565b92505060206117c9858286016116d7565b9150509250929050565b5f81519050919050565b5f82825260208201905092915050565b5f819050602082019050919050565b6118058161168c565b82525050565b5f61181683836117fc565b60208301905092915050565b5f602082019050919050565b5f611838826117d3565b61184281856117dd565b935061184d836117ed565b805f5b8381101561187d578151611864888261180b565b975061186f83611822565b925050600181019050611850565b5085935050505092915050565b5f81519050919050565b5f82825260208201905092915050565b5f819050602082019050919050565b6118bc81611735565b82525050565b604082015f8201516118d65f8501826118b3565b5060208201516118e960208501826117fc565b50505050565b5f6118fa83836118c2565b60408301905092915050565b5f602082019050919050565b5f61191c8261188a565b6119268185611894565b9350611931836118a4565b805f5b8381101561196157815161194888826118ef565b975061195383611906565b925050600181019050611934565b5085935050505092915050565b5f6040820190508181035f830152611986818561182e565b9050818103602083015261199a8184611912565b90509392505050565b6119ac81611735565b81146119b6575f5ffd5b50565b5f813590506119c7816119a3565b92915050565b5f5ffd5b5f819050826020600202820111156119ec576119eb6119cd565b5b92915050565b5f81905082604060020282011115611a0d57611a0c6119cd565b5b92915050565b5f819050826020600d0282011115611a2e57611a2d6119cd565b5b92915050565b5f5f5f5f5f5f5f5f610320898b031215611a5157611a506116bd565b5b5f611a5e8b828c016116d7565b9850506020611a6f8b828c016119b9565b9750506040611a808b828c016119b9565b9650506060611a918b828c016116d7565b9550506080611aa28b828c016119d1565b94505060c0611ab38b828c016119f2565b935050610140611ac58b828c016119d1565b925050610180611ad78b828c01611a13565b9150509295985092959890939650565b5f60208284031215611afc57611afb6116bd565b5b5f611b09848285016119b9565b91505092915050565b5f8115159050919050565b611b2681611b12565b82525050565b5f602082019050611b3f5f830184611b1d565b92915050565b611b4e81611b12565b8114611b58575f5ffd5b50565b5f81359050611b6981611b45565b92915050565b5f60208284031215611b8457611b836116bd565b5b5f611b9184828501611b5b565b91505092915050565b5f82825260208201905092915050565b7f537461727420657863656564732063757272656e74206f6666657273000000005f82015250565b5f611bde601c83611b9a565b9150611be982611baa565b602082019050919050565b5f6020820190508181035f830152611c0b81611bd2565b9050919050565b7f456e6420657863656564732063757272656e74206f66666572730000000000005f82015250565b5f611c46601a83611b9a565b9150611c5182611c12565b602082019050919050565b5f6020820190508181035f830152611c7381611c3a565b9050919050565b7f496e76616c69642072616e6765000000000000000000000000000000000000005f82015250565b5f611cae600d83611b9a565b9150611cb982611c7a565b602082019050919050565b5f6020820190508181035f830152611cdb81611ca2565b9050919050565b7f4e487b71000000000000000000000000000000000000000000000000000000005f52601160045260245ffd5b5f611d198261168c565b9150611d248361168c565b9250828203905081811115611d3c57611d3b611ce2565b5b92915050565b7f4e487b71000000000000000000000000000000000000000000000000000000005f52604160045260245ffd5b7f4e487b71000000000000000000000000000000000000000000000000000000005f52603260045260245ffd5b5f611da68261168c565b9150611db18361168c565b9250828201905080821115611dc957611dc8611ce2565b5b92915050565b7f4f66666572206d757374206265203e20300000000000000000000000000000005f82015250565b5f611e03601183611b9a565b9150611e0e82611dcf565b602082019050919050565b5f6020820190508181035f830152611e3081611df7565b9050919050565b7f4d61726b657420436c6f736564000000000000000000000000000000000000005f82015250565b5f611e6b600d83611b9a565b9150611e7682611e37565b602082019050919050565b5f6020820190508181035f830152611e9881611e5f565b9050919050565b5f611ea98261168c565b91507fffffffffffffffffffffffffffffffffffffffffffffffffffffffffffffffff8203611edb57611eda611ce2565b5b600182019050919050565b7f4e487b71000000000000000000000000000000000000000000000000000000005f52603160045260245ffd5b7f496e76616c6964206f66666572204944000000000000000000000000000000005f82015250565b5f611f47601083611b9a565b9150611f5282611f13565b602082019050919050565b5f6020820190508181035f830152611f7481611f3b565b9050919050565b7f43616e6e6f742073656c6c20746f20796f757273656c660000000000000000005f82015250565b5f611faf601783611b9a565b9150611fba82611f7b565b602082019050919050565b5f6020820190508181035f830152611fdc81611fa3565b9050919050565b7f4f666665722063616e63656c6c6564206f7220656d70747900000000000000005f82015250565b5f612017601883611b9a565b915061202282611fe3565b602082019050919050565b5f6020820190508181035f8301526120448161200b565b9050919050565b7f496e76616c6964206275796572000000000000000000000000000000000000005f82015250565b5f61207f600d83611b9a565b915061208a8261204b565b602082019050919050565b5f6020820190508181035f8301526120ac81612073565b9050919050565b7f4f6e6c7920746f6b656e206f776e65722063616e2066756c66696c6c000000005f82015250565b5f6120e7601c83611b9a565b91506120f2826120b3565b602082019050919050565b5f6020820190508181035f830152612114816120db565b9050919050565b7f526563697069656e74206d757374206265206f666665722062757965720000005f82015250565b5f61214f601d83611b9a565b915061215a8261211b565b602082019050919050565b5f6020820190508181035f83015261217c81612143565b9050919050565b5f81905092915050565b50565b5f61219b5f83612183565b91506121a68261218d565b5f82019050919050565b5f6121ba82612190565b9150819050919050565b7f5472616e73666572206661696c656400000000000000000000000000000000005f82015250565b5f6121f8600f83611b9a565b9150612203826121c4565b602082019050919050565b5f6020820190508181035f830152612225816121ec565b9050919050565b82818337505050565b6122416040838361222c565b5050565b5f60029050919050565b5f81905092915050565b5f819050919050565b61226e6040838361222c565b5050565b5f61227d8383612262565b60408301905092915050565b5f82905092915050565b5f604082019050919050565b6122a881612245565b6122b2818461224f565b92506122bd82612259565b805f5b838110156122f5576122d28284612289565b6122dc8782612272565b96506122e783612293565b9250506001810190506122c0565b505050505050565b61230a6101a0838361222c565b5050565b5f610300820190506123225f83018a611746565b61232f6020830189611746565b61233c6040830188611695565b6123496060830187612235565b61235660a083018661229f565b612364610120830185612235565b6123726101608301846122fd565b98975050505050505050565b7f554e415554484f52495a454400000000000000000000000000000000000000005f82015250565b5f6123b2600c83611b9a565b91506123bd8261237e565b602082019050919050565b5f6020820190508181035f8301526123df816123a6565b9050919050565b7f4f6e6c792062757965722063616e2063616e63656c00000000000000000000005f82015250565b5f61241a601583611b9a565b9150612425826123e6565b602082019050919050565b5f6020820190508181035f8301526124478161240e565b9050919050565b7f4f6666657220616c72656164792063616e63656c6c65640000000000000000005f82015250565b5f612482601783611b9a565b915061248d8261244e565b602082019050919050565b5f6020820190508181035f8301526124af81612476565b9050919050565b7f526566756e64206661696c6564000000000000000000000000000000000000005f82015250565b5f6124ea600d83611b9a565b91506124f5826124b6565b602082019050919050565b5f6020820190508181035f830152612517816124de565b905091905056fea2646970667358221220160fd5adf350f97bd0f4c3c16f6c4f2c5292e0a3652eaa47c479ab7b7a87fc8e64736f6c634300081b0033",
        "linkReferences": {}
    },
    "methodIdentifiers": {
        "cancelOffer(uint256)": "ef706adf",
        "changeERC721Implementation(address)": "c7b51391",
        "createOffer()": "b058ed69",
        "currentOffers()": "11fc2d20",
        "fulfillOffer(uint256,address,address,uint256,uint256[2],uint256[2][2],uint256[2],uint256[13])": "b788a00d",
        "getOffers(uint256,uint256)": "97d6eb19",
        "getOffersByAddress(address)": "bfa5e00d",
        "marketOpen()": "c66bc046",
        "offers(uint256)": "8a72ea6a",
        "owner()": "8da5cb5b",
        "pointerEmptyOffers(uint256)": "b8b9abe7",
        "setMarket(bool)": "d7726853",
        "transferOwnership(address)": "f2fde38b"
    },
    "id": 34
}