{
    "abi": [
        {
            "type": "constructor",
            "inputs": [
                {
                    "name": "_ERC721CipherAddress",
                    "type": "address",
                    "internalType": "address"
                },
                {
                    "name": "",
                    "type": "address",
                    "internalType": "address"
                }
            ],
            "stateMutability": "nonpayable"
        },
        {
            "type": "function",
            "name": "cancelOffer",
            "inputs": [
                {
                    "name": "offerId",
                    "type": "uint256",
                    "internalType": "uint256"
                }
            ],
            "outputs": [],
            "stateMutability": "nonpayable"
        },
        {
            "type": "function",
            "name": "changeERC721Implementation",
            "inputs": [
                {
                    "name": "newAddress",
                    "type": "address",
                    "internalType": "address"
                }
            ],
            "outputs": [],
            "stateMutability": "nonpayable"
        },
        {
            "type": "function",
            "name": "createOffer",
            "inputs": [],
            "outputs": [],
            "stateMutability": "payable"
        },
        {
            "type": "function",
            "name": "currentOffers",
            "inputs": [],
            "outputs": [
                {
                    "name": "",
                    "type": "uint256",
                    "internalType": "uint256"
                }
            ],
            "stateMutability": "view"
        },
        {
            "type": "function",
            "name": "fulfillOffer",
            "inputs": [
                {
                    "name": "offerId",
                    "type": "uint256",
                    "internalType": "uint256"
                },
                {
                    "name": "from",
                    "type": "address",
                    "internalType": "address"
                },
                {
                    "name": "to",
                    "type": "address",
                    "internalType": "address"
                },
                {
                    "name": "id",
                    "type": "uint256",
                    "internalType": "uint256"
                },
                {
                    "name": "_pA",
                    "type": "uint256[2]",
                    "internalType": "uint256[2]"
                },
                {
                    "name": "_pB",
                    "type": "uint256[2][2]",
                    "internalType": "uint256[2][2]"
                },
                {
                    "name": "_pC",
                    "type": "uint256[2]",
                    "internalType": "uint256[2]"
                },
                {
                    "name": "_pubSignals",
                    "type": "uint256[13]",
                    "internalType": "uint256[13]"
                }
            ],
            "outputs": [],
            "stateMutability": "nonpayable"
        },
        {
            "type": "function",
            "name": "getOffers",
            "inputs": [
                {
                    "name": "start",
                    "type": "uint256",
                    "internalType": "uint256"
                },
                {
                    "name": "end",
                    "type": "uint256",
                    "internalType": "uint256"
                }
            ],
            "outputs": [
                {
                    "name": "offerIds",
                    "type": "uint256[]",
                    "internalType": "uint256[]"
                },
                {
                    "name": "activeOffers",
                    "type": "tuple[]",
                    "internalType": "struct NFTMarketplace.Offer[]",
                    "components": [
                        {
                            "name": "buyer",
                            "type": "address",
                            "internalType": "address"
                        },
                        {
                            "name": "price",
                            "type": "uint256",
                            "internalType": "uint256"
                        }
                    ]
                }
            ],
            "stateMutability": "view"
        },
        {
            "type": "function",
            "name": "getOffersByAddress",
            "inputs": [
                {
                    "name": "buyer",
                    "type": "address",
                    "internalType": "address"
                }
            ],
            "outputs": [
                {
                    "name": "offerIds",
                    "type": "uint256[]",
                    "internalType": "uint256[]"
                },
                {
                    "name": "userOffers",
                    "type": "tuple[]",
                    "internalType": "struct NFTMarketplace.Offer[]",
                    "components": [
                        {
                            "name": "buyer",
                            "type": "address",
                            "internalType": "address"
                        },
                        {
                            "name": "price",
                            "type": "uint256",
                            "internalType": "uint256"
                        }
                    ]
                }
            ],
            "stateMutability": "view"
        },
        {
            "type": "function",
            "name": "offers",
            "inputs": [
                {
                    "name": "",
                    "type": "uint256",
                    "internalType": "uint256"
                }
            ],
            "outputs": [
                {
                    "name": "buyer",
                    "type": "address",
                    "internalType": "address"
                },
                {
                    "name": "price",
                    "type": "uint256",
                    "internalType": "uint256"
                }
            ],
            "stateMutability": "view"
        },
        {
            "type": "function",
            "name": "pointerEmptyOffers",
            "inputs": [
                {
                    "name": "",
                    "type": "uint256",
                    "internalType": "uint256"
                }
            ],
            "outputs": [
                {
                    "name": "",
                    "type": "uint256",
                    "internalType": "uint256"
                }
            ],
            "stateMutability": "view"
        }
    ],
    "bytecode": {
        "object": "0x608060405234801561001057600080fd5b506040516110d53803806110d583398101604081905261002f9161007a565b50600180546001600160a01b039092166001600160a01b031992831617905560028054909116331790556100ad565b80516001600160a01b038116811461007557600080fd5b919050565b6000806040838503121561008d57600080fd5b6100968361005e565b91506100a46020840161005e565b90509250929050565b611019806100bc6000396000f3fe6080604052600436106100865760003560e01c8063b788a00d11610059578063b788a00d1461014b578063b8b9abe71461016b578063bfa5e00d1461018b578063c7b51391146101ab578063ef706adf146101cb57600080fd5b806311fc2d201461008b5780638a72ea6a146100b457806397d6eb1914610113578063b058ed6914610141575b600080fd5b34801561009757600080fd5b506100a160035481565b6040519081526020015b60405180910390f35b3480156100c057600080fd5b506100f46100cf366004610d20565b600060208190529081526040902080546001909101546001600160a01b039091169082565b604080516001600160a01b0390931683526020830191909152016100ab565b34801561011f57600080fd5b5061013361012e366004610d39565b6101eb565b6040516100ab929190610d5b565b61014961044a565b005b34801561015757600080fd5b50610149610166366004610e1d565b61059d565b34801561017757600080fd5b506100a1610186366004610d20565b610955565b34801561019757600080fd5b506101336101a6366004610eba565b610976565b3480156101b757600080fd5b506101496101c6366004610eba565b610ae5565b3480156101d757600080fd5b506101496101e6366004610d20565b610b6d565b60608060035484106102445760405162461bcd60e51b815260206004820152601c60248201527f537461727420657863656564732063757272656e74206f66666572730000000060448201526064015b60405180910390fd5b6003548311156102965760405162461bcd60e51b815260206004820152601a60248201527f456e6420657863656564732063757272656e74206f6666657273000000000000604482015260640161023b565b8284106102d55760405162461bcd60e51b815260206004820152600d60248201526c496e76616c69642072616e676560981b604482015260640161023b565b6102df8484610ef2565b67ffffffffffffffff8111156102f7576102f7610f05565b604051908082528060200260200182016040528015610320578160200160208202803683370190505b50915061032d8484610ef2565b67ffffffffffffffff81111561034557610345610f05565b60405190808252806020026020018201604052801561038a57816020015b60408051808201909152600080825260208201528152602001906001900390816103635790505b5090506000845b8481101561043b576000818152602081905260409020546001600160a01b03161561043357808483815181106103c9576103c9610f1b565b6020908102919091018101919091526000828152808252604090819020815180830190925280546001600160a01b031682526001015491810191909152835184908490811061041a5761041a610f1b565b6020908102919091010152610430826001610f31565b91505b600101610391565b50808352808252509250929050565b6000341161048e5760405162461bcd60e51b815260206004820152601160248201527004f66666572206d757374206265203e203607c1b604482015260640161023b565b6004546000036104f85760408051808201825233815234602080830191825260038054600090815291829052938120925183546001600160a01b0319166001600160a01b039091161783559051600190920191909155815491906104f183610f44565b9190505550565b6040805180820190915233815234602082015260048054600091829161052090600190610ef2565b8154811061053057610530610f1b565b60009182526020808320919091015483528281019390935260409091019020825181546001600160a01b0319166001600160a01b03909116178155910151600190910155600480548061058557610585610f5d565b60019003818190600052602060002001600090559055565b60035488106105e15760405162461bcd60e51b815260206004820152601060248201526f125b9d985b1a59081bd999995c88125160821b604482015260640161023b565b6000888152602081905260409020546001600160a01b031633036106475760405162461bcd60e51b815260206004820152601760248201527f43616e6e6f742073656c6c20746f20796f757273656c66000000000000000000604482015260640161023b565b60008881526020819052604081206001015490036106a75760405162461bcd60e51b815260206004820152601860248201527f4f666665722063616e63656c6c6564206f7220656d7074790000000000000000604482015260640161023b565b6000888152602081905260409020546001600160a01b03166106fb5760405162461bcd60e51b815260206004820152600d60248201526c24b73b30b634b210313abcb2b960991b604482015260640161023b565b6001600160a01b03871633146107535760405162461bcd60e51b815260206004820152601c60248201527f4f6e6c7920746f6b656e206f776e65722063616e2066756c66696c6c00000000604482015260640161023b565b60008060008a81526020019081526020016000206040518060400160405290816000820160009054906101000a90046001600160a01b03166001600160a01b03166001600160a01b031681526020016001820154815250509050604051806040016040528060006001600160a01b0316815260200160008152506000808b815260200190815260200160002060008201518160000160006101000a8154816001600160a01b0302191690836001600160a01b031602179055506020820151816001015590505060048990806001815401808255809150506001900390600052602060002001600090919091909150556000336001600160a01b0316826020015160405160006040518083038185875af1925050503d8060008114610893576040519150601f19603f3d011682016040523d82523d6000602084013e610898565b606091505b50509050806108db5760405162461bcd60e51b815260206004820152600f60248201526e151c985b9cd9995c8819985a5b1959608a1b604482015260640161023b565b6001546040516302c63fa160e61b81526001600160a01b039091169063b18fe84090610917908c908c908c908c908c908c908c90600401610f73565b600060405180830381600087803b15801561093157600080fd5b505af1158015610945573d6000803e3d6000fd5b5050505050505050505050505050565b6004818154811061096557600080fd5b600091825260209091200154905081565b60608060035467ffffffffffffffff81111561099457610994610f05565b6040519080825280602002602001820160405280156109bd578160200160208202803683370190505b50915060035467ffffffffffffffff8111156109db576109db610f05565b604051908082528060200260200182016040528015610a2057816020015b60408051808201909152600080825260208201528152602001906001900390816109f95790505b5090506000805b600354811015610ad8576000818152602081905260409020546001600160a01b03808716911603610ad05780848381518110610a6557610a65610f1b565b6020908102919091018101919091526000828152808252604090819020815180830190925280546001600160a01b0316825260010154918101919091528351849084908110610ab657610ab6610f1b565b60200260200101819052508180610acc90610f44565b9250505b600101610a27565b5080835280825250915091565b6002546001600160a01b03163314610b4b5760405162461bcd60e51b8152602060048201526024808201527f4f6e6c79206f776e65722063616e206368616e676520455243373231204164646044820152637265737360e01b606482015260840161023b565b600180546001600160a01b0319166001600160a01b0392909216919091179055565b6003548110610bb15760405162461bcd60e51b815260206004820152601060248201526f125b9d985b1a59081bd999995c88125160821b604482015260640161023b565b6000818152602081905260409020546001600160a01b03163314610c0f5760405162461bcd60e51b815260206004820152601560248201527413db9b1e48189d5e595c8818d85b8818d85b98d95b605a1b604482015260640161023b565b6000818152602081905260408120600101549003610c6f5760405162461bcd60e51b815260206004820152601760248201527f4f6666657220616c72656164792063616e63656c6c6564000000000000000000604482015260640161023b565b6000818152602081815260408083206001808201805484518086018652878152808701888152898952968890525184546001600160a01b0319166001600160a01b0390911617909355935190935560048054938401815584527f8a35acfbc15ff81a39ae7d344fd709f28e8600b4aa8c65c6b64bfe7fe36bd19b90920184905551909133916108fc84150291849190818181858888f19350505050158015610d1b573d6000803e3d6000fd5b505050565b600060208284031215610d3257600080fd5b5035919050565b60008060408385031215610d4c57600080fd5b50508035926020909101359150565b60408082528351828201819052600091906020906060850190828801855b82811015610d9557815184529284019290840190600101610d79565b5050508481038286015285518082528683019183019060005b81811015610ddc57835180516001600160a01b03168452850151858401529284019291850191600101610dae565b509098975050505050505050565b80356001600160a01b0381168114610e0157600080fd5b919050565b8060408101831015610e1757600080fd5b92915050565b600080600080600080600080610320808a8c031215610e3b57600080fd5b89359850610e4b60208b01610dea565b9750610e5960408b01610dea565b965060608a01359550610e6f8b60808c01610e06565b94506101408a018b811115610e8357600080fd5b60c08b019450610e938c82610e06565b9350508a818b011115610ea557600080fd5b50610180890190509295985092959890939650565b600060208284031215610ecc57600080fd5b610ed582610dea565b9392505050565b634e487b7160e01b600052601160045260246000fd5b81810381811115610e1757610e17610edc565b634e487b7160e01b600052604160045260246000fd5b634e487b7160e01b600052603260045260246000fd5b80820180821115610e1757610e17610edc565b600060018201610f5657610f56610edc565b5060010190565b634e487b7160e01b600052603160045260246000fd5b6001600160a01b0388811682528716602082015260408082018790526103008201908087606085013760a083018660005b6002811015610fc157838284379183019190830190600101610fa4565b5050508085610120850137506101a0836101608401379897505050505050505056fea264697066735822122020cc686fd6906ff7025e19b7c79c3cba06877202cd4a096197543ecd468fbe4964736f6c63430008180033",
        "linkReferences": {}
    },
    "methodIdentifiers": {
        "cancelOffer(uint256)": "ef706adf",
        "changeERC721Implementation(address)": "c7b51391",
        "createOffer()": "b058ed69",
        "currentOffers()": "11fc2d20",
        "fulfillOffer(uint256,address,address,uint256,uint256[2],uint256[2][2],uint256[2],uint256[13])": "b788a00d",
        "getOffers(uint256,uint256)": "97d6eb19",
        "getOffersByAddress(address)": "bfa5e00d",
        "offers(uint256)": "8a72ea6a",
        "pointerEmptyOffers(uint256)": "b8b9abe7"
    },
    "id": 33
}