{
    "abi": [
        {
            "type": "constructor",
            "inputs": [
                {
                    "name": "_nft",
                    "type": "address",
                    "internalType": "address"
                },
                {
                    "name": "_artist",
                    "type": "address",
                    "internalType": "address"
                },
                {
                    "name": "_signer",
                    "type": "address",
                    "internalType": "address"
                }
            ],
            "stateMutability": "nonpayable"
        },
        {
            "type": "function",
            "name": "ALLOWLIST_PRICE",
            "inputs": [],
            "outputs": [
                {
                    "name": "",
                    "type": "uint256",
                    "internalType": "uint256"
                }
            ],
            "stateMutability": "view"
        },
        {
            "type": "function",
            "name": "ALLOWLIST_TYPEHASH",
            "inputs": [],
            "outputs": [
                {
                    "name": "",
                    "type": "bytes32",
                    "internalType": "bytes32"
                }
            ],
            "stateMutability": "view"
        },
        {
            "type": "function",
            "name": "allowlistUsed",
            "inputs": [
                {
                    "name": "",
                    "type": "address",
                    "internalType": "address"
                }
            ],
            "outputs": [
                {
                    "name": "",
                    "type": "bool",
                    "internalType": "bool"
                }
            ],
            "stateMutability": "view"
        },
        {
            "type": "function",
            "name": "artist",
            "inputs": [],
            "outputs": [
                {
                    "name": "",
                    "type": "address",
                    "internalType": "address"
                }
            ],
            "stateMutability": "view"
        },
        {
            "type": "function",
            "name": "eip712Domain",
            "inputs": [],
            "outputs": [
                {
                    "name": "fields",
                    "type": "bytes1",
                    "internalType": "bytes1"
                },
                {
                    "name": "name",
                    "type": "string",
                    "internalType": "string"
                },
                {
                    "name": "version",
                    "type": "string",
                    "internalType": "string"
                },
                {
                    "name": "chainId",
                    "type": "uint256",
                    "internalType": "uint256"
                },
                {
                    "name": "verifyingContract",
                    "type": "address",
                    "internalType": "address"
                },
                {
                    "name": "salt",
                    "type": "bytes32",
                    "internalType": "bytes32"
                },
                {
                    "name": "extensions",
                    "type": "uint256[]",
                    "internalType": "uint256[]"
                }
            ],
            "stateMutability": "view"
        },
        {
            "type": "function",
            "name": "mint",
            "inputs": [
                {
                    "name": "_pA",
                    "type": "uint256[2]",
                    "internalType": "uint256[2]"
                },
                {
                    "name": "_pB",
                    "type": "uint256[2][2]",
                    "internalType": "uint256[2][2]"
                },
                {
                    "name": "_pC",
                    "type": "uint256[2]",
                    "internalType": "uint256[2]"
                },
                {
                    "name": "_pubSignals",
                    "type": "uint256[14]",
                    "internalType": "uint256[14]"
                },
                {
                    "name": "to",
                    "type": "address",
                    "internalType": "address"
                }
            ],
            "outputs": [],
            "stateMutability": "payable"
        },
        {
            "type": "function",
            "name": "mintAllowlist",
            "inputs": [
                {
                    "name": "_pA",
                    "type": "uint256[2]",
                    "internalType": "uint256[2]"
                },
                {
                    "name": "_pB",
                    "type": "uint256[2][2]",
                    "internalType": "uint256[2][2]"
                },
                {
                    "name": "_pC",
                    "type": "uint256[2]",
                    "internalType": "uint256[2]"
                },
                {
                    "name": "_pubSignals",
                    "type": "uint256[14]",
                    "internalType": "uint256[14]"
                },
                {
                    "name": "to",
                    "type": "address",
                    "internalType": "address"
                },
                {
                    "name": "sig",
                    "type": "bytes",
                    "internalType": "bytes"
                }
            ],
            "outputs": [],
            "stateMutability": "payable"
        },
        {
            "type": "function",
            "name": "nft",
            "inputs": [],
            "outputs": [
                {
                    "name": "",
                    "type": "address",
                    "internalType": "contract IEncryptedERC721"
                }
            ],
            "stateMutability": "view"
        },
        {
            "type": "function",
            "name": "owner",
            "inputs": [],
            "outputs": [
                {
                    "name": "",
                    "type": "address",
                    "internalType": "address"
                }
            ],
            "stateMutability": "view"
        },
        {
            "type": "function",
            "name": "remainingSupply",
            "inputs": [],
            "outputs": [
                {
                    "name": "",
                    "type": "uint256",
                    "internalType": "uint256"
                }
            ],
            "stateMutability": "view"
        },
        {
            "type": "function",
            "name": "setArtist",
            "inputs": [
                {
                    "name": "_artist",
                    "type": "address",
                    "internalType": "address"
                }
            ],
            "outputs": [],
            "stateMutability": "nonpayable"
        },
        {
            "type": "function",
            "name": "setSigner",
            "inputs": [
                {
                    "name": "_signer",
                    "type": "address",
                    "internalType": "address"
                }
            ],
            "outputs": [],
            "stateMutability": "nonpayable"
        },
        {
            "type": "function",
            "name": "signer",
            "inputs": [],
            "outputs": [
                {
                    "name": "",
                    "type": "address",
                    "internalType": "address"
                }
            ],
            "stateMutability": "view"
        },
        {
            "type": "function",
            "name": "transferOwnership",
            "inputs": [
                {
                    "name": "newOwner",
                    "type": "address",
                    "internalType": "address"
                }
            ],
            "outputs": [],
            "stateMutability": "nonpayable"
        },
        {
            "type": "function",
            "name": "withdraw",
            "inputs": [],
            "outputs": [],
            "stateMutability": "nonpayable"
        },
        {
            "type": "event",
            "name": "ArtistUpdated",
            "inputs": [
                {
                    "name": "oldArtist",
                    "type": "address",
                    "indexed": true,
                    "internalType": "address"
                },
                {
                    "name": "newArtist",
                    "type": "address",
                    "indexed": true,
                    "internalType": "address"
                }
            ],
            "anonymous": false
        },
        {
            "type": "event",
            "name": "OwnershipTransferred",
            "inputs": [
                {
                    "name": "user",
                    "type": "address",
                    "indexed": true,
                    "internalType": "address"
                },
                {
                    "name": "newOwner",
                    "type": "address",
                    "indexed": true,
                    "internalType": "address"
                }
            ],
            "anonymous": false
        },
        {
            "type": "event",
            "name": "SignerUpdated",
            "inputs": [
                {
                    "name": "oldSigner",
                    "type": "address",
                    "indexed": true,
                    "internalType": "address"
                },
                {
                    "name": "newSigner",
                    "type": "address",
                    "indexed": true,
                    "internalType": "address"
                }
            ],
            "anonymous": false
        }
    ],
    "bytecode": {
        "object": "0x610140604052348015610010575f5ffd5b50604051612561380380612561833981810160405281019061003291906104c2565b333073ffffffffffffffffffffffffffffffffffffffff16608081815250504660a0818152505060608061006a6103e960201b60201c565b6100855761007c6103ed60201b60201c565b80925081935050505b5f6100946103e960201b60201c565b6100a55782805190602001206100a9565b5f5f1b5b90505f6100ba6103e960201b60201c565b6100cb5782805190602001206100cf565b5f5f1b5b90508160c081815250508060e081815250505f6100f06103e960201b60201c565b61013a576040517f8b73c3c69bb8fe3d512ecc4cf759cc79239f7b179b0ffacaa9a75d522b39400f815283602082015282604082015246606082015230608082015260a081209150505b8061010081815250505050505050805f5f6101000a81548173ffffffffffffffffffffffffffffffffffffffff021916908373ffffffffffffffffffffffffffffffffffffffff1602179055508073ffffffffffffffffffffffffffffffffffffffff165f73ffffffffffffffffffffffffffffffffffffffff167f8be0079c531659141344cd1fd0a4f28419497f9722a3daafe3b4186f6b6457e060405160405180910390a3505f73ffffffffffffffffffffffffffffffffffffffff168373ffffffffffffffffffffffffffffffffffffffff1603610250576040517f08c379a00000000000000000000000000000000000000000000000000000000081526004016102479061056c565b60405180910390fd5b5f73ffffffffffffffffffffffffffffffffffffffff168273ffffffffffffffffffffffffffffffffffffffff16036102be576040517f08c379a00000000000000000000000000000000000000000000000000000000081526004016102b5906105d4565b60405180910390fd5b5f73ffffffffffffffffffffffffffffffffffffffff168173ffffffffffffffffffffffffffffffffffffffff160361032c576040517f08c379a00000000000000000000000000000000000000000000000000000000081526004016103239061063c565b60405180910390fd5b8273ffffffffffffffffffffffffffffffffffffffff166101208173ffffffffffffffffffffffffffffffffffffffff16815250508160025f6101000a81548173ffffffffffffffffffffffffffffffffffffffff021916908373ffffffffffffffffffffffffffffffffffffffff1602179055508060015f6101000a81548173ffffffffffffffffffffffffffffffffffffffff021916908373ffffffffffffffffffffffffffffffffffffffff16021790555050505061065a565b5f90565b6060806040518060400160405280600c81526020017f4369706865724d696e74657200000000000000000000000000000000000000008152506040518060400160405280600181526020017f3100000000000000000000000000000000000000000000000000000000000000815250915091509091565b5f5ffd5b5f73ffffffffffffffffffffffffffffffffffffffff82169050919050565b5f61049182610468565b9050919050565b6104a181610487565b81146104ab575f5ffd5b50565b5f815190506104bc81610498565b92915050565b5f5f5f606084860312156104d9576104d8610464565b5b5f6104e6868287016104ae565b93505060206104f7868287016104ae565b9250506040610508868287016104ae565b9150509250925092565b5f82825260208201905092915050565b7f496e76616c6964206e66740000000000000000000000000000000000000000005f82015250565b5f610556600b83610512565b915061056182610522565b602082019050919050565b5f6020820190508181035f8301526105838161054a565b9050919050565b7f496e76616c6964206172746973740000000000000000000000000000000000005f82015250565b5f6105be600e83610512565b91506105c98261058a565b602082019050919050565b5f6020820190508181035f8301526105eb816105b2565b9050919050565b7f496e76616c6964207369676e65720000000000000000000000000000000000005f82015250565b5f610626600e83610512565b9150610631826105f2565b602082019050919050565b5f6020820190508181035f8301526106538161061a565b9050919050565b60805160a05160c05160e0516101005161012051611ea46106bd5f395f8181610763015281816109a901528181610c6a01528181610cf701526110b701525f610efe01525f61122301525f61120001525f61129201525f6112b60152611ea45ff3fe6080604052600436106100e7575f3560e01c80636c19e78311610089578063d4c9753311610058578063d4c975331461029f578063da0239a6146102c7578063e4bf91d9146102f1578063f2fde38b1461031b576100e7565b80636c19e7831461020157806384b0196e146102295780638d379619146102595780638da5cb5b14610275576100e7565b806343bc1612116100c557806343bc161214610147578063451680a61461017157806347ccca021461019b57806349f4c3ae146101c5576100e7565b8063238ac933146100eb5780633bc41cce146101155780633ccfd60b14610131575b5f5ffd5b3480156100f6575f5ffd5b506100ff610343565b60405161010c9190611325565b60405180910390f35b61012f600480360381019061012a9190611434565b610368565b005b34801561013c575f5ffd5b506101456105d7565b005b348015610152575f5ffd5b5061015b610730565b6040516101689190611325565b60405180910390f35b34801561017c575f5ffd5b50610185610755565b60405161019291906114fa565b60405180910390f35b3480156101a6575f5ffd5b506101af610761565b6040516101bc919061156e565b60405180910390f35b3480156101d0575f5ffd5b506101eb60048036038101906101e69190611587565b610785565b6040516101f891906115cc565b60405180910390f35b34801561020c575f5ffd5b5061022760048036038101906102229190611587565b6107a2565b005b348015610234575f5ffd5b5061023d61095c565b604051610250979695949392919061175e565b60405180910390f35b610273600480360381019061026e91906117e0565b6109a7565b005b348015610280575f5ffd5b50610289610a89565b6040516102969190611325565b60405180910390f35b3480156102aa575f5ffd5b506102c560048036038101906102c09190611587565b610aad565b005b3480156102d2575f5ffd5b506102db610c67565b6040516102e891906114fa565b60405180910390f35b3480156102fc575f5ffd5b50610305610d91565b604051610312919061185a565b60405180910390f35b348015610326575f5ffd5b50610341600480360381019061033c9190611587565b610db5565b005b60015f9054906101000a900473ffffffffffffffffffffffffffffffffffffffff1681565b67011c37937e08000034146103b2576040517f08c379a00000000000000000000000000000000000000000000000000000000081526004016103a9906118bd565b60405180910390fd5b60035f3373ffffffffffffffffffffffffffffffffffffffff1673ffffffffffffffffffffffffffffffffffffffff1681526020019081526020015f205f9054906101000a900460ff161561043c576040517f08c379a000000000000000000000000000000000000000000000000000000000815260040161043390611925565b60405180910390fd5b5f61048e7f084fc0e42ec05978ec6bb69620a633159c45d73e99139c181f736acf61efa41333604051602001610473929190611943565b60405160208183030381529060405280519060200120610edf565b905060015f9054906101000a900473ffffffffffffffffffffffffffffffffffffffff1673ffffffffffffffffffffffffffffffffffffffff166105158285858080601f0160208091040260200160405190810160405280939291908181526020018383808284375f81840152601f19601f82011690508083019250505050505050610f5b565b73ffffffffffffffffffffffffffffffffffffffff161461056b576040517f08c379a0000000000000000000000000000000000000000000000000000000008152600401610562906119b4565b60405180910390fd5b600160035f3373ffffffffffffffffffffffffffffffffffffffff1673ffffffffffffffffffffffffffffffffffffffff1681526020019081526020015f205f6101000a81548160ff0219169083151502179055506105cd8888888888610fec565b5050505050505050565b5f5f9054906101000a900473ffffffffffffffffffffffffffffffffffffffff1673ffffffffffffffffffffffffffffffffffffffff163373ffffffffffffffffffffffffffffffffffffffff1614610665576040517f08c379a000000000000000000000000000000000000000000000000000000000815260040161065c90611a1c565b60405180910390fd5b5f5f5f9054906101000a900473ffffffffffffffffffffffffffffffffffffffff1673ffffffffffffffffffffffffffffffffffffffff16476040516106aa90611a67565b5f6040518083038185875af1925050503d805f81146106e4576040519150601f19603f3d011682016040523d82523d5f602084013e6106e9565b606091505b505090508061072d576040517f08c379a000000000000000000000000000000000000000000000000000000000815260040161072490611ac5565b60405180910390fd5b50565b60025f9054906101000a900473ffffffffffffffffffffffffffffffffffffffff1681565b67011c37937e08000081565b7f000000000000000000000000000000000000000000000000000000000000000081565b6003602052805f5260405f205f915054906101000a900460ff1681565b5f5f9054906101000a900473ffffffffffffffffffffffffffffffffffffffff1673ffffffffffffffffffffffffffffffffffffffff163373ffffffffffffffffffffffffffffffffffffffff1614610830576040517f08c379a000000000000000000000000000000000000000000000000000000000815260040161082790611a1c565b60405180910390fd5b5f73ffffffffffffffffffffffffffffffffffffffff168173ffffffffffffffffffffffffffffffffffffffff160361089e576040517f08c379a000000000000000000000000000000000000000000000000000000000815260040161089590611b2d565b60405180910390fd5b8073ffffffffffffffffffffffffffffffffffffffff1660015f9054906101000a900473ffffffffffffffffffffffffffffffffffffffff1673ffffffffffffffffffffffffffffffffffffffff167f2d025324f0a785e8c12d0a0d91a9caa49df4ef20ff87e0df7213a1d4f3157beb60405160405180910390a38060015f6101000a81548173ffffffffffffffffffffffffffffffffffffffff021916908373ffffffffffffffffffffffffffffffffffffffff16021790555050565b5f6060805f5f5f60607f0f00000000000000000000000000000000000000000000000000000000000000965061099061114b565b809650819750505046935030925090919293949596565b7f000000000000000000000000000000000000000000000000000000000000000073ffffffffffffffffffffffffffffffffffffffff1663a035b1fe6040518163ffffffff1660e01b8152600401602060405180830381865afa158015610a10573d5f5f3e3d5ffd5b505050506040513d601f19601f82011682018060405250810190610a349190611b75565b3414610a75576040517f08c379a0000000000000000000000000000000000000000000000000000000008152600401610a6c90611bea565b60405180910390fd5b610a828585858585610fec565b5050505050565b5f5f9054906101000a900473ffffffffffffffffffffffffffffffffffffffff1681565b5f5f9054906101000a900473ffffffffffffffffffffffffffffffffffffffff1673ffffffffffffffffffffffffffffffffffffffff163373ffffffffffffffffffffffffffffffffffffffff1614610b3b576040517f08c379a0000000000000000000000000000000000000000000000000000000008152600401610b3290611a1c565b60405180910390fd5b5f73ffffffffffffffffffffffffffffffffffffffff168173ffffffffffffffffffffffffffffffffffffffff1603610ba9576040517f08c379a0000000000000000000000000000000000000000000000000000000008152600401610ba090611c52565b60405180910390fd5b8073ffffffffffffffffffffffffffffffffffffffff1660025f9054906101000a900473ffffffffffffffffffffffffffffffffffffffff1673ffffffffffffffffffffffffffffffffffffffff167f5413ae380ad3da3cce6ed6c1fcb658884e7261a3bb593a23cbc6dd8091e58d9860405160405180910390a38060025f6101000a81548173ffffffffffffffffffffffffffffffffffffffff021916908373ffffffffffffffffffffffffffffffffffffffff16021790555050565b5f7f000000000000000000000000000000000000000000000000000000000000000073ffffffffffffffffffffffffffffffffffffffff1663714cff566040518163ffffffff1660e01b8152600401602060405180830381865afa158015610cd1573d5f5f3e3d5ffd5b505050506040513d601f19601f82011682018060405250810190610cf59190611b75565b7f000000000000000000000000000000000000000000000000000000000000000073ffffffffffffffffffffffffffffffffffffffff16633a4f69996040518163ffffffff1660e01b8152600401602060405180830381865afa158015610d5e573d5f5f3e3d5ffd5b505050506040513d601f19601f82011682018060405250810190610d829190611b75565b610d8c9190611c9d565b905090565b7f084fc0e42ec05978ec6bb69620a633159c45d73e99139c181f736acf61efa41381565b5f5f9054906101000a900473ffffffffffffffffffffffffffffffffffffffff1673ffffffffffffffffffffffffffffffffffffffff163373ffffffffffffffffffffffffffffffffffffffff1614610e43576040517f08c379a0000000000000000000000000000000000000000000000000000000008152600401610e3a90611a1c565b60405180910390fd5b805f5f6101000a81548173ffffffffffffffffffffffffffffffffffffffff021916908373ffffffffffffffffffffffffffffffffffffffff1602179055508073ffffffffffffffffffffffffffffffffffffffff163373ffffffffffffffffffffffffffffffffffffffff167f8be0079c531659141344cd1fd0a4f28419497f9722a3daafe3b4186f6b6457e060405160405180910390a350565b5f610ee86111c2565b15610efc57610ef56111c6565b9050610f38565b7f00000000000000000000000000000000000000000000000000000000000000009050610f2761128e565b15610f3757610f346111c6565b90505b5b6719010000000000005f5280601a5281603a52604260182090505f603a52919050565b5f604051600115610fe557825160408114610f7e5760418114610f9d5750610fd8565b6040840151601b8160ff1c016020528060011b60011c60605250610fb0565b60608401515f1a60205260408401516060525b50835f5260208301516040526020600160805f60015afa5191505f606052806040523d610fe5575b638baa579f5f526004601cfd5b5092915050565b5f60025f9054906101000a900473ffffffffffffffffffffffffffffffffffffffff1673ffffffffffffffffffffffffffffffffffffffff163460405161103290611a67565b5f6040518083038185875af1925050503d805f811461106c576040519150601f19603f3d011682016040523d82523d5f602084013e611071565b606091505b50509050806110b5576040517f08c379a00000000000000000000000000000000000000000000000000000000081526004016110ac90611d1a565b60405180910390fd5b7f000000000000000000000000000000000000000000000000000000000000000073ffffffffffffffffffffffffffffffffffffffff1663b052da3c87878787876040518663ffffffff1660e01b8152600401611116959493929190611e1a565b5f604051808303815f87803b15801561112d575f5ffd5b505af115801561113f573d5f5f3e3d5ffd5b50505050505050505050565b6060806040518060400160405280600c81526020017f4369706865724d696e74657200000000000000000000000000000000000000008152506040518060400160405280600181526020017f3100000000000000000000000000000000000000000000000000000000000000815250915091509091565b5f90565b5f5f6111d06111c2565b156111fe575f5f6111df61114b565b9150915081805190602001209350808051906020012092505050611245565b7f000000000000000000000000000000000000000000000000000000000000000091507f000000000000000000000000000000000000000000000000000000000000000090505b6040517f8b73c3c69bb8fe3d512ecc4cf759cc79239f7b179b0ffacaa9a75d522b39400f815282602082015281604082015246606082015230608082015260a081209250505090565b5f5f7f000000000000000000000000000000000000000000000000000000000000000090505f7f0000000000000000000000000000000000000000000000000000000000000000905080301482461416159250505090565b5f73ffffffffffffffffffffffffffffffffffffffff82169050919050565b5f61130f826112e6565b9050919050565b61131f81611305565b82525050565b5f6020820190506113385f830184611316565b92915050565b5f5ffd5b5f5ffd5b5f5ffd5b5f8190508260206002028201111561136557611364611346565b5b92915050565b5f8190508260406002028201111561138657611385611346565b5b92915050565b5f819050826020600e02820111156113a7576113a6611346565b5b92915050565b6113b681611305565b81146113c0575f5ffd5b50565b5f813590506113d1816113ad565b92915050565b5f5ffd5b5f5ffd5b5f5f83601f8401126113f4576113f36113d7565b5b8235905067ffffffffffffffff811115611411576114106113db565b5b60208301915083600182028301111561142d5761142c611346565b5b9250929050565b5f5f5f5f5f5f5f610300888a0312156114505761144f61133e565b5b5f61145d8a828b0161134a565b975050604061146e8a828b0161136b565b96505060c061147f8a828b0161134a565b9550506101006114918a828b0161138c565b9450506102c06114a38a828b016113c3565b9350506102e088013567ffffffffffffffff8111156114c5576114c4611342565b5b6114d18a828b016113df565b925092505092959891949750929550565b5f819050919050565b6114f4816114e2565b82525050565b5f60208201905061150d5f8301846114eb565b92915050565b5f819050919050565b5f61153661153161152c846112e6565b611513565b6112e6565b9050919050565b5f6115478261151c565b9050919050565b5f6115588261153d565b9050919050565b6115688161154e565b82525050565b5f6020820190506115815f83018461155f565b92915050565b5f6020828403121561159c5761159b61133e565b5b5f6115a9848285016113c3565b91505092915050565b5f8115159050919050565b6115c6816115b2565b82525050565b5f6020820190506115df5f8301846115bd565b92915050565b5f7fff0000000000000000000000000000000000000000000000000000000000000082169050919050565b611619816115e5565b82525050565b5f81519050919050565b5f82825260208201905092915050565b8281835e5f83830152505050565b5f601f19601f8301169050919050565b5f6116618261161f565b61166b8185611629565b935061167b818560208601611639565b61168481611647565b840191505092915050565b5f819050919050565b6116a18161168f565b82525050565b5f81519050919050565b5f82825260208201905092915050565b5f819050602082019050919050565b6116d9816114e2565b82525050565b5f6116ea83836116d0565b60208301905092915050565b5f602082019050919050565b5f61170c826116a7565b61171681856116b1565b9350611721836116c1565b805f5b8381101561175157815161173888826116df565b9750611743836116f6565b925050600181019050611724565b5085935050505092915050565b5f60e0820190506117715f83018a611610565b81810360208301526117838189611657565b905081810360408301526117978188611657565b90506117a660608301876114eb565b6117b36080830186611316565b6117c060a0830185611698565b81810360c08301526117d28184611702565b905098975050505050505050565b5f5f5f5f5f6102e086880312156117fa576117f961133e565b5b5f6118078882890161134a565b95505060406118188882890161136b565b94505060c06118298882890161134a565b93505061010061183b8882890161138c565b9250506102c061184d888289016113c3565b9150509295509295909350565b5f60208201905061186d5f830184611698565b92915050565b7f57726f6e6720616c6c6f776c69737420707269636500000000000000000000005f82015250565b5f6118a7601583611629565b91506118b282611873565b602082019050919050565b5f6020820190508181035f8301526118d48161189b565b9050919050565b7f416c6c6f776c6973742073706f7420616c7265616479207573656400000000005f82015250565b5f61190f601b83611629565b915061191a826118db565b602082019050919050565b5f6020820190508181035f83015261193c81611903565b9050919050565b5f6040820190506119565f830185611698565b6119636020830184611316565b9392505050565b7f496e76616c696420616c6c6f776c697374207369676e617475726500000000005f82015250565b5f61199e601b83611629565b91506119a98261196a565b602082019050919050565b5f6020820190508181035f8301526119cb81611992565b9050919050565b7f554e415554484f52495a454400000000000000000000000000000000000000005f82015250565b5f611a06600c83611629565b9150611a11826119d2565b602082019050919050565b5f6020820190508181035f830152611a33816119fa565b9050919050565b5f81905092915050565b50565b5f611a525f83611a3a565b9150611a5d82611a44565b5f82019050919050565b5f611a7182611a47565b9150819050919050565b7f5769746864726177206661696c656400000000000000000000000000000000005f82015250565b5f611aaf600f83611629565b9150611aba82611a7b565b602082019050919050565b5f6020820190508181035f830152611adc81611aa3565b9050919050565b7f496e76616c6964207369676e65720000000000000000000000000000000000005f82015250565b5f611b17600e83611629565b9150611b2282611ae3565b602082019050919050565b5f6020820190508181035f830152611b4481611b0b565b9050919050565b611b54816114e2565b8114611b5e575f5ffd5b50565b5f81519050611b6f81611b4b565b92915050565b5f60208284031215611b8a57611b8961133e565b5b5f611b9784828501611b61565b91505092915050565b7f57726f6e672070726963650000000000000000000000000000000000000000005f82015250565b5f611bd4600b83611629565b9150611bdf82611ba0565b602082019050919050565b5f6020820190508181035f830152611c0181611bc8565b9050919050565b7f496e76616c6964206172746973740000000000000000000000000000000000005f82015250565b5f611c3c600e83611629565b9150611c4782611c08565b602082019050919050565b5f6020820190508181035f830152611c6981611c30565b9050919050565b7f4e487b71000000000000000000000000000000000000000000000000000000005f52601160045260245ffd5b5f611ca7826114e2565b9150611cb2836114e2565b9250828203905081811115611cca57611cc9611c70565b5b92915050565b7f455448207472616e7366657220746f20617274697374206661696c65640000005f82015250565b5f611d04601d83611629565b9150611d0f82611cd0565b602082019050919050565b5f6020820190508181035f830152611d3181611cf8565b9050919050565b82818337505050565b611d4d60408383611d38565b5050565b5f60029050919050565b5f81905092915050565b5f819050919050565b611d7a60408383611d38565b5050565b5f611d898383611d6e565b60408301905092915050565b5f82905092915050565b5f604082019050919050565b611db481611d51565b611dbe8184611d5b565b9250611dc982611d65565b805f5b83811015611e0157611dde8284611d95565b611de88782611d7e565b9650611df383611d9f565b925050600181019050611dcc565b505050505050565b611e166101c08383611d38565b5050565b5f6102e082019050611e2e5f830188611d41565b611e3b6040830187611dab565b611e4860c0830186611d41565b611e56610100830185611e09565b611e646102c0830184611316565b969550505050505056fea2646970667358221220fe162f0a79901b21451cbc63e7a8bc7482a5405b3f49fc96fc7b6d80283ddecb64736f6c634300081b0033",
        "linkReferences": {}
    },
    "methodIdentifiers": {
        "ALLOWLIST_PRICE()": "451680a6",
        "ALLOWLIST_TYPEHASH()": "e4bf91d9",
        "allowlistUsed(address)": "49f4c3ae",
        "artist()": "43bc1612",
        "eip712Domain()": "84b0196e",
        "mint(uint256[2],uint256[2][2],uint256[2],uint256[14],address)": "8d379619",
        "mintAllowlist(uint256[2],uint256[2][2],uint256[2],uint256[14],address,bytes)": "3bc41cce",
        "nft()": "47ccca02",
        "owner()": "8da5cb5b",
        "remainingSupply()": "da0239a6",
        "setArtist(address)": "d4c97533",
        "setSigner(address)": "6c19e783",
        "signer()": "238ac933",
        "transferOwnership(address)": "f2fde38b",
        "withdraw()": "3ccfd60b"
    },
    "id": 26
}