{
    "abi": [
        {
            "type": "constructor",
            "inputs": [
                {
                    "name": "_ecdhVerifierAddress",
                    "type": "address",
                    "internalType": "address"
                },
                {
                    "name": "_addDataVerifierAddress",
                    "type": "address",
                    "internalType": "address"
                },
                {
                    "name": "_metadataAddress",
                    "type": "address",
                    "internalType": "address"
                }
            ],
            "stateMutability": "nonpayable"
        },
        {
            "type": "function",
            "name": "approve",
            "inputs": [
                {
                    "name": "account",
                    "type": "address",
                    "internalType": "address"
                },
                {
                    "name": "id",
                    "type": "uint256",
                    "internalType": "uint256"
                }
            ],
            "outputs": [],
            "stateMutability": "payable"
        },
        {
            "type": "function",
            "name": "artist",
            "inputs": [],
            "outputs": [
                {
                    "name": "",
                    "type": "address",
                    "internalType": "address"
                }
            ],
            "stateMutability": "view"
        },
        {
            "type": "function",
            "name": "balanceOf",
            "inputs": [
                {
                    "name": "owner",
                    "type": "address",
                    "internalType": "address"
                }
            ],
            "outputs": [
                {
                    "name": "result",
                    "type": "uint256",
                    "internalType": "uint256"
                }
            ],
            "stateMutability": "view"
        },
        {
            "type": "function",
            "name": "getApproved",
            "inputs": [
                {
                    "name": "id",
                    "type": "uint256",
                    "internalType": "uint256"
                }
            ],
            "outputs": [
                {
                    "name": "result",
                    "type": "address",
                    "internalType": "address"
                }
            ],
            "stateMutability": "view"
        },
        {
            "type": "function",
            "name": "getEncryptedNote",
            "inputs": [
                {
                    "name": "tokenId",
                    "type": "uint256",
                    "internalType": "uint256"
                }
            ],
            "outputs": [
                {
                    "name": "a",
                    "type": "uint256",
                    "internalType": "uint256"
                },
                {
                    "name": "b",
                    "type": "uint256",
                    "internalType": "uint256"
                },
                {
                    "name": "c",
                    "type": "uint256",
                    "internalType": "uint256"
                },
                {
                    "name": "d",
                    "type": "uint256",
                    "internalType": "uint256"
                },
                {
                    "name": "timestamp",
                    "type": "uint256",
                    "internalType": "uint256"
                },
                {
                    "name": "flag",
                    "type": "bool",
                    "internalType": "bool"
                }
            ],
            "stateMutability": "view"
        },
        {
            "type": "function",
            "name": "getFlag",
            "inputs": [
                {
                    "name": "tokenId",
                    "type": "uint256",
                    "internalType": "uint256"
                }
            ],
            "outputs": [
                {
                    "name": "",
                    "type": "bool",
                    "internalType": "bool"
                }
            ],
            "stateMutability": "view"
        },
        {
            "type": "function",
            "name": "getTimestamp",
            "inputs": [
                {
                    "name": "tokenId",
                    "type": "uint256",
                    "internalType": "uint256"
                }
            ],
            "outputs": [
                {
                    "name": "",
                    "type": "uint256",
                    "internalType": "uint256"
                }
            ],
            "stateMutability": "view"
        },
        {
            "type": "function",
            "name": "getTimestampAndFlag",
            "inputs": [
                {
                    "name": "tokenId",
                    "type": "uint256",
                    "internalType": "uint256"
                }
            ],
            "outputs": [
                {
                    "name": "timestamp",
                    "type": "uint256",
                    "internalType": "uint256"
                },
                {
                    "name": "flag",
                    "type": "bool",
                    "internalType": "bool"
                }
            ],
            "stateMutability": "view"
        },
        {
            "type": "function",
            "name": "isApprovedForAll",
            "inputs": [
                {
                    "name": "owner",
                    "type": "address",
                    "internalType": "address"
                },
                {
                    "name": "operator",
                    "type": "address",
                    "internalType": "address"
                }
            ],
            "outputs": [
                {
                    "name": "result",
                    "type": "bool",
                    "internalType": "bool"
                }
            ],
            "stateMutability": "view"
        },
        {
            "type": "function",
            "name": "mapLastOwner",
            "inputs": [
                {
                    "name": "",
                    "type": "uint256",
                    "internalType": "uint256"
                }
            ],
            "outputs": [
                {
                    "name": "",
                    "type": "address",
                    "internalType": "address"
                }
            ],
            "stateMutability": "view"
        },
        {
            "type": "function",
            "name": "metadata",
            "inputs": [],
            "outputs": [
                {
                    "name": "",
                    "type": "address",
                    "internalType": "address"
                }
            ],
            "stateMutability": "view"
        },
        {
            "type": "function",
            "name": "mint",
            "inputs": [
                {
                    "name": "_pA",
                    "type": "uint256[2]",
                    "internalType": "uint256[2]"
                },
                {
                    "name": "_pB",
                    "type": "uint256[2][2]",
                    "internalType": "uint256[2][2]"
                },
                {
                    "name": "_pC",
                    "type": "uint256[2]",
                    "internalType": "uint256[2]"
                },
                {
                    "name": "_pubSignals",
                    "type": "uint256[5]",
                    "internalType": "uint256[5]"
                },
                {
                    "name": "to",
                    "type": "address",
                    "internalType": "address"
                }
            ],
            "outputs": [],
            "stateMutability": "payable"
        },
        {
            "type": "function",
            "name": "name",
            "inputs": [],
            "outputs": [
                {
                    "name": "",
                    "type": "string",
                    "internalType": "string"
                }
            ],
            "stateMutability": "view"
        },
        {
            "type": "function",
            "name": "ownerOf",
            "inputs": [
                {
                    "name": "id",
                    "type": "uint256",
                    "internalType": "uint256"
                }
            ],
            "outputs": [
                {
                    "name": "result",
                    "type": "address",
                    "internalType": "address"
                }
            ],
            "stateMutability": "view"
        },
        {
            "type": "function",
            "name": "price",
            "inputs": [],
            "outputs": [
                {
                    "name": "",
                    "type": "uint256",
                    "internalType": "uint256"
                }
            ],
            "stateMutability": "view"
        },
        {
            "type": "function",
            "name": "reCipher",
            "inputs": [
                {
                    "name": "_pA",
                    "type": "uint256[2]",
                    "internalType": "uint256[2]"
                },
                {
                    "name": "_pB",
                    "type": "uint256[2][2]",
                    "internalType": "uint256[2][2]"
                },
                {
                    "name": "_pC",
                    "type": "uint256[2]",
                    "internalType": "uint256[2]"
                },
                {
                    "name": "_pubSignals",
                    "type": "uint256[5]",
                    "internalType": "uint256[5]"
                },
                {
                    "name": "id",
                    "type": "uint256",
                    "internalType": "uint256"
                }
            ],
            "outputs": [],
            "stateMutability": "nonpayable"
        },
        {
            "type": "function",
            "name": "registerPublicKey",
            "inputs": [
                {
                    "name": "x",
                    "type": "uint256",
                    "internalType": "uint256"
                },
                {
                    "name": "y",
                    "type": "uint256",
                    "internalType": "uint256"
                }
            ],
            "outputs": [],
            "stateMutability": "nonpayable"
        },
        {
            "type": "function",
            "name": "returnTokenIdsOfOwner",
            "inputs": [
                {
                    "name": "start",
                    "type": "uint256",
                    "internalType": "uint256"
                },
                {
                    "name": "end",
                    "type": "uint256",
                    "internalType": "uint256"
                },
                {
                    "name": "owner",
                    "type": "address",
                    "internalType": "address"
                }
            ],
            "outputs": [
                {
                    "name": "",
                    "type": "uint256[]",
                    "internalType": "uint256[]"
                }
            ],
            "stateMutability": "view"
        },
        {
            "type": "function",
            "name": "safeTransferFrom",
            "inputs": [
                {
                    "name": "from",
                    "type": "address",
                    "internalType": "address"
                },
                {
                    "name": "to",
                    "type": "address",
                    "internalType": "address"
                },
                {
                    "name": "id",
                    "type": "uint256",
                    "internalType": "uint256"
                }
            ],
            "outputs": [],
            "stateMutability": "payable"
        },
        {
            "type": "function",
            "name": "safeTransferFrom",
            "inputs": [
                {
                    "name": "from",
                    "type": "address",
                    "internalType": "address"
                },
                {
                    "name": "to",
                    "type": "address",
                    "internalType": "address"
                },
                {
                    "name": "id",
                    "type": "uint256",
                    "internalType": "uint256"
                },
                {
                    "name": "data",
                    "type": "bytes",
                    "internalType": "bytes"
                }
            ],
            "outputs": [],
            "stateMutability": "payable"
        },
        {
            "type": "function",
            "name": "setApprovalForAll",
            "inputs": [
                {
                    "name": "operator",
                    "type": "address",
                    "internalType": "address"
                },
                {
                    "name": "isApproved",
                    "type": "bool",
                    "internalType": "bool"
                }
            ],
            "outputs": [],
            "stateMutability": "nonpayable"
        },
        {
            "type": "function",
            "name": "supportsInterface",
            "inputs": [
                {
                    "name": "interfaceId",
                    "type": "bytes4",
                    "internalType": "bytes4"
                }
            ],
            "outputs": [
                {
                    "name": "result",
                    "type": "bool",
                    "internalType": "bool"
                }
            ],
            "stateMutability": "view"
        },
        {
            "type": "function",
            "name": "symbol",
            "inputs": [],
            "outputs": [
                {
                    "name": "",
                    "type": "string",
                    "internalType": "string"
                }
            ],
            "stateMutability": "view"
        },
        {
            "type": "function",
            "name": "tokenIdToNote",
            "inputs": [
                {
                    "name": "",
                    "type": "uint256",
                    "internalType": "uint256"
                }
            ],
            "outputs": [
                {
                    "name": "field1",
                    "type": "uint256",
                    "internalType": "uint256"
                },
                {
                    "name": "field2",
                    "type": "uint256",
                    "internalType": "uint256"
                },
                {
                    "name": "field3",
                    "type": "uint256",
                    "internalType": "uint256"
                },
                {
                    "name": "field4",
                    "type": "uint256",
                    "internalType": "uint256"
                }
            ],
            "stateMutability": "view"
        },
        {
            "type": "function",
            "name": "tokenIds",
            "inputs": [],
            "outputs": [
                {
                    "name": "",
                    "type": "uint256",
                    "internalType": "uint256"
                }
            ],
            "stateMutability": "view"
        },
        {
            "type": "function",
            "name": "tokenURI",
            "inputs": [
                {
                    "name": "id",
                    "type": "uint256",
                    "internalType": "uint256"
                }
            ],
            "outputs": [
                {
                    "name": "",
                    "type": "string",
                    "internalType": "string"
                }
            ],
            "stateMutability": "view"
        },
        {
            "type": "function",
            "name": "transferFrom",
            "inputs": [
                {
                    "name": "from",
                    "type": "address",
                    "internalType": "address"
                },
                {
                    "name": "to",
                    "type": "address",
                    "internalType": "address"
                },
                {
                    "name": "id",
                    "type": "uint256",
                    "internalType": "uint256"
                }
            ],
            "outputs": [],
            "stateMutability": "payable"
        },
        {
            "type": "function",
            "name": "userPublicKeys",
            "inputs": [
                {
                    "name": "",
                    "type": "address",
                    "internalType": "address"
                },
                {
                    "name": "",
                    "type": "uint256",
                    "internalType": "uint256"
                }
            ],
            "outputs": [
                {
                    "name": "",
                    "type": "uint256",
                    "internalType": "uint256"
                }
            ],
            "stateMutability": "view"
        },
        {
            "type": "function",
            "name": "verifiedTransferFrom",
            "inputs": [
                {
                    "name": "from",
                    "type": "address",
                    "internalType": "address"
                },
                {
                    "name": "to",
                    "type": "address",
                    "internalType": "address"
                },
                {
                    "name": "id",
                    "type": "uint256",
                    "internalType": "uint256"
                },
                {
                    "name": "_pA",
                    "type": "uint256[2]",
                    "internalType": "uint256[2]"
                },
                {
                    "name": "_pB",
                    "type": "uint256[2][2]",
                    "internalType": "uint256[2][2]"
                },
                {
                    "name": "_pC",
                    "type": "uint256[2]",
                    "internalType": "uint256[2]"
                },
                {
                    "name": "_pubSignals",
                    "type": "uint256[13]",
                    "internalType": "uint256[13]"
                }
            ],
            "outputs": [],
            "stateMutability": "payable"
        },
        {
            "type": "event",
            "name": "Approval",
            "inputs": [
                {
                    "name": "owner",
                    "type": "address",
                    "indexed": true,
                    "internalType": "address"
                },
                {
                    "name": "account",
                    "type": "address",
                    "indexed": true,
                    "internalType": "address"
                },
                {
                    "name": "id",
                    "type": "uint256",
                    "indexed": true,
                    "internalType": "uint256"
                }
            ],
            "anonymous": false
        },
        {
            "type": "event",
            "name": "ApprovalForAll",
            "inputs": [
                {
                    "name": "owner",
                    "type": "address",
                    "indexed": true,
                    "internalType": "address"
                },
                {
                    "name": "operator",
                    "type": "address",
                    "indexed": true,
                    "internalType": "address"
                },
                {
                    "name": "isApproved",
                    "type": "bool",
                    "indexed": false,
                    "internalType": "bool"
                }
            ],
            "anonymous": false
        },
        {
            "type": "event",
            "name": "Transfer",
            "inputs": [
                {
                    "name": "from",
                    "type": "address",
                    "indexed": true,
                    "internalType": "address"
                },
                {
                    "name": "to",
                    "type": "address",
                    "indexed": true,
                    "internalType": "address"
                },
                {
                    "name": "id",
                    "type": "uint256",
                    "indexed": true,
                    "internalType": "uint256"
                }
            ],
            "anonymous": false
        },
        {
            "type": "event",
            "name": "VerifiedTransfer",
            "inputs": [
                {
                    "name": "from",
                    "type": "uint256[2]",
                    "indexed": true,
                    "internalType": "uint256[2]"
                },
                {
                    "name": "to",
                    "type": "uint256[2]",
                    "indexed": true,
                    "internalType": "uint256[2]"
                },
                {
                    "name": "id",
                    "type": "uint256",
                    "indexed": true,
                    "internalType": "uint256"
                }
            ],
            "anonymous": false
        },
        {
            "type": "error",
            "name": "AccountBalanceOverflow",
            "inputs": []
        },
        {
            "type": "error",
            "name": "BalanceQueryForZeroAddress",
            "inputs": []
        },
        {
            "type": "error",
            "name": "NotOwnerNorApproved",
            "inputs": []
        },
        {
            "type": "error",
            "name": "TokenAlreadyExists",
            "inputs": []
        },
        {
            "type": "error",
            "name": "TokenDoesNotExist",
            "inputs": []
        },
        {
            "type": "error",
            "name": "TransferFromIncorrectOwner",
            "inputs": []
        },
        {
            "type": "error",
            "name": "TransferToNonERC721ReceiverImplementer",
            "inputs": []
        },
        {
            "type": "error",
            "name": "TransferToZeroAddress",
            "inputs": []
        }
    ],
    "bytecode": {
        "object": "0x60806040523480156200001157600080fd5b5060405162001dd538038062001dd5833981016040819052620000349162000094565b600080546001600160a01b039485166001600160a01b031991821617909155600180549385169382169390931790925560058054919093169116179055620000de565b80516001600160a01b03811681146200008f57600080fd5b919050565b600080600060608486031215620000aa57600080fd5b620000b58462000077565b9250620000c56020850162000077565b9150620000d56040850162000077565b90509250925092565b611ce780620000ee6000396000f3fe6080604052600436106101c25760003560e01c80636f494049116100f7578063a6402b5011610095578063b88d4fde11610064578063b88d4fde14610585578063c76f506614610598578063c87b56dd146105fc578063e985e9c51461061c57600080fd5b8063a6402b50146104f0578063a728776d1461053f578063b18fe84014610552578063b633620c1461056557600080fd5b806395d89b41116100d157806395d89b411461046857806395fdc99914610494578063a035b1fe146104b4578063a22cb465146104d057600080fd5b80636f4940491461041257806370a0823114610432578063714cff561461045257600080fd5b8063392f37e91161016457806342842e0e1161013e57806342842e0e1461038257806343bc1612146103955780636352211e146103bd5780636d32adb8146103dd57600080fd5b8063392f37e9146102ff5780633a8016b31461031f5780633c20bbb51461035557600080fd5b8063095ea7b3116101a0578063095ea7b31461028957806310eefaf11461029e57806323b872dd146102cc5780632ee4681b146102df57600080fd5b806301ffc9a7146101c757806306fdde0314610219578063081812fc14610251575b600080fd5b3480156101d357600080fd5b506102046101e23660046115e5565b6301ffc9a760e09190911c9081146380ac58cd821417635b5e139f9091141790565b60405190151581526020015b60405180910390f35b34801561022557600080fd5b5060408051808201909152600681526521a4a82422a960d11b60208201525b604051610210919061163a565b34801561025d57600080fd5b5061027161026c36600461166d565b610652565b6040516001600160a01b039091168152602001610210565b61029c61029736600461169d565b610691565b005b3480156102aa57600080fd5b506102be6102b936600461169d565b6106a0565b604051908152602001610210565b61029c6102da3660046116c7565b6106c5565b3480156102eb57600080fd5b5061029c6102fa366004611736565b610712565b34801561030b57600080fd5b50600554610271906001600160a01b031681565b34801561032b57600080fd5b5061027161033a36600461166d565b6004602052600090815260409020546001600160a01b031681565b34801561036157600080fd5b50610375610370366004611799565b610834565b60405161021091906117ce565b61029c6103903660046116c7565b610945565b3480156103a157600080fd5b50610271735ac7555f7ecd655c9c73ed5b9bb8d5f628fa428281565b3480156103c957600080fd5b506102716103d836600461166d565b610977565b3480156103e957600080fd5b506103fd6103f836600461166d565b6109b5565b60408051928352901515602083015201610210565b34801561041e57600080fd5b5061029c61042d366004611812565b610a0a565b34801561043e57600080fd5b506102be61044d366004611834565b610a3a565b34801561045e57600080fd5b506102be60065481565b34801561047457600080fd5b5060408051808201909152600381526204349560ec1b6020820152610244565b3480156104a057600080fd5b506102046104af36600461166d565b610a75565b3480156104c057600080fd5b506102be67016345785d8a000081565b3480156104dc57600080fd5b5061029c6104eb366004611860565b610ab6565b3480156104fc57600080fd5b5061051061050b36600461166d565b610b0c565b6040805196875260208701959095529385019290925260608401526080830152151560a082015260c001610210565b61029c61054d366004611897565b610b56565b61029c610560366004611903565b610d28565b34801561057157600080fd5b506102be61058036600461166d565b610dfd565b61029c610593366004611991565b610e44565b3480156105a457600080fd5b506105dc6105b336600461166d565b600360208190526000918252604090912080546001820154600283015492909301549092919084565b604080519485526020850193909352918301526060820152608001610210565b34801561060857600080fd5b5061024461061736600461166d565b610e9f565b34801561062857600080fd5b50610204610637366004611a2c565b601c52670a5a2e7a000000006008526000526030600c205490565b600081600052673ec412a9852d173d60c11b601c52602060002082018201805460601b6106875763ceea21b66000526004601cfd5b6001015492915050565b61069c338383610f56565b5050565b600260205281600052604060002081600281106106bc57600080fd5b01549150829050565b60405162461bcd60e51b815260206004820181905260248201527f5573652076657269666965645472616e7366657246726f6d20696e737465616460448201526064015b60405180910390fd5b61071b81610977565b6001600160a01b0316336001600160a01b03161461077b5760405162461bcd60e51b815260206004820152601c60248201527f4d53472053454e444552204e4545445320544f204245204f574e4552000000006044820152606401610709565b6001546040516334baeab960e01b81526000916001600160a01b0316906334baeab9906107b2908990899089908990600401611a83565b602060405180830381865afa1580156107cf573d6000803e3d6000fd5b505050506040513d601f19601f820116820180604052508101906107f39190611ab4565b9050801561082c57610818602084013560408501356060860135608087013586610ff7565b61082c828460005b6020020135600161103e565b505050505050565b60608284106108735760405162461bcd60e51b815260206004820152600b60248201526a115391080f8814d510549560aa1b6044820152606401610709565b600061087f8585611afd565b67ffffffffffffffff81111561089757610897611b10565b6040519080825280602002602001820160405280156108c0578160200160208202803683370190505b50905060005b8486101561093b576108d7866110c6565b1561092957836001600160a01b03166108ef87610977565b6001600160a01b031603610929578582828151811061091057610910611ad1565b6020908102919091010152610926816001611b26565b90505b610934866001611b26565b95506108c6565b8152949350505050565b6109508383836106c5565b813b1561097257610972838383604051806020016040528060008152506110ea565b505050565b6000818152673ec412a9852d173d60c11b601c526020902081018101546001600160a01b0316806109b05763ceea21b66000526004601cfd5b919050565b6000806109c1836110c6565b6109dd5760405162461bcd60e51b815260040161070990611b39565b60006109e88461116e565b6b7fffffffffffffffffffffff8116956001605f1b9091161515945092505050565b60408051808201825283815260208082018490523360009081526002918290529290922061097292909190611592565b600081610a4f57638f4eb6046000526004601cfd5b673ec412a9852d173d60c11b601c528160005263ffffffff601c600c2054169050919050565b6000610a80826110c6565b610a9c5760405162461bcd60e51b815260040161070990611b39565b6000610aa78361116e565b6001605f1b1615159392505050565b801515905081601c52670a5a2e7a0000000060085233600052806030600c2055806000528160601b60601c337f17307eab39ab6107e8899845ad3d59bd9653f200f220920489ca2b5937696c3160206000a35050565b600080600080600080600080610b21896109b5565b60009a8b52600360208190526040909b2080546001820154600283015492909d0154909d919b50995091975095509350505050565b67016345785d8a00003414610bad5760405162461bcd60e51b815260206004820152601860248201527f56616c756520646f73656e74206d6174636820707269636500000000000000006044820152606401610709565b604051600090735ac7555f7ecd655c9c73ed5b9bb8d5f628fa42829034908381818185875af1925050503d8060008114610c03576040519150601f19603f3d011682016040523d82523d6000602084013e610c08565b606091505b5050905080610c505760405162461bcd60e51b81526020600482015260146024820152732330b4b632b2103a379039b2b7321022ba3432b960611b6044820152606401610709565b6001546040516334baeab960e01b81526000916001600160a01b0316906334baeab990610c87908a908a908a908a90600401611a83565b602060405180830381865afa158015610ca4573d6000803e3d6000fd5b505050506040513d601f19601f82011682018060405250810190610cc89190611ab4565b90508015610d1f57600654610cde906001611b26565b6006819055610d0490602086013590604087013590606088013590608089013590610ff7565b610d1083600654611190565b600654610d1f90856000610820565b50505050505050565b610d3684848484898b611231565b50610d42878787611492565b60008581526004602090815260409182902080546001600160a01b0319166001600160a01b038b16179055815180830190925282358252869190810183600160200201359052604051610d959190611b67565b6040805191829003822082820182526101608501358352610180850135602084015290519091610dc491611b67565b604051908190038120907f939e1e60c704d150b520661f589430c03e562a7f805e5f6d6ebb577254ec7efa90600090a450505050505050565b6000610e08826110c6565b610e245760405162461bcd60e51b815260040161070990611b39565b6000610e2f8361116e565b6b7fffffffffffffffffffffff169392505050565b610e4f8585856106c5565b833b15610e9857610e9885858585858080601f0160208091040260200160405190810160405280939291908181526020018383808284376000920191909152506110ea92505050565b5050505050565b60055460008281526003602081905260409182902080546001820154600283015492909301549351635b48369760e11b81526004810187905260248101919091526044810192909252606482015260848101919091526060916001600160a01b03169063b6906d2e9060a401600060405180830381865afa158015610f28573d6000803e3d6000fd5b505050506040513d6000823e601f3d908101601f19168201604052610f509190810190611b9b565b92915050565b60001960601c828116925083811693508160005283673ec412a9852d173d60c11b17601c5260206000208201820180548216915081610f9d5763ceea21b66000526004601cfd5b818514851517610fc357816000526030600c2054610fc357634b6e7f186000526004601cfd5b6001018390558183827f8c5be1e5ebec7d5bd14f71427d1e84f3dd0314c0f7b2291e5b200ac8c7c3b925600038a450505050565b604080516080810182529586526020808701958652868201948552606087019384526000928352600390819052912094518555925160018501559051600284015551910155565b6001605f1b82106110875760405162461bcd60e51b815260206004820152601360248201527254696d657374616d7020746f6f206c6172676560681b6044820152606401610709565b818115611095576001605f1b175b6000848152673ec412a9852d173d60c11b601c526020902084018401805460a081811c8418901b1890555b50505050565b6000818152673ec412a9852d173d60c11b601c52602090208101015460601b151590565b60405163150b7a028082523360208301528560601b60601c604083015283606083015260808083015282518060a08401528015611131578060c08401826020870160045afa505b60208360a48301601c860160008a5af1611154573d15611154573d6000843e3d83fd5b508060e01b82511461082c5763d1a57ed66000526004601cfd5b6000818152673ec412a9852d173d60c11b601c52602090208101015460a01c90565b8160601b60601c915080600052673ec412a9852d173d60c11b601c5260206000208101810180548060601b156111ce5763c991cbb16000526004601cfd5b831790556000829052601c600c20805460010163ffffffff811684026112035767ea553b3401336cea841560021b526004601cfd5b9055808260007fddf252ad1be2c89b69c2b068fc378daa952ba7f163c4a11628f55a4df523b3ef8138a45050565b60008281526003602052604081205460e0850135146112625760405162461bcd60e51b815260040161070990611c48565b600083815260036020526040902060010154610100850135146112975760405162461bcd60e51b815260040161070990611c48565b600083815260036020526040902060020154610120850135146112cc5760405162461bcd60e51b815260040161070990611c48565b60008381526003602081905260409091200154610140850135146113025760405162461bcd60e51b815260040161070990611c48565b6001600160a01b0382166000908152600260205260409020548435146113645760405162461bcd60e51b81526020600482015260176024820152760a48a8692ac8aa440968ab2a640889e9ca8409a82a8869604b1b6044820152606401610709565b6001600160a01b03821660009081526002602090815260409091206001015490850135146113ce5760405162461bcd60e51b81526020600482015260176024820152760a48a8692ac8aa440968ab2a640889e9ca8409a82a8869604b1b6044820152606401610709565b600080546040516378a1d3af60e11b81526001600160a01b039091169063f143a75e90611405908b908b908b908b90600401611c7f565b602060405180830381865afa158015611422573d6000803e3d6000fd5b505050506040513d601f19601f820116820180604052508101906114469190611ab4565b905080156114825761146b6060860135608087013560a088013560c089013588610ff7565b61147b846040870135600061103e565b9050611488565b60009150505b9695505050505050565b6000818152673ec412a9852d173d60c11b3317601c52602090208101810180546001600160a01b0394851694938416938116919082861483026114e45767ceea21b6a1148100831560021b526004601cfd5b856000528160010154925082331486331417611512576030600c205461151257634b6e7f186000526004601cfd5b821561152057600082600101555b85851818905550601c600c8181208054600019019055600084905220805460010163ffffffff811684026115635767ea553b3401336cea841560021b526004601cfd5b90558082847fddf252ad1be2c89b69c2b068fc378daa952ba7f163c4a11628f55a4df523b3ef600038a4505050565b82600281019282156115c0579160200282015b828111156115c05782518255916020019190600101906115a5565b506115cc9291506115d0565b5090565b5b808211156115cc57600081556001016115d1565b6000602082840312156115f757600080fd5b81356001600160e01b03198116811461160f57600080fd5b9392505050565b60005b83811015611631578181015183820152602001611619565b50506000910152565b6020815260008251806020840152611659816040850160208701611616565b601f01601f19169190910160400192915050565b60006020828403121561167f57600080fd5b5035919050565b80356001600160a01b03811681146109b057600080fd5b600080604083850312156116b057600080fd5b6116b983611686565b946020939093013593505050565b6000806000606084860312156116dc57600080fd5b6116e584611686565b92506116f360208501611686565b9150604084013590509250925092565b8060408101831015610f5057600080fd5b8060808101831015610f5057600080fd5b8060a08101831015610f5057600080fd5b60008060008060006101c0868803121561174f57600080fd5b6117598787611703565b94506117688760408801611714565b93506117778760c08801611703565b9250611787876101008801611725565b949793965091946101a0013592915050565b6000806000606084860312156117ae57600080fd5b83359250602084013591506117c560408501611686565b90509250925092565b6020808252825182820181905260009190848201906040850190845b81811015611806578351835292840192918401916001016117ea565b50909695505050505050565b6000806040838503121561182557600080fd5b50508035926020909101359150565b60006020828403121561184657600080fd5b61160f82611686565b801515811461185d57600080fd5b50565b6000806040838503121561187357600080fd5b61187c83611686565b9150602083013561188c8161184f565b809150509250929050565b60008060008060006101c086880312156118b057600080fd5b6118ba8787611703565b94506118c98760408801611714565b93506118d88760c08801611703565b92506118e8876101008801611725565b91506118f76101a08701611686565b90509295509295909350565b600080600080600080600061030080898b03121561192057600080fd5b61192989611686565b975061193760208a01611686565b96506040890135955061194d8a60608b01611703565b945061195c8a60a08b01611714565b935061196c8a6101208b01611703565b925089818a01111561197d57600080fd5b506101608801905092959891949750929550565b6000806000806000608086880312156119a957600080fd5b6119b286611686565b94506119c060208701611686565b935060408601359250606086013567ffffffffffffffff808211156119e457600080fd5b818801915088601f8301126119f857600080fd5b813581811115611a0757600080fd5b896020828501011115611a1957600080fd5b9699959850939650602001949392505050565b60008060408385031215611a3f57600080fd5b611a4883611686565b9150611a5660208401611686565b90509250929050565b8060005b60028110156110c057604080838637938401939190910190600101611a63565b6101a081016040868337611a9a6040830186611a5f565b60408460c084013760a08361010084013795945050505050565b600060208284031215611ac657600080fd5b815161160f8161184f565b634e487b7160e01b600052603260045260246000fd5b634e487b7160e01b600052601160045260246000fd5b81810381811115610f5057610f50611ae7565b634e487b7160e01b600052604160045260246000fd5b80820180821115610f5057610f50611ae7565b602080825260149082015273151bdad95b88191bd95cc81b9bdd08195e1a5cdd60621b604082015260600190565b60008183825b6002811015611b8c578151835260209283019290910190600101611b6d565b50505060408201905092915050565b600060208284031215611bad57600080fd5b815167ffffffffffffffff80821115611bc557600080fd5b818401915084601f830112611bd957600080fd5b815181811115611beb57611beb611b10565b604051601f8201601f19908116603f01168101908382118183101715611c1357611c13611b10565b81604052828152876020848701011115611c2c57600080fd5b611c3d836020830160208801611616565b979650505050505050565b6020808252601f908201527f4f4c4420454e43525950544544204441544120444f53454e54204d4154434800604082015260600190565b6102a081016040868337611c966040830186611a5f565b60408460c08401376101a0836101008401379594505050505056fea2646970667358221220594cc30d782e4d848f0f89867300f51a38e353dec5c9df8e69dedbb5c308a97864736f6c63430008180033",
        "linkReferences": {}
    },
    "methodIdentifiers": {
        "approve(address,uint256)": "095ea7b3",
        "artist()": "43bc1612",
        "balanceOf(address)": "70a08231",
        "getApproved(uint256)": "081812fc",
        "getEncryptedNote(uint256)": "a6402b50",
        "getFlag(uint256)": "95fdc999",
        "getTimestamp(uint256)": "b633620c",
        "getTimestampAndFlag(uint256)": "6d32adb8",
        "isApprovedForAll(address,address)": "e985e9c5",
        "mapLastOwner(uint256)": "3a8016b3",
        "metadata()": "392f37e9",
        "mint(uint256[2],uint256[2][2],uint256[2],uint256[5],address)": "a728776d",
        "name()": "06fdde03",
        "ownerOf(uint256)": "6352211e",
        "price()": "a035b1fe",
        "reCipher(uint256[2],uint256[2][2],uint256[2],uint256[5],uint256)": "2ee4681b",
        "registerPublicKey(uint256,uint256)": "6f494049",
        "returnTokenIdsOfOwner(uint256,uint256,address)": "3c20bbb5",
        "safeTransferFrom(address,address,uint256)": "42842e0e",
        "safeTransferFrom(address,address,uint256,bytes)": "b88d4fde",
        "setApprovalForAll(address,bool)": "a22cb465",
        "supportsInterface(bytes4)": "01ffc9a7",
        "symbol()": "95d89b41",
        "tokenIdToNote(uint256)": "c76f5066",
        "tokenIds()": "714cff56",
        "tokenURI(uint256)": "c87b56dd",
        "transferFrom(address,address,uint256)": "23b872dd",
        "userPublicKeys(address,uint256)": "10eefaf1",
        "verifiedTransferFrom(address,address,uint256,uint256[2],uint256[2][2],uint256[2],uint256[13])": "b18fe840"
    },
    "id": 29
}