{
    "abi": [
        {
            "type": "constructor",
            "inputs": [
                {
                    "name": "_ecdhVerifierAddress",
                    "type": "address",
                    "internalType": "address"
                },
                {
                    "name": "_addDataVerifierAddress",
                    "type": "address",
                    "internalType": "address"
                },
                {
                    "name": "_metadataAddress",
                    "type": "address",
                    "internalType": "address"
                }
            ],
            "stateMutability": "nonpayable"
        },
        {
            "type": "function",
            "name": "N",
            "inputs": [],
            "outputs": [
                {
                    "name": "",
                    "type": "uint256",
                    "internalType": "uint256"
                }
            ],
            "stateMutability": "view"
        },
        {
            "type": "function",
            "name": "approve",
            "inputs": [
                {
                    "name": "account",
                    "type": "address",
                    "internalType": "address"
                },
                {
                    "name": "id",
                    "type": "uint256",
                    "internalType": "uint256"
                }
            ],
            "outputs": [],
            "stateMutability": "payable"
        },
        {
            "type": "function",
            "name": "artist",
            "inputs": [],
            "outputs": [
                {
                    "name": "",
                    "type": "address",
                    "internalType": "address"
                }
            ],
            "stateMutability": "view"
        },
        {
            "type": "function",
            "name": "balanceOf",
            "inputs": [
                {
                    "name": "owner",
                    "type": "address",
                    "internalType": "address"
                }
            ],
            "outputs": [
                {
                    "name": "result",
                    "type": "uint256",
                    "internalType": "uint256"
                }
            ],
            "stateMutability": "view"
        },
        {
            "type": "function",
            "name": "ciphertextLength",
            "inputs": [],
            "outputs": [
                {
                    "name": "",
                    "type": "uint256",
                    "internalType": "uint256"
                }
            ],
            "stateMutability": "pure"
        },
        {
            "type": "function",
            "name": "getApproved",
            "inputs": [
                {
                    "name": "id",
                    "type": "uint256",
                    "internalType": "uint256"
                }
            ],
            "outputs": [
                {
                    "name": "result",
                    "type": "address",
                    "internalType": "address"
                }
            ],
            "stateMutability": "view"
        },
        {
            "type": "function",
            "name": "getEncryptedNote",
            "inputs": [
                {
                    "name": "tokenId",
                    "type": "uint256",
                    "internalType": "uint256"
                }
            ],
            "outputs": [
                {
                    "name": "ciphertext",
                    "type": "uint256[]",
                    "internalType": "uint256[]"
                },
                {
                    "name": "timestamp",
                    "type": "uint256",
                    "internalType": "uint256"
                },
                {
                    "name": "flag",
                    "type": "bool",
                    "internalType": "bool"
                }
            ],
            "stateMutability": "view"
        },
        {
            "type": "function",
            "name": "getFlag",
            "inputs": [
                {
                    "name": "tokenId",
                    "type": "uint256",
                    "internalType": "uint256"
                }
            ],
            "outputs": [
                {
                    "name": "",
                    "type": "bool",
                    "internalType": "bool"
                }
            ],
            "stateMutability": "view"
        },
        {
            "type": "function",
            "name": "getTimestamp",
            "inputs": [
                {
                    "name": "tokenId",
                    "type": "uint256",
                    "internalType": "uint256"
                }
            ],
            "outputs": [
                {
                    "name": "",
                    "type": "uint256",
                    "internalType": "uint256"
                }
            ],
            "stateMutability": "view"
        },
        {
            "type": "function",
            "name": "getTimestampAndFlag",
            "inputs": [
                {
                    "name": "tokenId",
                    "type": "uint256",
                    "internalType": "uint256"
                }
            ],
            "outputs": [
                {
                    "name": "timestamp",
                    "type": "uint256",
                    "internalType": "uint256"
                },
                {
                    "name": "flag",
                    "type": "bool",
                    "internalType": "bool"
                }
            ],
            "stateMutability": "view"
        },
        {
            "type": "function",
            "name": "isApprovedForAll",
            "inputs": [
                {
                    "name": "owner",
                    "type": "address",
                    "internalType": "address"
                },
                {
                    "name": "operator",
                    "type": "address",
                    "internalType": "address"
                }
            ],
            "outputs": [
                {
                    "name": "result",
                    "type": "bool",
                    "internalType": "bool"
                }
            ],
            "stateMutability": "view"
        },
        {
            "type": "function",
            "name": "mapLastOwner",
            "inputs": [
                {
                    "name": "",
                    "type": "uint256",
                    "internalType": "uint256"
                }
            ],
            "outputs": [
                {
                    "name": "",
                    "type": "address",
                    "internalType": "address"
                }
            ],
            "stateMutability": "view"
        },
        {
            "type": "function",
            "name": "maxNumber",
            "inputs": [],
            "outputs": [
                {
                    "name": "",
                    "type": "uint256",
                    "internalType": "uint256"
                }
            ],
            "stateMutability": "view"
        },
        {
            "type": "function",
            "name": "metadata",
            "inputs": [],
            "outputs": [
                {
                    "name": "",
                    "type": "address",
                    "internalType": "address"
                }
            ],
            "stateMutability": "view"
        },
        {
            "type": "function",
            "name": "mint",
            "inputs": [
                {
                    "name": "_pA",
                    "type": "uint256[2]",
                    "internalType": "uint256[2]"
                },
                {
                    "name": "_pB",
                    "type": "uint256[2][2]",
                    "internalType": "uint256[2][2]"
                },
                {
                    "name": "_pC",
                    "type": "uint256[2]",
                    "internalType": "uint256[2]"
                },
                {
                    "name": "_pubSignals",
                    "type": "uint256[14]",
                    "internalType": "uint256[14]"
                },
                {
                    "name": "to",
                    "type": "address",
                    "internalType": "address"
                }
            ],
            "outputs": [],
            "stateMutability": "payable"
        },
        {
            "type": "function",
            "name": "mintFrom",
            "inputs": [
                {
                    "name": "_pA",
                    "type": "uint256[2]",
                    "internalType": "uint256[2]"
                },
                {
                    "name": "_pB",
                    "type": "uint256[2][2]",
                    "internalType": "uint256[2][2]"
                },
                {
                    "name": "_pC",
                    "type": "uint256[2]",
                    "internalType": "uint256[2]"
                },
                {
                    "name": "_pubSignals",
                    "type": "uint256[14]",
                    "internalType": "uint256[14]"
                },
                {
                    "name": "to",
                    "type": "address",
                    "internalType": "address"
                }
            ],
            "outputs": [],
            "stateMutability": "nonpayable"
        },
        {
            "type": "function",
            "name": "minter",
            "inputs": [],
            "outputs": [
                {
                    "name": "",
                    "type": "address",
                    "internalType": "address"
                }
            ],
            "stateMutability": "view"
        },
        {
            "type": "function",
            "name": "name",
            "inputs": [],
            "outputs": [
                {
                    "name": "",
                    "type": "string",
                    "internalType": "string"
                }
            ],
            "stateMutability": "view"
        },
        {
            "type": "function",
            "name": "owner",
            "inputs": [],
            "outputs": [
                {
                    "name": "",
                    "type": "address",
                    "internalType": "address"
                }
            ],
            "stateMutability": "view"
        },
        {
            "type": "function",
            "name": "ownerOf",
            "inputs": [
                {
                    "name": "id",
                    "type": "uint256",
                    "internalType": "uint256"
                }
            ],
            "outputs": [
                {
                    "name": "result",
                    "type": "address",
                    "internalType": "address"
                }
            ],
            "stateMutability": "view"
        },
        {
            "type": "function",
            "name": "plaintextLength",
            "inputs": [],
            "outputs": [
                {
                    "name": "",
                    "type": "uint256",
                    "internalType": "uint256"
                }
            ],
            "stateMutability": "pure"
        },
        {
            "type": "function",
            "name": "price",
            "inputs": [],
            "outputs": [
                {
                    "name": "",
                    "type": "uint256",
                    "internalType": "uint256"
                }
            ],
            "stateMutability": "view"
        },
        {
            "type": "function",
            "name": "reCipher",
            "inputs": [
                {
                    "name": "_pA",
                    "type": "uint256[2]",
                    "internalType": "uint256[2]"
                },
                {
                    "name": "_pB",
                    "type": "uint256[2][2]",
                    "internalType": "uint256[2][2]"
                },
                {
                    "name": "_pC",
                    "type": "uint256[2]",
                    "internalType": "uint256[2]"
                },
                {
                    "name": "_pubSignals",
                    "type": "uint256[14]",
                    "internalType": "uint256[14]"
                },
                {
                    "name": "id",
                    "type": "uint256",
                    "internalType": "uint256"
                }
            ],
            "outputs": [],
            "stateMutability": "nonpayable"
        },
        {
            "type": "function",
            "name": "registerPublicKey",
            "inputs": [
                {
                    "name": "x",
                    "type": "uint256",
                    "internalType": "uint256"
                },
                {
                    "name": "y",
                    "type": "uint256",
                    "internalType": "uint256"
                }
            ],
            "outputs": [],
            "stateMutability": "nonpayable"
        },
        {
            "type": "function",
            "name": "returnTokenIdsOfOwner",
            "inputs": [
                {
                    "name": "start",
                    "type": "uint256",
                    "internalType": "uint256"
                },
                {
                    "name": "end",
                    "type": "uint256",
                    "internalType": "uint256"
                },
                {
                    "name": "owner",
                    "type": "address",
                    "internalType": "address"
                }
            ],
            "outputs": [
                {
                    "name": "",
                    "type": "uint256[]",
                    "internalType": "uint256[]"
                }
            ],
            "stateMutability": "view"
        },
        {
            "type": "function",
            "name": "safeTransferFrom",
            "inputs": [
                {
                    "name": "from",
                    "type": "address",
                    "internalType": "address"
                },
                {
                    "name": "to",
                    "type": "address",
                    "internalType": "address"
                },
                {
                    "name": "id",
                    "type": "uint256",
                    "internalType": "uint256"
                }
            ],
            "outputs": [],
            "stateMutability": "payable"
        },
        {
            "type": "function",
            "name": "safeTransferFrom",
            "inputs": [
                {
                    "name": "from",
                    "type": "address",
                    "internalType": "address"
                },
                {
                    "name": "to",
                    "type": "address",
                    "internalType": "address"
                },
                {
                    "name": "id",
                    "type": "uint256",
                    "internalType": "uint256"
                },
                {
                    "name": "data",
                    "type": "bytes",
                    "internalType": "bytes"
                }
            ],
            "outputs": [],
            "stateMutability": "payable"
        },
        {
            "type": "function",
            "name": "setApprovalForAll",
            "inputs": [
                {
                    "name": "operator",
                    "type": "address",
                    "internalType": "address"
                },
                {
                    "name": "isApproved",
                    "type": "bool",
                    "internalType": "bool"
                }
            ],
            "outputs": [],
            "stateMutability": "nonpayable"
        },
        {
            "type": "function",
            "name": "setMetadata",
            "inputs": [
                {
                    "name": "_newMetadata",
                    "type": "address",
                    "internalType": "address"
                }
            ],
            "outputs": [],
            "stateMutability": "nonpayable"
        },
        {
            "type": "function",
            "name": "setMinter",
            "inputs": [
                {
                    "name": "_minter",
                    "type": "address",
                    "internalType": "address"
                }
            ],
            "outputs": [],
            "stateMutability": "nonpayable"
        },
        {
            "type": "function",
            "name": "supportsInterface",
            "inputs": [
                {
                    "name": "interfaceId",
                    "type": "bytes4",
                    "internalType": "bytes4"
                }
            ],
            "outputs": [
                {
                    "name": "result",
                    "type": "bool",
                    "internalType": "bool"
                }
            ],
            "stateMutability": "view"
        },
        {
            "type": "function",
            "name": "symbol",
            "inputs": [],
            "outputs": [
                {
                    "name": "",
                    "type": "string",
                    "internalType": "string"
                }
            ],
            "stateMutability": "view"
        },
        {
            "type": "function",
            "name": "tokenIdToNote",
            "inputs": [
                {
                    "name": "",
                    "type": "uint256",
                    "internalType": "uint256"
                }
            ],
            "outputs": [
                {
                    "name": "field1",
                    "type": "uint256",
                    "internalType": "uint256"
                },
                {
                    "name": "field2",
                    "type": "uint256",
                    "internalType": "uint256"
                },
                {
                    "name": "field3",
                    "type": "uint256",
                    "internalType": "uint256"
                },
                {
                    "name": "field4",
                    "type": "uint256",
                    "internalType": "uint256"
                }
            ],
            "stateMutability": "view"
        },
        {
            "type": "function",
            "name": "tokenIds",
            "inputs": [],
            "outputs": [
                {
                    "name": "",
                    "type": "uint256",
                    "internalType": "uint256"
                }
            ],
            "stateMutability": "view"
        },
        {
            "type": "function",
            "name": "tokenURI",
            "inputs": [
                {
                    "name": "id",
                    "type": "uint256",
                    "internalType": "uint256"
                }
            ],
            "outputs": [
                {
                    "name": "",
                    "type": "string",
                    "internalType": "string"
                }
            ],
            "stateMutability": "view"
        },
        {
            "type": "function",
            "name": "transferFrom",
            "inputs": [
                {
                    "name": "from",
                    "type": "address",
                    "internalType": "address"
                },
                {
                    "name": "to",
                    "type": "address",
                    "internalType": "address"
                },
                {
                    "name": "id",
                    "type": "uint256",
                    "internalType": "uint256"
                }
            ],
            "outputs": [],
            "stateMutability": "payable"
        },
        {
            "type": "function",
            "name": "transferOwnership",
            "inputs": [
                {
                    "name": "newOwner",
                    "type": "address",
                    "internalType": "address"
                }
            ],
            "outputs": [],
            "stateMutability": "nonpayable"
        },
        {
            "type": "function",
            "name": "updateArtistAddress",
            "inputs": [
                {
                    "name": "_newArtist",
                    "type": "address",
                    "internalType": "address"
                }
            ],
            "outputs": [],
            "stateMutability": "nonpayable"
        },
        {
            "type": "function",
            "name": "updateVerifiers",
            "inputs": [
                {
                    "name": "_ecdhVerifier",
                    "type": "address",
                    "internalType": "address"
                },
                {
                    "name": "_addDataVerifier",
                    "type": "address",
                    "internalType": "address"
                }
            ],
            "outputs": [],
            "stateMutability": "nonpayable"
        },
        {
            "type": "function",
            "name": "userPublicKeys",
            "inputs": [
                {
                    "name": "",
                    "type": "address",
                    "internalType": "address"
                },
                {
                    "name": "",
                    "type": "uint256",
                    "internalType": "uint256"
                }
            ],
            "outputs": [
                {
                    "name": "",
                    "type": "uint256",
                    "internalType": "uint256"
                }
            ],
            "stateMutability": "view"
        },
        {
            "type": "function",
            "name": "verifiedTransferFrom",
            "inputs": [
                {
                    "name": "from",
                    "type": "address",
                    "internalType": "address"
                },
                {
                    "name": "to",
                    "type": "address",
                    "internalType": "address"
                },
                {
                    "name": "id",
                    "type": "uint256",
                    "internalType": "uint256"
                },
                {
                    "name": "_pA",
                    "type": "uint256[2]",
                    "internalType": "uint256[2]"
                },
                {
                    "name": "_pB",
                    "type": "uint256[2][2]",
                    "internalType": "uint256[2][2]"
                },
                {
                    "name": "_pC",
                    "type": "uint256[2]",
                    "internalType": "uint256[2]"
                },
                {
                    "name": "_pubSignals",
                    "type": "uint256[13]",
                    "internalType": "uint256[13]"
                }
            ],
            "outputs": [],
            "stateMutability": "nonpayable"
        },
        {
            "type": "function",
            "name": "verifierVersion",
            "inputs": [],
            "outputs": [
                {
                    "name": "",
                    "type": "uint256",
                    "internalType": "uint256"
                }
            ],
            "stateMutability": "view"
        },
        {
            "type": "event",
            "name": "Approval",
            "inputs": [
                {
                    "name": "owner",
                    "type": "address",
                    "indexed": true,
                    "internalType": "address"
                },
                {
                    "name": "account",
                    "type": "address",
                    "indexed": true,
                    "internalType": "address"
                },
                {
                    "name": "id",
                    "type": "uint256",
                    "indexed": true,
                    "internalType": "uint256"
                }
            ],
            "anonymous": false
        },
        {
            "type": "event",
            "name": "ApprovalForAll",
            "inputs": [
                {
                    "name": "owner",
                    "type": "address",
                    "indexed": true,
                    "internalType": "address"
                },
                {
                    "name": "operator",
                    "type": "address",
                    "indexed": true,
                    "internalType": "address"
                },
                {
                    "name": "isApproved",
                    "type": "bool",
                    "indexed": false,
                    "internalType": "bool"
                }
            ],
            "anonymous": false
        },
        {
            "type": "event",
            "name": "ArtistAddressUpdated",
            "inputs": [
                {
                    "name": "oldArtist",
                    "type": "address",
                    "indexed": true,
                    "internalType": "address"
                },
                {
                    "name": "newArtist",
                    "type": "address",
                    "indexed": true,
                    "internalType": "address"
                }
            ],
            "anonymous": false
        },
        {
            "type": "event",
            "name": "MetadataUpdated",
            "inputs": [
                {
                    "name": "oldMetadata",
                    "type": "address",
                    "indexed": true,
                    "internalType": "address"
                },
                {
                    "name": "newMetadata",
                    "type": "address",
                    "indexed": true,
                    "internalType": "address"
                }
            ],
            "anonymous": false
        },
        {
            "type": "event",
            "name": "OwnershipTransferred",
            "inputs": [
                {
                    "name": "user",
                    "type": "address",
                    "indexed": true,
                    "internalType": "address"
                },
                {
                    "name": "newOwner",
                    "type": "address",
                    "indexed": true,
                    "internalType": "address"
                }
            ],
            "anonymous": false
        },
        {
            "type": "event",
            "name": "Transfer",
            "inputs": [
                {
                    "name": "from",
                    "type": "address",
                    "indexed": true,
                    "internalType": "address"
                },
                {
                    "name": "to",
                    "type": "address",
                    "indexed": true,
                    "internalType": "address"
                },
                {
                    "name": "id",
                    "type": "uint256",
                    "indexed": true,
                    "internalType": "uint256"
                }
            ],
            "anonymous": false
        },
        {
            "type": "event",
            "name": "VerifiedTransfer",
            "inputs": [
                {
                    "name": "from",
                    "type": "uint256[2]",
                    "indexed": true,
                    "internalType": "uint256[2]"
                },
                {
                    "name": "to",
                    "type": "uint256[2]",
                    "indexed": true,
                    "internalType": "uint256[2]"
                },
                {
                    "name": "id",
                    "type": "uint256",
                    "indexed": true,
                    "internalType": "uint256"
                }
            ],
            "anonymous": false
        },
        {
            "type": "event",
            "name": "VerifiersUpdated",
            "inputs": [
                {
                    "name": "ecdhVerifier",
                    "type": "address",
                    "indexed": true,
                    "internalType": "address"
                },
                {
                    "name": "addDataVerifier",
                    "type": "address",
                    "indexed": true,
                    "internalType": "address"
                },
                {
                    "name": "newVersion",
                    "type": "uint256",
                    "indexed": false,
                    "internalType": "uint256"
                }
            ],
            "anonymous": false
        },
        {
            "type": "error",
            "name": "AccountBalanceOverflow",
            "inputs": []
        },
        {
            "type": "error",
            "name": "BalanceQueryForZeroAddress",
            "inputs": []
        },
        {
            "type": "error",
            "name": "NotOwnerNorApproved",
            "inputs": []
        },
        {
            "type": "error",
            "name": "TokenAlreadyExists",
            "inputs": []
        },
        {
            "type": "error",
            "name": "TokenDoesNotExist",
            "inputs": []
        },
        {
            "type": "error",
            "name": "TransferFromIncorrectOwner",
            "inputs": []
        },
        {
            "type": "error",
            "name": "TransferToNonERC721ReceiverImplementer",
            "inputs": []
        },
        {
            "type": "error",
            "name": "TransferToZeroAddress",
            "inputs": []
        }
    ],
    "bytecode": {
        "object": "0x608060405234801561000f575f5ffd5b50604051614e32380380614e328339818101604052810190610031919061024e565b33805f5f6101000a81548173ffffffffffffffffffffffffffffffffffffffff021916908373ffffffffffffffffffffffffffffffffffffffff1602179055508073ffffffffffffffffffffffffffffffffffffffff165f73ffffffffffffffffffffffffffffffffffffffff167f8be0079c531659141344cd1fd0a4f28419497f9722a3daafe3b4186f6b6457e060405160405180910390a3508260015f6101000a81548173ffffffffffffffffffffffffffffffffffffffff021916908373ffffffffffffffffffffffffffffffffffffffff1602179055508160025f6101000a81548173ffffffffffffffffffffffffffffffffffffffff021916908373ffffffffffffffffffffffffffffffffffffffff1602179055508060075f6101000a81548173ffffffffffffffffffffffffffffffffffffffff021916908373ffffffffffffffffffffffffffffffffffffffff160217905550735ac7555f7ecd655c9c73ed5b9bb8d5f628fa428260065f6101000a81548173ffffffffffffffffffffffffffffffffffffffff021916908373ffffffffffffffffffffffffffffffffffffffff160217905550600160098190555050505061029e565b5f5ffd5b5f73ffffffffffffffffffffffffffffffffffffffff82169050919050565b5f61021d826101f4565b9050919050565b61022d81610213565b8114610237575f5ffd5b50565b5f8151905061024881610224565b92915050565b5f5f5f60608486031215610265576102646101f0565b5b5f6102728682870161023a565b93505060206102838682870161023a565b92505060406102948682870161023a565b9150509250925092565b614b87806102ab5f395ff3fe608060405260043610610250575f3560e01c80638d37961911610138578063b633620c116100b5578063c9e525df11610079578063c9e525df146108d8578063db00e68d14610902578063e985e9c51461092c578063f2fde38b14610968578063f3cb838514610990578063fca3b5aa146109b857610250565b8063b633620c146107dd578063b784c96614610819578063b88d4fde14610841578063c76f50661461085d578063c87b56dd1461089c57610250565b8063a22cb465116100fc578063a22cb465146106fd578063a3f966a914610725578063a6402b501461074f578063b052da3c1461078d578063b18fe840146107b557610250565b80638d379619146106275780638da5cb5b1461064357806395d89b411461066d57806395fdc99914610697578063a035b1fe146106d357610250565b8063392f37e9116101d157806343bc16121161019557806343bc1612146104f65780636352211e146105205780636d32adb81461055c5780636f4940491461059957806370a08231146105c1578063714cff56146105fd57610250565b8063392f37e91461040e5780633a4f6999146104385780633a8016b3146104625780633c20bbb51461049e57806342842e0e146104da57610250565b8063095ea7b311610218578063095ea7b3146103485780630f58c9771461036457806310eefaf11461038e5780631fa5ef38146103ca57806323b872dd146103f257610250565b806301ffc9a7146102545780630674b24b1461029057806306fdde03146102b857806307546172146102e2578063081812fc1461030c575b5f5ffd5b34801561025f575f5ffd5b5061027a600480360381019061027591906133a5565b6109e0565b60405161028791906133ea565b60405180910390f35b34801561029b575f5ffd5b506102b660048036038101906102b1919061349d565b610a04565b005b3480156102c3575f5ffd5b506102cc610e5c565b6040516102d99190613587565b60405180910390f35b3480156102ed575f5ffd5b506102f6610e99565b60405161030391906135e6565b60405180910390f35b348015610317575f5ffd5b50610332600480360381019061032d91906135ff565b610ebe565b60405161033f91906135e6565b60405180910390f35b610362600480360381019061035d9190613654565b610f11565b005b34801561036f575f5ffd5b50610378610f20565b60405161038591906136a1565b60405180910390f35b348015610399575f5ffd5b506103b460048036038101906103af9190613654565b610f28565b6040516103c191906136a1565b60405180910390f35b3480156103d5575f5ffd5b506103f060048036038101906103eb91906136ba565b610f4c565b005b61040c600480360381019061040791906136f8565b6111b8565b005b348015610419575f5ffd5b506104226111f3565b60405161042f91906135e6565b60405180910390f35b348015610443575f5ffd5b5061044c611218565b60405161045991906136a1565b60405180910390f35b34801561046d575f5ffd5b50610488600480360381019061048391906135ff565b61121d565b60405161049591906135e6565b60405180910390f35b3480156104a9575f5ffd5b506104c460048036038101906104bf9190613748565b61124d565b6040516104d1919061384f565b60405180910390f35b6104f460048036038101906104ef91906136f8565b611392565b005b348015610501575f5ffd5b5061050a6113cd565b60405161051791906135e6565b60405180910390f35b34801561052b575f5ffd5b50610546600480360381019061054191906135ff565b6113f2565b60405161055391906135e6565b60405180910390f35b348015610567575f5ffd5b50610582600480360381019061057d91906135ff565b611415565b60405161059092919061386f565b60405180910390f35b3480156105a4575f5ffd5b506105bf60048036038101906105ba9190613896565b6114b3565b005b3480156105cc575f5ffd5b506105e760048036038101906105e291906138d4565b611561565b6040516105f491906136a1565b60405180910390f35b348015610608575f5ffd5b506106116115ae565b60405161061e91906136a1565b60405180910390f35b610641600480360381019061063c91906138ff565b6115b4565b005b34801561064e575f5ffd5b5061065761190f565b60405161066491906135e6565b60405180910390f35b348015610678575f5ffd5b50610681611933565b60405161068e9190613587565b60405180910390f35b3480156106a2575f5ffd5b506106bd60048036038101906106b891906135ff565b611970565b6040516106ca91906133ea565b60405180910390f35b3480156106de575f5ffd5b506106e76119ed565b6040516106f491906136a1565b60405180910390f35b348015610708575f5ffd5b50610723600480360381019061071e91906139a3565b6119f9565b005b348015610730575f5ffd5b50610739611a4c565b60405161074691906136a1565b60405180910390f35b34801561075a575f5ffd5b50610775600480360381019061077091906135ff565b611a52565b604051610784939291906139e1565b60405180910390f35b348015610798575f5ffd5b506107b360048036038101906107ae91906138ff565b611b97565b005b3480156107c0575f5ffd5b506107db60048036038101906107d69190613a3e565b611e66565b005b3480156107e8575f5ffd5b5061080360048036038101906107fe91906135ff565b611fb7565b60405161081091906136a1565b60405180910390f35b348015610824575f5ffd5b5061083f600480360381019061083a91906138d4565b612032565b005b61085b60048036038101906108569190613b3b565b6121f1565b005b348015610868575f5ffd5b50610883600480360381019061087e91906135ff565b61222c565b6040516108939493929190613bbf565b60405180910390f35b3480156108a7575f5ffd5b506108c260048036038101906108bd91906135ff565b612258565b6040516108cf9190613587565b60405180910390f35b3480156108e3575f5ffd5b506108ec612354565b6040516108f991906136a1565b60405180910390f35b34801561090d575f5ffd5b50610916612359565b60405161092391906136a1565b60405180910390f35b348015610937575f5ffd5b50610952600480360381019061094d91906136ba565b612390565b60405161095f91906133ea565b60405180910390f35b348015610973575f5ffd5b5061098e600480360381019061098991906138d4565b6123b2565b005b34801561099b575f5ffd5b506109b660048036038101906109b191906138d4565b6124dc565b005b3480156109c3575f5ffd5b506109de60048036038101906109d991906138d4565b61269b565b005b5f8160e01c635b5e139f81146380ac58cd82146301ffc9a783141717915050919050565b610a0d816113f2565b73ffffffffffffffffffffffffffffffffffffffff163373ffffffffffffffffffffffffffffffffffffffff1614610a7a576040517f08c379a0000000000000000000000000000000000000000000000000000000008152600401610a7190613c4c565b60405180910390fd5b600182600d600e8110610a9057610a8f613c6a565b5b602002013514610ad5576040517f08c379a0000000000000000000000000000000000000000000000000000000008152600401610acc90613ce1565b60405180910390fd5b5f1515610ae182611970565b151514610b23576040517f08c379a0000000000000000000000000000000000000000000000000000000008152600401610b1a90613d6f565b60405180910390fd5b816007600e8110610b3757610b36613c6a565b5b602002013560045f8381526020019081526020015f205f015414610b90576040517f08c379a0000000000000000000000000000000000000000000000000000000008152600401610b8790613dd7565b60405180910390fd5b816008600e8110610ba457610ba3613c6a565b5b602002013560045f8381526020019081526020015f206001015414610bfe576040517f08c379a0000000000000000000000000000000000000000000000000000000008152600401610bf590613dd7565b60405180910390fd5b816009600e8110610c1257610c11613c6a565b5b602002013560045f8381526020019081526020015f206002015414610c6c576040517f08c379a0000000000000000000000000000000000000000000000000000000008152600401610c6390613dd7565b60405180910390fd5b81600a600e8110610c8057610c7f613c6a565b5b602002013560045f8381526020019081526020015f206003015414610cda576040517f08c379a0000000000000000000000000000000000000000000000000000000008152600401610cd190613dd7565b60405180910390fd5b5f60025f9054906101000a900473ffffffffffffffffffffffffffffffffffffffff1673ffffffffffffffffffffffffffffffffffffffff16638d15f88f878787876040518563ffffffff1660e01b8152600401610d3b9493929190613ed7565b602060405180830381865afa158015610d56573d5f5f3e3d5ffd5b505050506040513d601f19601f82011682018060405250810190610d7a9190613f30565b90506001151581151514610dc3576040517f08c379a0000000000000000000000000000000000000000000000000000000008152600401610dba90613fa5565b60405180910390fd5b610e30836003600e8110610dda57610dd9613c6a565b5b6020020135846004600e8110610df357610df2613c6a565b5b6020020135856005600e8110610e0c57610e0b613c6a565b5b6020020135866006600e8110610e2557610e24613c6a565b5b6020020135866127da565b610e5482846002600e8110610e4857610e47613c6a565b5b6020020135600161283c565b505050505050565b60606040518060400160405280600681526020017f4349504845520000000000000000000000000000000000000000000000000000815250905090565b600a5f9054906101000a900473ffffffffffffffffffffffffffffffffffffffff1681565b5f815f527f7d8825530a5a2e7a000000000000000000000000000000000000000000000000601c5260205f2082018201805460601b610f045763ceea21b65f526004601cfd5b8060010154915050919050565b610f1c3383836128b6565b5050565b5f6003905090565b6003602052815f5260405f208160028110610f41575f80fd5b015f91509150505481565b5f5f9054906101000a900473ffffffffffffffffffffffffffffffffffffffff1673ffffffffffffffffffffffffffffffffffffffff163373ffffffffffffffffffffffffffffffffffffffff1614610fda576040517f08c379a0000000000000000000000000000000000000000000000000000000008152600401610fd19061400d565b60405180910390fd5b5f73ffffffffffffffffffffffffffffffffffffffff168273ffffffffffffffffffffffffffffffffffffffff1603611048576040517f08c379a000000000000000000000000000000000000000000000000000000000815260040161103f90614075565b60405180910390fd5b5f73ffffffffffffffffffffffffffffffffffffffff168173ffffffffffffffffffffffffffffffffffffffff16036110b6576040517f08c379a00000000000000000000000000000000000000000000000000000000081526004016110ad90614103565b60405180910390fd5b8160015f6101000a81548173ffffffffffffffffffffffffffffffffffffffff021916908373ffffffffffffffffffffffffffffffffffffffff1602179055508060025f6101000a81548173ffffffffffffffffffffffffffffffffffffffff021916908373ffffffffffffffffffffffffffffffffffffffff16021790555060095f8154809291906111489061414e565b91905055508073ffffffffffffffffffffffffffffffffffffffff168273ffffffffffffffffffffffffffffffffffffffff167f9ec1aaca73a459360b1f0dbd3c331630971894c3c3ac642bae1d92aa1e9454076009546040516111ac91906136a1565b60405180910390a35050565b6040517f08c379a00000000000000000000000000000000000000000000000000000000081526004016111ea906141df565b60405180910390fd5b60075f9054906101000a900473ffffffffffffffffffffffffffffffffffffffff1681565b609681565b6005602052805f5260405f205f915054906101000a900473ffffffffffffffffffffffffffffffffffffffff1681565b6060828410611291576040517f08c379a000000000000000000000000000000000000000000000000000000000815260040161128890614247565b60405180910390fd5b5f848461129e9190614265565b67ffffffffffffffff8111156112b7576112b6614298565b5b6040519080825280602002602001820160405280156112e55781602001602082028036833780820191505090505b5090505f5f90505b84861015611383576112fe86612966565b1561136f578373ffffffffffffffffffffffffffffffffffffffff16611323876113f2565b73ffffffffffffffffffffffffffffffffffffffff160361136e578582828151811061135257611351613c6a565b5b60200260200101818152505060018161136b91906142c5565b90505b5b60018661137c91906142c5565b95506112ed565b80825281925050509392505050565b6040517f08c379a00000000000000000000000000000000000000000000000000000000081526004016113c4906141df565b60405180910390fd5b60065f9054906101000a900473ffffffffffffffffffffffffffffffffffffffff1681565b5f6113fc826129a3565b9050806114105763ceea21b65f526004601cfd5b919050565b5f5f61142083612966565b61145f576040517f08c379a000000000000000000000000000000000000000000000000000000000815260040161145690614342565b60405180910390fd5b5f611469846129e1565b90506b8000000000000000000000001981166bffffffffffffffffffffffff1692505f6b80000000000000000000000082166bffffffffffffffffffffffff161415915050915091565b6114bd8282612a1c565b6114fc576040517f08c379a00000000000000000000000000000000000000000000000000000000081526004016114f3906143aa565b60405180910390fd5b60405180604001604052808381526020018281525060035f3373ffffffffffffffffffffffffffffffffffffffff1673ffffffffffffffffffffffffffffffffffffffff1681526020019081526020015f2090600261155c9291906132e4565b505050565b5f8161157457638f4eb6045f526004601cfd5b7f7d8825530a5a2e7a000000000000000000000000000000000000000000000000601c52815f5263ffffffff601c600c2054169050919050565b60085481565b67016345785d8a000034146115fe576040517f08c379a00000000000000000000000000000000000000000000000000000000081526004016115f590614412565b60405180910390fd5b5f82600d600e811061161357611612613c6a565b5b602002013514611658576040517f08c379a000000000000000000000000000000000000000000000000000000000815260040161164f9061447a565b60405180910390fd5b600160085461166791906142c5565b600881905550609660085411156116b3576040517f08c379a00000000000000000000000000000000000000000000000000000000081526004016116aa906144e2565b60405180910390fd5b5f60065f9054906101000a900473ffffffffffffffffffffffffffffffffffffffff1673ffffffffffffffffffffffffffffffffffffffff16346040516116f99061452d565b5f6040518083038185875af1925050503d805f8114611733576040519150601f19603f3d011682016040523d82523d5f602084013e611738565b606091505b505090508061177c576040517f08c379a00000000000000000000000000000000000000000000000000000000081526004016117739061458b565b60405180910390fd5b5f60025f9054906101000a900473ffffffffffffffffffffffffffffffffffffffff1673ffffffffffffffffffffffffffffffffffffffff16638d15f88f888888886040518563ffffffff1660e01b81526004016117dd9493929190613ed7565b602060405180830381865afa1580156117f8573d5f5f3e3d5ffd5b505050506040513d601f19601f8201168201806040525081019061181c9190613f30565b90506001151581151514611865576040517f08c379a000000000000000000000000000000000000000000000000000000000815260040161185c90613fa5565b60405180910390fd5b6118d4846003600e811061187c5761187b613c6a565b5b6020020135856004600e811061189557611894613c6a565b5b6020020135866005600e81106118ae576118ad613c6a565b5b6020020135876006600e81106118c7576118c6613c6a565b5b60200201356008546127da565b6118e083600854612c13565b611906600854856002600e81106118fa576118f9613c6a565b5b6020020135600161283c565b50505050505050565b5f5f9054906101000a900473ffffffffffffffffffffffffffffffffffffffff1681565b60606040518060400160405280600381526020017f4349500000000000000000000000000000000000000000000000000000000000815250905090565b5f61197a82612966565b6119b9576040517f08c379a00000000000000000000000000000000000000000000000000000000081526004016119b090614342565b60405180910390fd5b5f6119c3836129e1565b90505f6b80000000000000000000000082166bffffffffffffffffffffffff161415915050919050565b67016345785d8a000081565b801515905081601c52670a5a2e7a00000000600852335f52806030600c2055805f528160601b60601c337f17307eab39ab6107e8899845ad3d59bd9653f200f220920489ca2b5937696c3160205fa35050565b60095481565b60605f5f5f5f611a6186611415565b915091505f600467ffffffffffffffff811115611a8157611a80614298565b5b604051908082528060200260200182016040528015611aaf5781602001602082028036833780820191505090505b50905060045f8881526020019081526020015f205f0154815f81518110611ad957611ad8613c6a565b5b60200260200101818152505060045f8881526020019081526020015f206001015481600181518110611b0e57611b0d613c6a565b5b60200260200101818152505060045f8881526020019081526020015f206002015481600281518110611b4357611b42613c6a565b5b60200260200101818152505060045f8881526020019081526020015f206003015481600381518110611b7857611b77613c6a565b5b6020026020010181815250508083839550955095505050509193909250565b600a5f9054906101000a900473ffffffffffffffffffffffffffffffffffffffff1673ffffffffffffffffffffffffffffffffffffffff163373ffffffffffffffffffffffffffffffffffffffff1614611c26576040517f08c379a0000000000000000000000000000000000000000000000000000000008152600401611c1d906145f3565b60405180910390fd5b5f82600d600e8110611c3b57611c3a613c6a565b5b602002013514611c80576040517f08c379a0000000000000000000000000000000000000000000000000000000008152600401611c779061447a565b60405180910390fd5b6001600854611c8f91906142c5565b60088190555060966008541115611cdb576040517f08c379a0000000000000000000000000000000000000000000000000000000008152600401611cd2906144e2565b60405180910390fd5b5f60025f9054906101000a900473ffffffffffffffffffffffffffffffffffffffff1673ffffffffffffffffffffffffffffffffffffffff16638d15f88f878787876040518563ffffffff1660e01b8152600401611d3c9493929190613ed7565b602060405180830381865afa158015611d57573d5f5f3e3d5ffd5b505050506040513d601f19601f82011682018060405250810190611d7b9190613f30565b905080611dbd576040517f08c379a0000000000000000000000000000000000000000000000000000000008152600401611db490613fa5565b60405180910390fd5b611e2c836003600e8110611dd457611dd3613c6a565b5b6020020135846004600e8110611ded57611dec613c6a565b5b6020020135856005600e8110611e0657611e05613c6a565b5b6020020135866006600e8110611e1f57611e1e613c6a565b5b60200201356008546127da565b611e3882600854612c13565b611e5e600854846002600e8110611e5257611e51613c6a565b5b6020020135600161283c565b505050505050565b611e7484848484898b612cdf565b611e7f87878761316c565b8660055f8781526020019081526020015f205f6101000a81548173ffffffffffffffffffffffffffffffffffffffff021916908373ffffffffffffffffffffffffffffffffffffffff160217905550846040518060400160405280835f600d8110611eed57611eec613c6a565b5b60200201358152602001836001600d8110611f0b57611f0a613c6a565b5b6020020135815250604051611f2091906146b6565b6040518091039020604051806040016040528084600b600d8110611f4757611f46613c6a565b5b6020020135815260200184600c600d8110611f6557611f64613c6a565b5b6020020135815250604051611f7a91906146b6565b60405180910390207f939e1e60c704d150b520661f589430c03e562a7f805e5f6d6ebb577254ec7efa60405160405180910390a450505050505050565b5f611fc182612966565b612000576040517f08c379a0000000000000000000000000000000000000000000000000000000008152600401611ff790614342565b60405180910390fd5b5f61200a836129e1565b90506b8000000000000000000000001981166bffffffffffffffffffffffff16915050919050565b5f5f9054906101000a900473ffffffffffffffffffffffffffffffffffffffff1673ffffffffffffffffffffffffffffffffffffffff163373ffffffffffffffffffffffffffffffffffffffff16146120c0576040517f08c379a00000000000000000000000000000000000000000000000000000000081526004016120b79061400d565b60405180910390fd5b5f73ffffffffffffffffffffffffffffffffffffffff168173ffffffffffffffffffffffffffffffffffffffff160361212e576040517f08c379a00000000000000000000000000000000000000000000000000000000081526004016121259061471a565b60405180910390fd5b5f60065f9054906101000a900473ffffffffffffffffffffffffffffffffffffffff1690508160065f6101000a81548173ffffffffffffffffffffffffffffffffffffffff021916908373ffffffffffffffffffffffffffffffffffffffff1602179055508173ffffffffffffffffffffffffffffffffffffffff168173ffffffffffffffffffffffffffffffffffffffff167f88bb0d30cd096c9e787230eb4b23281536acf0d6806dde8a6cc454808abbe8a460405160405180910390a35050565b6040517f08c379a0000000000000000000000000000000000000000000000000000000008152600401612223906141df565b60405180910390fd5b6004602052805f5260405f205f91509050805f0154908060010154908060020154908060030154905084565b606060075f9054906101000a900473ffffffffffffffffffffffffffffffffffffffff1673ffffffffffffffffffffffffffffffffffffffff1663b6906d2e8360045f8681526020019081526020015f205f015460045f8781526020019081526020015f206001015460045f8881526020019081526020015f206002015460045f8981526020019081526020015f20600301546040518663ffffffff1660e01b815260040161230b959493929190614738565b5f60405180830381865afa158015612325573d5f5f3e3d5ffd5b505050506040513d5f823e3d601f19601f8201168201806040525081019061234d9190614876565b9050919050565b600381565b5f60016003806002600361236d91906142c5565b61237791906148ea565b612381919061491a565b61238b91906142c5565b905090565b5f81601c52670a5a2e7a00000000600852825f526030600c2054905092915050565b5f5f9054906101000a900473ffffffffffffffffffffffffffffffffffffffff1673ffffffffffffffffffffffffffffffffffffffff163373ffffffffffffffffffffffffffffffffffffffff1614612440576040517f08c379a00000000000000000000000000000000000000000000000000000000081526004016124379061400d565b60405180910390fd5b805f5f6101000a81548173ffffffffffffffffffffffffffffffffffffffff021916908373ffffffffffffffffffffffffffffffffffffffff1602179055508073ffffffffffffffffffffffffffffffffffffffff163373ffffffffffffffffffffffffffffffffffffffff167f8be0079c531659141344cd1fd0a4f28419497f9722a3daafe3b4186f6b6457e060405160405180910390a350565b5f5f9054906101000a900473ffffffffffffffffffffffffffffffffffffffff1673ffffffffffffffffffffffffffffffffffffffff163373ffffffffffffffffffffffffffffffffffffffff161461256a576040517f08c379a00000000000000000000000000000000000000000000000000000000081526004016125619061400d565b60405180910390fd5b5f73ffffffffffffffffffffffffffffffffffffffff168173ffffffffffffffffffffffffffffffffffffffff16036125d8576040517f08c379a00000000000000000000000000000000000000000000000000000000081526004016125cf906149a5565b60405180910390fd5b5f60075f9054906101000a900473ffffffffffffffffffffffffffffffffffffffff1690508160075f6101000a81548173ffffffffffffffffffffffffffffffffffffffff021916908373ffffffffffffffffffffffffffffffffffffffff1602179055508173ffffffffffffffffffffffffffffffffffffffff168173ffffffffffffffffffffffffffffffffffffffff167f4322befadca758edc2a0285b8184185f7bb363811ef3d9f3c646293a1fb448df60405160405180910390a35050565b5f5f9054906101000a900473ffffffffffffffffffffffffffffffffffffffff1673ffffffffffffffffffffffffffffffffffffffff163373ffffffffffffffffffffffffffffffffffffffff1614612729576040517f08c379a00000000000000000000000000000000000000000000000000000000081526004016127209061400d565b60405180910390fd5b5f73ffffffffffffffffffffffffffffffffffffffff168173ffffffffffffffffffffffffffffffffffffffff1603612797576040517f08c379a000000000000000000000000000000000000000000000000000000000815260040161278e90614a0d565b60405180910390fd5b80600a5f6101000a81548173ffffffffffffffffffffffffffffffffffffffff021916908373ffffffffffffffffffffffffffffffffffffffff16021790555050565b60405180608001604052808681526020018581526020018481526020018381525060045f8381526020019081526020015f205f820151815f01556020820151816001015560408201518160020155606082015181600301559050505050505050565b6b800000000000000000000000821061288a576040517f08c379a000000000000000000000000000000000000000000000000000000000815260040161288190614a75565b60405180910390fd5b5f82905081156128a6576b800000000000000000000000811790505b6128b08482613296565b50505050565b5f1960601c82811692508381169350815f52837f7d8825530a5a2e7a00000000000000000000000000000000000000000000000017601c5260205f2082018201805482168061290c5763ceea21b65f526004601cfd5b80861486151761293157805f526030600c205461293057634b6e7f185f526004601cfd5b5b8482600101558385827f8c5be1e5ebec7d5bd14f71427d1e84f3dd0314c0f7b2291e5b200ac8c7c3b9255f38a4505050505050565b5f815f527f7d8825530a5a2e7a000000000000000000000000000000000000000000000000601c5260205f20820182015460601b15159050919050565b5f815f527f7d8825530a5a2e7a000000000000000000000000000000000000000000000000601c5260205f20820182015460601b60601c9050919050565b5f815f527f7d8825530a5a2e7a000000000000000000000000000000000000000000000000601c5260205f20820182015460a01c9050919050565b5f7f30644e72e131a029b85045b68181585d2833e84879b9709143e1f593f000000183101580612a6c57507f30644e72e131a029b85045b68181585d2833e84879b9709143e1f593f00000018210155b15612a79575f9050612c0d565b5f83148015612a885750600182145b15612a95575f9050612c0d565b5f7f30644e72e131a029b85045b68181585d2833e84879b9709143e1f593f000000180612ac557612ac46148bd565b5b84850990505f7f30644e72e131a029b85045b68181585d2833e84879b9709143e1f593f000000180612afa57612af96148bd565b5b84850990505f7f30644e72e131a029b85045b68181585d2833e84879b9709143e1f593f000000180612b2f57612b2e6148bd565b5b827f30644e72e131a029b85045b68181585d2833e84879b9709143e1f593f000000180612b5f57612b5e6148bd565b5b85620292fc090890505f7f30644e72e131a029b85045b68181585d2833e84879b9709143e1f593f000000180612b9857612b976148bd565b5b7f30644e72e131a029b85045b68181585d2833e84879b9709143e1f593f000000180612bc757612bc66148bd565b5b7f30644e72e131a029b85045b68181585d2833e84879b9709143e1f593f000000180612bf657612bf56148bd565b5b858709620292f80960010890508082149450505050505b92915050565b612c1e5f83836132da565b8160601b60601c9150805f527f7d8825530a5a2e7a000000000000000000000000000000000000000000000000601c5260205f208101810180548060601b15612c6e5763c991cbb15f526004601cfd5b8381178255835f52601c600c20600181540163ffffffff81168602612ca25767ea553b3401336cea861560021b526004601cfd5b808255505082845f7fddf252ad1be2c89b69c2b068fc378daa952ba7f163c4a11628f55a4df523b3ef5f38a45050612cdb5f83836132df565b5050565b826007600d8110612cf357612cf2613c6a565b5b602002013560045f8481526020019081526020015f205f015414612d4c576040517f08c379a0000000000000000000000000000000000000000000000000000000008152600401612d4390613dd7565b60405180910390fd5b826008600d8110612d6057612d5f613c6a565b5b602002013560045f8481526020019081526020015f206001015414612dba576040517f08c379a0000000000000000000000000000000000000000000000000000000008152600401612db190613dd7565b60405180910390fd5b826009600d8110612dce57612dcd613c6a565b5b602002013560045f8481526020019081526020015f206002015414612e28576040517f08c379a0000000000000000000000000000000000000000000000000000000008152600401612e1f90613dd7565b60405180910390fd5b82600a600d8110612e3c57612e3b613c6a565b5b602002013560045f8481526020019081526020015f206003015414612e96576040517f08c379a0000000000000000000000000000000000000000000000000000000008152600401612e8d90613dd7565b60405180910390fd5b825f600d8110612ea957612ea8613c6a565b5b602002013560035f8373ffffffffffffffffffffffffffffffffffffffff1673ffffffffffffffffffffffffffffffffffffffff1681526020019081526020015f205f60028110612efd57612efc613c6a565b5b015414612f3f576040517f08c379a0000000000000000000000000000000000000000000000000000000008152600401612f3690614add565b60405180910390fd5b826001600d8110612f5357612f52613c6a565b5b602002013560035f8373ffffffffffffffffffffffffffffffffffffffff1673ffffffffffffffffffffffffffffffffffffffff1681526020019081526020015f20600160028110612fa857612fa7613c6a565b5b015414612fea576040517f08c379a0000000000000000000000000000000000000000000000000000000008152600401612fe190614add565b60405180910390fd5b5f60015f9054906101000a900473ffffffffffffffffffffffffffffffffffffffff1673ffffffffffffffffffffffffffffffffffffffff1663f143a75e888888886040518563ffffffff1660e01b815260040161304b9493929190614b0c565b602060405180830381865afa158015613066573d5f5f3e3d5ffd5b505050506040513d601f19601f8201168201806040525081019061308a9190613f30565b905060011515811515146130d3576040517f08c379a00000000000000000000000000000000000000000000000000000000081526004016130ca90613fa5565b60405180910390fd5b613140846003600d81106130ea576130e9613c6a565b5b6020020135856004600d811061310357613102613c6a565b5b6020020135866005600d811061311c5761311b613c6a565b5b6020020135876006600d811061313557613134613c6a565b5b6020020135876127da565b61316383856002600d811061315857613157613c6a565b5b60200201355f61283c565b50505050505050565b6131778383836132da565b5f1960601c83811693508281169250815f52337f7d8825530a5a2e7a00000000000000000000000000000000000000000000000017601c5260205f2082018201805480831686811481026131da5767ceea21b6a1148100811560021b526004601cfd5b865f52826001015480331488331417613205576030600c205461320457634b6e7f185f526004601cfd5b5b8015613212575f84600101555b5085871882188355601c600c206001815403815550855f52601c600c20600181540163ffffffff811688026132565767ea553b3401336cea881560021b526004601cfd5b80825550508486887fddf252ad1be2c89b69c2b068fc378daa952ba7f163c4a11628f55a4df523b3ef5f38a4505050506132918383836132df565b505050565b815f527f7d8825530a5a2e7a000000000000000000000000000000000000000000000000601c5260205f208201820180548060a01c831860a01b8118825550505050565b505050565b505050565b8260028101928215613313579160200282015b828111156133125782518255916020019190600101906132f7565b5b5090506133209190613324565b5090565b5b8082111561333b575f815f905550600101613325565b5090565b5f604051905090565b5f5ffd5b5f5ffd5b5f7fffffffff0000000000000000000000000000000000000000000000000000000082169050919050565b61338481613350565b811461338e575f5ffd5b50565b5f8135905061339f8161337b565b92915050565b5f602082840312156133ba576133b9613348565b5b5f6133c784828501613391565b91505092915050565b5f8115159050919050565b6133e4816133d0565b82525050565b5f6020820190506133fd5f8301846133db565b92915050565b5f5ffd5b5f8190508260206002028201111561342257613421613403565b5b92915050565b5f8190508260406002028201111561344357613442613403565b5b92915050565b5f819050826020600e028201111561346457613463613403565b5b92915050565b5f819050919050565b61347c8161346a565b8114613486575f5ffd5b50565b5f8135905061349781613473565b92915050565b5f5f5f5f5f6102e086880312156134b7576134b6613348565b5b5f6134c488828901613407565b95505060406134d588828901613428565b94505060c06134e688828901613407565b9350506101006134f888828901613449565b9250506102c061350a88828901613489565b9150509295509295909350565b5f81519050919050565b5f82825260208201905092915050565b8281835e5f83830152505050565b5f601f19601f8301169050919050565b5f61355982613517565b6135638185613521565b9350613573818560208601613531565b61357c8161353f565b840191505092915050565b5f6020820190508181035f83015261359f818461354f565b905092915050565b5f73ffffffffffffffffffffffffffffffffffffffff82169050919050565b5f6135d0826135a7565b9050919050565b6135e0816135c6565b82525050565b5f6020820190506135f95f8301846135d7565b92915050565b5f6020828403121561361457613613613348565b5b5f61362184828501613489565b91505092915050565b613633816135c6565b811461363d575f5ffd5b50565b5f8135905061364e8161362a565b92915050565b5f5f6040838503121561366a57613669613348565b5b5f61367785828601613640565b925050602061368885828601613489565b9150509250929050565b61369b8161346a565b82525050565b5f6020820190506136b45f830184613692565b92915050565b5f5f604083850312156136d0576136cf613348565b5b5f6136dd85828601613640565b92505060206136ee85828601613640565b9150509250929050565b5f5f5f6060848603121561370f5761370e613348565b5b5f61371c86828701613640565b935050602061372d86828701613640565b925050604061373e86828701613489565b9150509250925092565b5f5f5f6060848603121561375f5761375e613348565b5b5f61376c86828701613489565b935050602061377d86828701613489565b925050604061378e86828701613640565b9150509250925092565b5f81519050919050565b5f82825260208201905092915050565b5f819050602082019050919050565b6137ca8161346a565b82525050565b5f6137db83836137c1565b60208301905092915050565b5f602082019050919050565b5f6137fd82613798565b61380781856137a2565b9350613812836137b2565b805f5b8381101561384257815161382988826137d0565b9750613834836137e7565b925050600181019050613815565b5085935050505092915050565b5f6020820190508181035f83015261386781846137f3565b905092915050565b5f6040820190506138825f830185613692565b61388f60208301846133db565b9392505050565b5f5f604083850312156138ac576138ab613348565b5b5f6138b985828601613489565b92505060206138ca85828601613489565b9150509250929050565b5f602082840312156138e9576138e8613348565b5b5f6138f684828501613640565b91505092915050565b5f5f5f5f5f6102e0868803121561391957613918613348565b5b5f61392688828901613407565b955050604061393788828901613428565b94505060c061394888828901613407565b93505061010061395a88828901613449565b9250506102c061396c88828901613640565b9150509295509295909350565b613982816133d0565b811461398c575f5ffd5b50565b5f8135905061399d81613979565b92915050565b5f5f604083850312156139b9576139b8613348565b5b5f6139c685828601613640565b92505060206139d78582860161398f565b9150509250929050565b5f6060820190508181035f8301526139f981866137f3565b9050613a086020830185613692565b613a1560408301846133db565b949350505050565b5f819050826020600d0282011115613a3857613a37613403565b5b92915050565b5f5f5f5f5f5f5f610300888a031215613a5a57613a59613348565b5b5f613a678a828b01613640565b9750506020613a788a828b01613640565b9650506040613a898a828b01613489565b9550506060613a9a8a828b01613407565b94505060a0613aab8a828b01613428565b935050610120613abd8a828b01613407565b925050610160613acf8a828b01613a1d565b91505092959891949750929550565b5f5ffd5b5f5ffd5b5f5f83601f840112613afb57613afa613ade565b5b8235905067ffffffffffffffff811115613b1857613b17613ae2565b5b602083019150836001820283011115613b3457613b33613403565b5b9250929050565b5f5f5f5f5f60808688031215613b5457613b53613348565b5b5f613b6188828901613640565b9550506020613b7288828901613640565b9450506040613b8388828901613489565b935050606086013567ffffffffffffffff811115613ba457613ba361334c565b5b613bb088828901613ae6565b92509250509295509295909350565b5f608082019050613bd25f830187613692565b613bdf6020830186613692565b613bec6040830185613692565b613bf96060830184613692565b95945050505050565b7f4d53472053454e444552204e4545445320544f204245204f574e4552000000005f82015250565b5f613c36601c83613521565b9150613c4182613c02565b602082019050919050565b5f6020820190508181035f830152613c6381613c2a565b9050919050565b7f4e487b71000000000000000000000000000000000000000000000000000000005f52603260045260245ffd5b7f4e4545445320544f204245205245434950484552204d4f4445000000000000005f82015250565b5f613ccb601983613521565b9150613cd682613c97565b602082019050919050565b5f6020820190508181035f830152613cf881613cbf565b9050919050565b7f43414e204f4e4c59205245434950484552204f4e4345532041465445522054525f8201527f414e534645520000000000000000000000000000000000000000000000000000602082015250565b5f613d59602683613521565b9150613d6482613cff565b604082019050919050565b5f6020820190508181035f830152613d8681613d4d565b9050919050565b7f4f4c4420454e43525950544544204441544120444f53454e54204d41544348005f82015250565b5f613dc1601f83613521565b9150613dcc82613d8d565b602082019050919050565b5f6020820190508181035f830152613dee81613db5565b9050919050565b82818337505050565b613e0a60408383613df5565b5050565b5f60029050919050565b5f81905092915050565b5f819050919050565b613e3760408383613df5565b5050565b5f613e468383613e2b565b60408301905092915050565b5f82905092915050565b5f604082019050919050565b613e7181613e0e565b613e7b8184613e18565b9250613e8682613e22565b805f5b83811015613ebe57613e9b8284613e52565b613ea58782613e3b565b9650613eb083613e5c565b925050600181019050613e89565b505050505050565b613ed36101c08383613df5565b5050565b5f6102c082019050613eeb5f830187613dfe565b613ef86040830186613e68565b613f0560c0830185613dfe565b613f13610100830184613ec6565b95945050505050565b5f81519050613f2a81613979565b92915050565b5f60208284031215613f4557613f44613348565b5b5f613f5284828501613f1c565b91505092915050565b7f496e76616c69642050726f6f66000000000000000000000000000000000000005f82015250565b5f613f8f600d83613521565b9150613f9a82613f5b565b602082019050919050565b5f6020820190508181035f830152613fbc81613f83565b9050919050565b7f554e415554484f52495a454400000000000000000000000000000000000000005f82015250565b5f613ff7600c83613521565b915061400282613fc3565b602082019050919050565b5f6020820190508181035f83015261402481613feb565b9050919050565b7f496e76616c6964204543444820766572696669657220616464726573730000005f82015250565b5f61405f601d83613521565b915061406a8261402b565b602082019050919050565b5f6020820190508181035f83015261408c81614053565b9050919050565b7f496e76616c6964206164642064617461207665726966696572206164647265735f8201527f7300000000000000000000000000000000000000000000000000000000000000602082015250565b5f6140ed602183613521565b91506140f882614093565b604082019050919050565b5f6020820190508181035f83015261411a816140e1565b9050919050565b7f4e487b71000000000000000000000000000000000000000000000000000000005f52601160045260245ffd5b5f6141588261346a565b91507fffffffffffffffffffffffffffffffffffffffffffffffffffffffffffffffff820361418a57614189614121565b5b600182019050919050565b7f5573652076657269666965645472616e7366657246726f6d20696e73746561645f82015250565b5f6141c9602083613521565b91506141d482614195565b602082019050919050565b5f6020820190508181035f8301526141f6816141bd565b9050919050565b7f454e44203e2053544152540000000000000000000000000000000000000000005f82015250565b5f614231600b83613521565b915061423c826141fd565b602082019050919050565b5f6020820190508181035f83015261425e81614225565b9050919050565b5f61426f8261346a565b915061427a8361346a565b925082820390508181111561429257614291614121565b5b92915050565b7f4e487b71000000000000000000000000000000000000000000000000000000005f52604160045260245ffd5b5f6142cf8261346a565b91506142da8361346a565b92508282019050808211156142f2576142f1614121565b5b92915050565b7f546f6b656e20646f6573206e6f742065786973740000000000000000000000005f82015250565b5f61432c601483613521565b9150614337826142f8565b602082019050919050565b5f6020820190508181035f83015261435981614320565b9050919050565b7f496e76616c69642042616279204a75626a756220706f696e74000000000000005f82015250565b5f614394601983613521565b915061439f82614360565b602082019050919050565b5f6020820190508181035f8301526143c181614388565b9050919050565b7f56616c756520646f73656e74206d6174636820707269636500000000000000005f82015250565b5f6143fc601883613521565b9150614407826143c8565b602082019050919050565b5f6020820190508181035f830152614429816143f0565b9050919050565b7f496e76616c6964206d6f64653a206d757374206265206d696e74206d6f6465005f82015250565b5f614464601f83613521565b915061446f82614430565b602082019050919050565b5f6020820190508181035f83015261449181614458565b9050919050565b7f4d696e74206f76657200000000000000000000000000000000000000000000005f82015250565b5f6144cc600983613521565b91506144d782614498565b602082019050919050565b5f6020820190508181035f8301526144f9816144c0565b9050919050565b5f81905092915050565b50565b5f6145185f83614500565b91506145238261450a565b5f82019050919050565b5f6145378261450d565b9150819050919050565b7f4661696c656420746f2073656e642045746865720000000000000000000000005f82015250565b5f614575601483613521565b915061458082614541565b602082019050919050565b5f6020820190508181035f8301526145a281614569565b9050919050565b7f4f6e6c79206d696e7465720000000000000000000000000000000000000000005f82015250565b5f6145dd600b83613521565b91506145e8826145a9565b602082019050919050565b5f6020820190508181035f83015261460a816145d1565b9050919050565b5f60029050919050565b5f81905092915050565b5f819050919050565b6146378161346a565b82525050565b5f614648838361462e565b60208301905092915050565b5f602082019050919050565b61466981614611565b614673818461461b565b925061467e82614625565b805f5b838110156146ae578151614695878261463d565b96506146a083614654565b925050600181019050614681565b505050505050565b5f6146c18284614660565b60408201915081905092915050565b7f496e76616c6964206172746973742061646472657373000000000000000000005f82015250565b5f614704601683613521565b915061470f826146d0565b602082019050919050565b5f6020820190508181035f830152614731816146f8565b9050919050565b5f60a08201905061474b5f830188613692565b6147586020830187613692565b6147656040830186613692565b6147726060830185613692565b61477f6080830184613692565b9695505050505050565b5f5ffd5b6147968261353f565b810181811067ffffffffffffffff821117156147b5576147b4614298565b5b80604052505050565b5f6147c761333f565b90506147d3828261478d565b919050565b5f67ffffffffffffffff8211156147f2576147f1614298565b5b6147fb8261353f565b9050602081019050919050565b5f61481a614815846147d8565b6147be565b90508281526020810184848401111561483657614835614789565b5b614841848285613531565b509392505050565b5f82601f83011261485d5761485c613ade565b5b815161486d848260208601614808565b91505092915050565b5f6020828403121561488b5761488a613348565b5b5f82015167ffffffffffffffff8111156148a8576148a761334c565b5b6148b484828501614849565b91505092915050565b7f4e487b71000000000000000000000000000000000000000000000000000000005f52601260045260245ffd5b5f6148f48261346a565b91506148ff8361346a565b92508261490f5761490e6148bd565b5b828204905092915050565b5f6149248261346a565b915061492f8361346a565b925082820261493d8161346a565b9150828204841483151761495457614953614121565b5b5092915050565b7f496e76616c6964206d65746164617461206164647265737300000000000000005f82015250565b5f61498f601883613521565b915061499a8261495b565b602082019050919050565b5f6020820190508181035f8301526149bc81614983565b9050919050565b7f496e76616c6964206d696e7465722061646472657373000000000000000000005f82015250565b5f6149f7601683613521565b9150614a02826149c3565b602082019050919050565b5f6020820190508181035f830152614a24816149eb565b9050919050565b7f54696d657374616d7020746f6f206c61726765000000000000000000000000005f82015250565b5f614a5f601383613521565b9150614a6a82614a2b565b602082019050919050565b5f6020820190508181035f830152614a8c81614a53565b9050919050565b7f52454349564552204b45595320444f4e54204d415443480000000000000000005f82015250565b5f614ac7601783613521565b9150614ad282614a93565b602082019050919050565b5f6020820190508181035f830152614af481614abb565b9050919050565b614b086101a08383613df5565b5050565b5f6102a082019050614b205f830187613dfe565b614b2d6040830186613e68565b614b3a60c0830185613dfe565b614b48610100830184614afb565b9594505050505056fea2646970667358221220b68d025b3886f16b0699d7e312cfdf7dee10ac4835379ac49059e90d78b9c38864736f6c634300081b0033",
        "linkReferences": {}
    },
    "methodIdentifiers": {
        "N()": "c9e525df",
        "approve(address,uint256)": "095ea7b3",
        "artist()": "43bc1612",
        "balanceOf(address)": "70a08231",
        "ciphertextLength()": "db00e68d",
        "getApproved(uint256)": "081812fc",
        "getEncryptedNote(uint256)": "a6402b50",
        "getFlag(uint256)": "95fdc999",
        "getTimestamp(uint256)": "b633620c",
        "getTimestampAndFlag(uint256)": "6d32adb8",
        "isApprovedForAll(address,address)": "e985e9c5",
        "mapLastOwner(uint256)": "3a8016b3",
        "maxNumber()": "3a4f6999",
        "metadata()": "392f37e9",
        "mint(uint256[2],uint256[2][2],uint256[2],uint256[14],address)": "8d379619",
        "mintFrom(uint256[2],uint256[2][2],uint256[2],uint256[14],address)": "b052da3c",
        "minter()": "07546172",
        "name()": "06fdde03",
        "owner()": "8da5cb5b",
        "ownerOf(uint256)": "6352211e",
        "plaintextLength()": "0f58c977",
        "price()": "a035b1fe",
        "reCipher(uint256[2],uint256[2][2],uint256[2],uint256[14],uint256)": "0674b24b",
        "registerPublicKey(uint256,uint256)": "6f494049",
        "returnTokenIdsOfOwner(uint256,uint256,address)": "3c20bbb5",
        "safeTransferFrom(address,address,uint256)": "42842e0e",
        "safeTransferFrom(address,address,uint256,bytes)": "b88d4fde",
        "setApprovalForAll(address,bool)": "a22cb465",
        "setMetadata(address)": "f3cb8385",
        "setMinter(address)": "fca3b5aa",
        "supportsInterface(bytes4)": "01ffc9a7",
        "symbol()": "95d89b41",
        "tokenIdToNote(uint256)": "c76f5066",
        "tokenIds()": "714cff56",
        "tokenURI(uint256)": "c87b56dd",
        "transferFrom(address,address,uint256)": "23b872dd",
        "transferOwnership(address)": "f2fde38b",
        "updateArtistAddress(address)": "b784c966",
        "updateVerifiers(address,address)": "1fa5ef38",
        "userPublicKeys(address,uint256)": "10eefaf1",
        "verifiedTransferFrom(address,address,uint256,uint256[2],uint256[2][2],uint256[2],uint256[13])": "b18fe840",
        "verifierVersion()": "a3f966a9"
    },
    "id": 44
}