{
    "abi": [
        {
            "type": "constructor",
            "inputs": [
                {
                    "name": "_ecdhVerifierAddress",
                    "type": "address",
                    "internalType": "address"
                },
                {
                    "name": "_addDataVerifierAddress",
                    "type": "address",
                    "internalType": "address"
                },
                {
                    "name": "_metadataAddress",
                    "type": "address",
                    "internalType": "address"
                }
            ],
            "stateMutability": "nonpayable"
        },
        {
            "type": "function",
            "name": "approve",
            "inputs": [
                {
                    "name": "account",
                    "type": "address",
                    "internalType": "address"
                },
                {
                    "name": "id",
                    "type": "uint256",
                    "internalType": "uint256"
                }
            ],
            "outputs": [],
            "stateMutability": "payable"
        },
        {
            "type": "function",
            "name": "artist",
            "inputs": [],
            "outputs": [
                {
                    "name": "",
                    "type": "address",
                    "internalType": "address"
                }
            ],
            "stateMutability": "view"
        },
        {
            "type": "function",
            "name": "balanceOf",
            "inputs": [
                {
                    "name": "owner",
                    "type": "address",
                    "internalType": "address"
                }
            ],
            "outputs": [
                {
                    "name": "result",
                    "type": "uint256",
                    "internalType": "uint256"
                }
            ],
            "stateMutability": "view"
        },
        {
            "type": "function",
            "name": "getApproved",
            "inputs": [
                {
                    "name": "id",
                    "type": "uint256",
                    "internalType": "uint256"
                }
            ],
            "outputs": [
                {
                    "name": "result",
                    "type": "address",
                    "internalType": "address"
                }
            ],
            "stateMutability": "view"
        },
        {
            "type": "function",
            "name": "getEncryptedNote",
            "inputs": [
                {
                    "name": "tokenId",
                    "type": "uint256",
                    "internalType": "uint256"
                }
            ],
            "outputs": [
                {
                    "name": "a",
                    "type": "uint256",
                    "internalType": "uint256"
                },
                {
                    "name": "b",
                    "type": "uint256",
                    "internalType": "uint256"
                },
                {
                    "name": "c",
                    "type": "uint256",
                    "internalType": "uint256"
                },
                {
                    "name": "d",
                    "type": "uint256",
                    "internalType": "uint256"
                },
                {
                    "name": "timestamp",
                    "type": "uint256",
                    "internalType": "uint256"
                },
                {
                    "name": "flag",
                    "type": "bool",
                    "internalType": "bool"
                }
            ],
            "stateMutability": "view"
        },
        {
            "type": "function",
            "name": "getFlag",
            "inputs": [
                {
                    "name": "tokenId",
                    "type": "uint256",
                    "internalType": "uint256"
                }
            ],
            "outputs": [
                {
                    "name": "",
                    "type": "bool",
                    "internalType": "bool"
                }
            ],
            "stateMutability": "view"
        },
        {
            "type": "function",
            "name": "getTimestamp",
            "inputs": [
                {
                    "name": "tokenId",
                    "type": "uint256",
                    "internalType": "uint256"
                }
            ],
            "outputs": [
                {
                    "name": "",
                    "type": "uint256",
                    "internalType": "uint256"
                }
            ],
            "stateMutability": "view"
        },
        {
            "type": "function",
            "name": "getTimestampAndFlag",
            "inputs": [
                {
                    "name": "tokenId",
                    "type": "uint256",
                    "internalType": "uint256"
                }
            ],
            "outputs": [
                {
                    "name": "timestamp",
                    "type": "uint256",
                    "internalType": "uint256"
                },
                {
                    "name": "flag",
                    "type": "bool",
                    "internalType": "bool"
                }
            ],
            "stateMutability": "view"
        },
        {
            "type": "function",
            "name": "isApprovedForAll",
            "inputs": [
                {
                    "name": "owner",
                    "type": "address",
                    "internalType": "address"
                },
                {
                    "name": "operator",
                    "type": "address",
                    "internalType": "address"
                }
            ],
            "outputs": [
                {
                    "name": "result",
                    "type": "bool",
                    "internalType": "bool"
                }
            ],
            "stateMutability": "view"
        },
        {
            "type": "function",
            "name": "mapLastOwner",
            "inputs": [
                {
                    "name": "",
                    "type": "uint256",
                    "internalType": "uint256"
                }
            ],
            "outputs": [
                {
                    "name": "",
                    "type": "address",
                    "internalType": "address"
                }
            ],
            "stateMutability": "view"
        },
        {
            "type": "function",
            "name": "maxNumber",
            "inputs": [],
            "outputs": [
                {
                    "name": "",
                    "type": "uint256",
                    "internalType": "uint256"
                }
            ],
            "stateMutability": "view"
        },
        {
            "type": "function",
            "name": "metadata",
            "inputs": [],
            "outputs": [
                {
                    "name": "",
                    "type": "address",
                    "internalType": "address"
                }
            ],
            "stateMutability": "view"
        },
        {
            "type": "function",
            "name": "mint",
            "inputs": [
                {
                    "name": "_pA",
                    "type": "uint256[2]",
                    "internalType": "uint256[2]"
                },
                {
                    "name": "_pB",
                    "type": "uint256[2][2]",
                    "internalType": "uint256[2][2]"
                },
                {
                    "name": "_pC",
                    "type": "uint256[2]",
                    "internalType": "uint256[2]"
                },
                {
                    "name": "_pubSignals",
                    "type": "uint256[14]",
                    "internalType": "uint256[14]"
                },
                {
                    "name": "to",
                    "type": "address",
                    "internalType": "address"
                }
            ],
            "outputs": [],
            "stateMutability": "payable"
        },
        {
            "type": "function",
            "name": "name",
            "inputs": [],
            "outputs": [
                {
                    "name": "",
                    "type": "string",
                    "internalType": "string"
                }
            ],
            "stateMutability": "view"
        },
        {
            "type": "function",
            "name": "owner",
            "inputs": [],
            "outputs": [
                {
                    "name": "",
                    "type": "address",
                    "internalType": "address"
                }
            ],
            "stateMutability": "view"
        },
        {
            "type": "function",
            "name": "ownerOf",
            "inputs": [
                {
                    "name": "id",
                    "type": "uint256",
                    "internalType": "uint256"
                }
            ],
            "outputs": [
                {
                    "name": "result",
                    "type": "address",
                    "internalType": "address"
                }
            ],
            "stateMutability": "view"
        },
        {
            "type": "function",
            "name": "price",
            "inputs": [],
            "outputs": [
                {
                    "name": "",
                    "type": "uint256",
                    "internalType": "uint256"
                }
            ],
            "stateMutability": "view"
        },
        {
            "type": "function",
            "name": "reCipher",
            "inputs": [
                {
                    "name": "_pA",
                    "type": "uint256[2]",
                    "internalType": "uint256[2]"
                },
                {
                    "name": "_pB",
                    "type": "uint256[2][2]",
                    "internalType": "uint256[2][2]"
                },
                {
                    "name": "_pC",
                    "type": "uint256[2]",
                    "internalType": "uint256[2]"
                },
                {
                    "name": "_pubSignals",
                    "type": "uint256[14]",
                    "internalType": "uint256[14]"
                },
                {
                    "name": "id",
                    "type": "uint256",
                    "internalType": "uint256"
                }
            ],
            "outputs": [],
            "stateMutability": "nonpayable"
        },
        {
            "type": "function",
            "name": "registerPublicKey",
            "inputs": [
                {
                    "name": "x",
                    "type": "uint256",
                    "internalType": "uint256"
                },
                {
                    "name": "y",
                    "type": "uint256",
                    "internalType": "uint256"
                }
            ],
            "outputs": [],
            "stateMutability": "nonpayable"
        },
        {
            "type": "function",
            "name": "returnTokenIdsOfOwner",
            "inputs": [
                {
                    "name": "start",
                    "type": "uint256",
                    "internalType": "uint256"
                },
                {
                    "name": "end",
                    "type": "uint256",
                    "internalType": "uint256"
                },
                {
                    "name": "owner",
                    "type": "address",
                    "internalType": "address"
                }
            ],
            "outputs": [
                {
                    "name": "",
                    "type": "uint256[]",
                    "internalType": "uint256[]"
                }
            ],
            "stateMutability": "view"
        },
        {
            "type": "function",
            "name": "safeTransferFrom",
            "inputs": [
                {
                    "name": "from",
                    "type": "address",
                    "internalType": "address"
                },
                {
                    "name": "to",
                    "type": "address",
                    "internalType": "address"
                },
                {
                    "name": "id",
                    "type": "uint256",
                    "internalType": "uint256"
                }
            ],
            "outputs": [],
            "stateMutability": "payable"
        },
        {
            "type": "function",
            "name": "safeTransferFrom",
            "inputs": [
                {
                    "name": "from",
                    "type": "address",
                    "internalType": "address"
                },
                {
                    "name": "to",
                    "type": "address",
                    "internalType": "address"
                },
                {
                    "name": "id",
                    "type": "uint256",
                    "internalType": "uint256"
                },
                {
                    "name": "data",
                    "type": "bytes",
                    "internalType": "bytes"
                }
            ],
            "outputs": [],
            "stateMutability": "payable"
        },
        {
            "type": "function",
            "name": "setApprovalForAll",
            "inputs": [
                {
                    "name": "operator",
                    "type": "address",
                    "internalType": "address"
                },
                {
                    "name": "isApproved",
                    "type": "bool",
                    "internalType": "bool"
                }
            ],
            "outputs": [],
            "stateMutability": "nonpayable"
        },
        {
            "type": "function",
            "name": "setMetadata",
            "inputs": [
                {
                    "name": "_newMetadata",
                    "type": "address",
                    "internalType": "address"
                }
            ],
            "outputs": [],
            "stateMutability": "nonpayable"
        },
        {
            "type": "function",
            "name": "supportsInterface",
            "inputs": [
                {
                    "name": "interfaceId",
                    "type": "bytes4",
                    "internalType": "bytes4"
                }
            ],
            "outputs": [
                {
                    "name": "result",
                    "type": "bool",
                    "internalType": "bool"
                }
            ],
            "stateMutability": "view"
        },
        {
            "type": "function",
            "name": "symbol",
            "inputs": [],
            "outputs": [
                {
                    "name": "",
                    "type": "string",
                    "internalType": "string"
                }
            ],
            "stateMutability": "view"
        },
        {
            "type": "function",
            "name": "tokenIdToNote",
            "inputs": [
                {
                    "name": "",
                    "type": "uint256",
                    "internalType": "uint256"
                }
            ],
            "outputs": [
                {
                    "name": "field1",
                    "type": "uint256",
                    "internalType": "uint256"
                },
                {
                    "name": "field2",
                    "type": "uint256",
                    "internalType": "uint256"
                },
                {
                    "name": "field3",
                    "type": "uint256",
                    "internalType": "uint256"
                },
                {
                    "name": "field4",
                    "type": "uint256",
                    "internalType": "uint256"
                }
            ],
            "stateMutability": "view"
        },
        {
            "type": "function",
            "name": "tokenIds",
            "inputs": [],
            "outputs": [
                {
                    "name": "",
                    "type": "uint256",
                    "internalType": "uint256"
                }
            ],
            "stateMutability": "view"
        },
        {
            "type": "function",
            "name": "tokenURI",
            "inputs": [
                {
                    "name": "id",
                    "type": "uint256",
                    "internalType": "uint256"
                }
            ],
            "outputs": [
                {
                    "name": "",
                    "type": "string",
                    "internalType": "string"
                }
            ],
            "stateMutability": "view"
        },
        {
            "type": "function",
            "name": "transferFrom",
            "inputs": [
                {
                    "name": "from",
                    "type": "address",
                    "internalType": "address"
                },
                {
                    "name": "to",
                    "type": "address",
                    "internalType": "address"
                },
                {
                    "name": "id",
                    "type": "uint256",
                    "internalType": "uint256"
                }
            ],
            "outputs": [],
            "stateMutability": "payable"
        },
        {
            "type": "function",
            "name": "transferOwnership",
            "inputs": [
                {
                    "name": "newOwner",
                    "type": "address",
                    "internalType": "address"
                }
            ],
            "outputs": [],
            "stateMutability": "nonpayable"
        },
        {
            "type": "function",
            "name": "updateArtistAddress",
            "inputs": [
                {
                    "name": "_newArtist",
                    "type": "address",
                    "internalType": "address"
                }
            ],
            "outputs": [],
            "stateMutability": "nonpayable"
        },
        {
            "type": "function",
            "name": "updateVerifiers",
            "inputs": [
                {
                    "name": "_ecdhVerifier",
                    "type": "address",
                    "internalType": "address"
                },
                {
                    "name": "_addDataVerifier",
                    "type": "address",
                    "internalType": "address"
                }
            ],
            "outputs": [],
            "stateMutability": "nonpayable"
        },
        {
            "type": "function",
            "name": "userPublicKeys",
            "inputs": [
                {
                    "name": "",
                    "type": "address",
                    "internalType": "address"
                },
                {
                    "name": "",
                    "type": "uint256",
                    "internalType": "uint256"
                }
            ],
            "outputs": [
                {
                    "name": "",
                    "type": "uint256",
                    "internalType": "uint256"
                }
            ],
            "stateMutability": "view"
        },
        {
            "type": "function",
            "name": "verifiedTransferFrom",
            "inputs": [
                {
                    "name": "from",
                    "type": "address",
                    "internalType": "address"
                },
                {
                    "name": "to",
                    "type": "address",
                    "internalType": "address"
                },
                {
                    "name": "id",
                    "type": "uint256",
                    "internalType": "uint256"
                },
                {
                    "name": "_pA",
                    "type": "uint256[2]",
                    "internalType": "uint256[2]"
                },
                {
                    "name": "_pB",
                    "type": "uint256[2][2]",
                    "internalType": "uint256[2][2]"
                },
                {
                    "name": "_pC",
                    "type": "uint256[2]",
                    "internalType": "uint256[2]"
                },
                {
                    "name": "_pubSignals",
                    "type": "uint256[13]",
                    "internalType": "uint256[13]"
                }
            ],
            "outputs": [],
            "stateMutability": "nonpayable"
        },
        {
            "type": "function",
            "name": "verifierVersion",
            "inputs": [],
            "outputs": [
                {
                    "name": "",
                    "type": "uint256",
                    "internalType": "uint256"
                }
            ],
            "stateMutability": "view"
        },
        {
            "type": "event",
            "name": "Approval",
            "inputs": [
                {
                    "name": "owner",
                    "type": "address",
                    "indexed": true,
                    "internalType": "address"
                },
                {
                    "name": "account",
                    "type": "address",
                    "indexed": true,
                    "internalType": "address"
                },
                {
                    "name": "id",
                    "type": "uint256",
                    "indexed": true,
                    "internalType": "uint256"
                }
            ],
            "anonymous": false
        },
        {
            "type": "event",
            "name": "ApprovalForAll",
            "inputs": [
                {
                    "name": "owner",
                    "type": "address",
                    "indexed": true,
                    "internalType": "address"
                },
                {
                    "name": "operator",
                    "type": "address",
                    "indexed": true,
                    "internalType": "address"
                },
                {
                    "name": "isApproved",
                    "type": "bool",
                    "indexed": false,
                    "internalType": "bool"
                }
            ],
            "anonymous": false
        },
        {
            "type": "event",
            "name": "ArtistAddressUpdated",
            "inputs": [
                {
                    "name": "oldArtist",
                    "type": "address",
                    "indexed": true,
                    "internalType": "address"
                },
                {
                    "name": "newArtist",
                    "type": "address",
                    "indexed": true,
                    "internalType": "address"
                }
            ],
            "anonymous": false
        },
        {
            "type": "event",
            "name": "MetadataUpdated",
            "inputs": [
                {
                    "name": "oldMetadata",
                    "type": "address",
                    "indexed": true,
                    "internalType": "address"
                },
                {
                    "name": "newMetadata",
                    "type": "address",
                    "indexed": true,
                    "internalType": "address"
                }
            ],
            "anonymous": false
        },
        {
            "type": "event",
            "name": "OwnershipTransferred",
            "inputs": [
                {
                    "name": "user",
                    "type": "address",
                    "indexed": true,
                    "internalType": "address"
                },
                {
                    "name": "newOwner",
                    "type": "address",
                    "indexed": true,
                    "internalType": "address"
                }
            ],
            "anonymous": false
        },
        {
            "type": "event",
            "name": "Transfer",
            "inputs": [
                {
                    "name": "from",
                    "type": "address",
                    "indexed": true,
                    "internalType": "address"
                },
                {
                    "name": "to",
                    "type": "address",
                    "indexed": true,
                    "internalType": "address"
                },
                {
                    "name": "id",
                    "type": "uint256",
                    "indexed": true,
                    "internalType": "uint256"
                }
            ],
            "anonymous": false
        },
        {
            "type": "event",
            "name": "VerifiedTransfer",
            "inputs": [
                {
                    "name": "from",
                    "type": "uint256[2]",
                    "indexed": true,
                    "internalType": "uint256[2]"
                },
                {
                    "name": "to",
                    "type": "uint256[2]",
                    "indexed": true,
                    "internalType": "uint256[2]"
                },
                {
                    "name": "id",
                    "type": "uint256",
                    "indexed": true,
                    "internalType": "uint256"
                }
            ],
            "anonymous": false
        },
        {
            "type": "event",
            "name": "VerifiersUpdated",
            "inputs": [
                {
                    "name": "ecdhVerifier",
                    "type": "address",
                    "indexed": true,
                    "internalType": "address"
                },
                {
                    "name": "addDataVerifier",
                    "type": "address",
                    "indexed": true,
                    "internalType": "address"
                },
                {
                    "name": "newVersion",
                    "type": "uint256",
                    "indexed": false,
                    "internalType": "uint256"
                }
            ],
            "anonymous": false
        },
        {
            "type": "error",
            "name": "AccountBalanceOverflow",
            "inputs": []
        },
        {
            "type": "error",
            "name": "BalanceQueryForZeroAddress",
            "inputs": []
        },
        {
            "type": "error",
            "name": "NotOwnerNorApproved",
            "inputs": []
        },
        {
            "type": "error",
            "name": "TokenAlreadyExists",
            "inputs": []
        },
        {
            "type": "error",
            "name": "TokenDoesNotExist",
            "inputs": []
        },
        {
            "type": "error",
            "name": "TransferFromIncorrectOwner",
            "inputs": []
        },
        {
            "type": "error",
            "name": "TransferToNonERC721ReceiverImplementer",
            "inputs": []
        },
        {
            "type": "error",
            "name": "TransferToZeroAddress",
            "inputs": []
        }
    ],
    "bytecode": {
        "object": "0x608060405234801561000f575f5ffd5b506040516143cd3803806143cd8339818101604052810190610031919061024e565b33805f5f6101000a81548173ffffffffffffffffffffffffffffffffffffffff021916908373ffffffffffffffffffffffffffffffffffffffff1602179055508073ffffffffffffffffffffffffffffffffffffffff165f73ffffffffffffffffffffffffffffffffffffffff167f8be0079c531659141344cd1fd0a4f28419497f9722a3daafe3b4186f6b6457e060405160405180910390a3508260015f6101000a81548173ffffffffffffffffffffffffffffffffffffffff021916908373ffffffffffffffffffffffffffffffffffffffff1602179055508160025f6101000a81548173ffffffffffffffffffffffffffffffffffffffff021916908373ffffffffffffffffffffffffffffffffffffffff1602179055508060075f6101000a81548173ffffffffffffffffffffffffffffffffffffffff021916908373ffffffffffffffffffffffffffffffffffffffff160217905550735ac7555f7ecd655c9c73ed5b9bb8d5f628fa428260065f6101000a81548173ffffffffffffffffffffffffffffffffffffffff021916908373ffffffffffffffffffffffffffffffffffffffff160217905550600160098190555050505061029e565b5f5ffd5b5f73ffffffffffffffffffffffffffffffffffffffff82169050919050565b5f61021d826101f4565b9050919050565b61022d81610213565b8114610237575f5ffd5b50565b5f8151905061024881610224565b92915050565b5f5f5f60608486031215610265576102646101f0565b5b5f6102728682870161023a565b93505060206102838682870161023a565b92505060406102948682870161023a565b9150509250925092565b614122806102ab5f395ff3fe60806040526004361061020e575f3560e01c8063714cff5611610117578063b18fe8401161009f578063c76f50661161006e578063c76f5066146107a2578063c87b56dd146107e1578063e985e9c51461081d578063f2fde38b14610859578063f3cb8385146108815761020e565b8063b18fe840146106fa578063b633620c14610722578063b784c9661461075e578063b88d4fde146107865761020e565b806395fdc999116100e657806395fdc99914610601578063a035b1fe1461063d578063a22cb46514610667578063a3f966a91461068f578063a6402b50146106b95761020e565b8063714cff56146105675780638d379619146105915780638da5cb5b146105ad57806395d89b41146105d75761020e565b80633a4f69991161019a57806343bc16121161016957806343bc1612146104605780636352211e1461048a5780636d32adb8146104c65780636f4940491461050357806370a082311461052b5761020e565b80633a4f6999146103a25780633a8016b3146103cc5780633c20bbb51461040857806342842e0e146104445761020e565b8063095ea7b3116101e1578063095ea7b3146102dc57806310eefaf1146102f85780631fa5ef381461033457806323b872dd1461035c578063392f37e9146103785761020e565b806301ffc9a7146102125780630674b24b1461024e57806306fdde0314610276578063081812fc146102a0575b5f5ffd5b34801561021d575f5ffd5b5061023860048036038101906102339190612af3565b6108a9565b6040516102459190612b38565b60405180910390f35b348015610259575f5ffd5b50610274600480360381019061026f9190612beb565b6108cd565b005b348015610281575f5ffd5b5061028a610d25565b6040516102979190612cd5565b60405180910390f35b3480156102ab575f5ffd5b506102c660048036038101906102c19190612cf5565b610d62565b6040516102d39190612d5f565b60405180910390f35b6102f660048036038101906102f19190612da2565b610db5565b005b348015610303575f5ffd5b5061031e60048036038101906103199190612da2565b610dc4565b60405161032b9190612def565b60405180910390f35b34801561033f575f5ffd5b5061035a60048036038101906103559190612e08565b610de8565b005b61037660048036038101906103719190612e46565b611054565b005b348015610383575f5ffd5b5061038c61108f565b6040516103999190612d5f565b60405180910390f35b3480156103ad575f5ffd5b506103b66110b4565b6040516103c39190612def565b60405180910390f35b3480156103d7575f5ffd5b506103f260048036038101906103ed9190612cf5565b6110b9565b6040516103ff9190612d5f565b60405180910390f35b348015610413575f5ffd5b5061042e60048036038101906104299190612e96565b6110e9565b60405161043b9190612f9d565b60405180910390f35b61045e60048036038101906104599190612e46565b61122e565b005b34801561046b575f5ffd5b50610474611269565b6040516104819190612d5f565b60405180910390f35b348015610495575f5ffd5b506104b060048036038101906104ab9190612cf5565b61128e565b6040516104bd9190612d5f565b60405180910390f35b3480156104d1575f5ffd5b506104ec60048036038101906104e79190612cf5565b6112b1565b6040516104fa929190612fbd565b60405180910390f35b34801561050e575f5ffd5b5061052960048036038101906105249190612fe4565b61134f565b005b348015610536575f5ffd5b50610551600480360381019061054c9190613022565b6113b4565b60405161055e9190612def565b60405180910390f35b348015610572575f5ffd5b5061057b611401565b6040516105889190612def565b60405180910390f35b6105ab60048036038101906105a6919061304d565b611407565b005b3480156105b8575f5ffd5b506105c1611762565b6040516105ce9190612d5f565b60405180910390f35b3480156105e2575f5ffd5b506105eb611786565b6040516105f89190612cd5565b60405180910390f35b34801561060c575f5ffd5b5061062760048036038101906106229190612cf5565b6117c3565b6040516106349190612b38565b60405180910390f35b348015610648575f5ffd5b50610651611840565b60405161065e9190612def565b60405180910390f35b348015610672575f5ffd5b5061068d600480360381019061068891906130f1565b61184c565b005b34801561069a575f5ffd5b506106a361189f565b6040516106b09190612def565b60405180910390f35b3480156106c4575f5ffd5b506106df60048036038101906106da9190612cf5565b6118a5565b6040516106f19695949392919061312f565b60405180910390f35b348015610705575f5ffd5b50610720600480360381019061071b91906131af565b611926565b005b34801561072d575f5ffd5b5061074860048036038101906107439190612cf5565b611a77565b6040516107559190612def565b60405180910390f35b348015610769575f5ffd5b50610784600480360381019061077f9190613022565b611af2565b005b6107a0600480360381019061079b91906132ac565b611cb1565b005b3480156107ad575f5ffd5b506107c860048036038101906107c39190612cf5565b611cec565b6040516107d89493929190613330565b60405180910390f35b3480156107ec575f5ffd5b5061080760048036038101906108029190612cf5565b611d18565b6040516108149190612cd5565b60405180910390f35b348015610828575f5ffd5b50610843600480360381019061083e9190612e08565b611e14565b6040516108509190612b38565b60405180910390f35b348015610864575f5ffd5b5061087f600480360381019061087a9190613022565b611e36565b005b34801561088c575f5ffd5b506108a760048036038101906108a29190613022565b611f60565b005b5f8160e01c635b5e139f81146380ac58cd82146301ffc9a783141717915050919050565b6108d68161128e565b73ffffffffffffffffffffffffffffffffffffffff163373ffffffffffffffffffffffffffffffffffffffff1614610943576040517f08c379a000000000000000000000000000000000000000000000000000000000815260040161093a906133bd565b60405180910390fd5b600182600d600e8110610959576109586133db565b5b60200201351461099e576040517f08c379a000000000000000000000000000000000000000000000000000000000815260040161099590613452565b60405180910390fd5b5f15156109aa826117c3565b1515146109ec576040517f08c379a00000000000000000000000000000000000000000000000000000000081526004016109e3906134e0565b60405180910390fd5b816007600e8110610a00576109ff6133db565b5b602002013560045f8381526020019081526020015f205f015414610a59576040517f08c379a0000000000000000000000000000000000000000000000000000000008152600401610a5090613548565b60405180910390fd5b816008600e8110610a6d57610a6c6133db565b5b602002013560045f8381526020019081526020015f206001015414610ac7576040517f08c379a0000000000000000000000000000000000000000000000000000000008152600401610abe90613548565b60405180910390fd5b816009600e8110610adb57610ada6133db565b5b602002013560045f8381526020019081526020015f206002015414610b35576040517f08c379a0000000000000000000000000000000000000000000000000000000008152600401610b2c90613548565b60405180910390fd5b81600a600e8110610b4957610b486133db565b5b602002013560045f8381526020019081526020015f206003015414610ba3576040517f08c379a0000000000000000000000000000000000000000000000000000000008152600401610b9a90613548565b60405180910390fd5b5f60025f9054906101000a900473ffffffffffffffffffffffffffffffffffffffff1673ffffffffffffffffffffffffffffffffffffffff16638d15f88f878787876040518563ffffffff1660e01b8152600401610c049493929190613648565b602060405180830381865afa158015610c1f573d5f5f3e3d5ffd5b505050506040513d601f19601f82011682018060405250810190610c4391906136a1565b90506001151581151514610c8c576040517f08c379a0000000000000000000000000000000000000000000000000000000008152600401610c8390613716565b60405180910390fd5b610cf9836003600e8110610ca357610ca26133db565b5b6020020135846004600e8110610cbc57610cbb6133db565b5b6020020135856005600e8110610cd557610cd46133db565b5b6020020135866006600e8110610cee57610ced6133db565b5b60200201358661211f565b610d1d82846002600e8110610d1157610d106133db565b5b60200201356001612181565b505050505050565b60606040518060400160405280600681526020017f4349504845520000000000000000000000000000000000000000000000000000815250905090565b5f815f527f7d8825530a5a2e7a000000000000000000000000000000000000000000000000601c5260205f2082018201805460601b610da85763ceea21b65f526004601cfd5b8060010154915050919050565b610dc03383836121fb565b5050565b6003602052815f5260405f208160028110610ddd575f80fd5b015f91509150505481565b5f5f9054906101000a900473ffffffffffffffffffffffffffffffffffffffff1673ffffffffffffffffffffffffffffffffffffffff163373ffffffffffffffffffffffffffffffffffffffff1614610e76576040517f08c379a0000000000000000000000000000000000000000000000000000000008152600401610e6d9061377e565b60405180910390fd5b5f73ffffffffffffffffffffffffffffffffffffffff168273ffffffffffffffffffffffffffffffffffffffff1603610ee4576040517f08c379a0000000000000000000000000000000000000000000000000000000008152600401610edb906137e6565b60405180910390fd5b5f73ffffffffffffffffffffffffffffffffffffffff168173ffffffffffffffffffffffffffffffffffffffff1603610f52576040517f08c379a0000000000000000000000000000000000000000000000000000000008152600401610f4990613874565b60405180910390fd5b8160015f6101000a81548173ffffffffffffffffffffffffffffffffffffffff021916908373ffffffffffffffffffffffffffffffffffffffff1602179055508060025f6101000a81548173ffffffffffffffffffffffffffffffffffffffff021916908373ffffffffffffffffffffffffffffffffffffffff16021790555060095f815480929190610fe4906138bf565b91905055508073ffffffffffffffffffffffffffffffffffffffff168273ffffffffffffffffffffffffffffffffffffffff167f9ec1aaca73a459360b1f0dbd3c331630971894c3c3ac642bae1d92aa1e9454076009546040516110489190612def565b60405180910390a35050565b6040517f08c379a000000000000000000000000000000000000000000000000000000000815260040161108690613950565b60405180910390fd5b60075f9054906101000a900473ffffffffffffffffffffffffffffffffffffffff1681565b609681565b6005602052805f5260405f205f915054906101000a900473ffffffffffffffffffffffffffffffffffffffff1681565b606082841061112d576040517f08c379a0000000000000000000000000000000000000000000000000000000008152600401611124906139b8565b60405180910390fd5b5f848461113a91906139d6565b67ffffffffffffffff81111561115357611152613a09565b5b6040519080825280602002602001820160405280156111815781602001602082028036833780820191505090505b5090505f5f90505b8486101561121f5761119a866122ab565b1561120b578373ffffffffffffffffffffffffffffffffffffffff166111bf8761128e565b73ffffffffffffffffffffffffffffffffffffffff160361120a57858282815181106111ee576111ed6133db565b5b6020026020010181815250506001816112079190613a36565b90505b5b6001866112189190613a36565b9550611189565b80825281925050509392505050565b6040517f08c379a000000000000000000000000000000000000000000000000000000000815260040161126090613950565b60405180910390fd5b60065f9054906101000a900473ffffffffffffffffffffffffffffffffffffffff1681565b5f611298826122e8565b9050806112ac5763ceea21b65f526004601cfd5b919050565b5f5f6112bc836122ab565b6112fb576040517f08c379a00000000000000000000000000000000000000000000000000000000081526004016112f290613ab3565b60405180910390fd5b5f61130584612326565b90506b8000000000000000000000001981166bffffffffffffffffffffffff1692505f6b80000000000000000000000082166bffffffffffffffffffffffff161415915050915091565b60405180604001604052808381526020018281525060035f3373ffffffffffffffffffffffffffffffffffffffff1673ffffffffffffffffffffffffffffffffffffffff1681526020019081526020015f209060026113af929190612a32565b505050565b5f816113c757638f4eb6045f526004601cfd5b7f7d8825530a5a2e7a000000000000000000000000000000000000000000000000601c52815f5263ffffffff601c600c2054169050919050565b60085481565b67016345785d8a00003414611451576040517f08c379a000000000000000000000000000000000000000000000000000000000815260040161144890613b1b565b60405180910390fd5b5f82600d600e8110611466576114656133db565b5b6020020135146114ab576040517f08c379a00000000000000000000000000000000000000000000000000000000081526004016114a290613b83565b60405180910390fd5b60016008546114ba9190613a36565b60088190555060966008541115611506576040517f08c379a00000000000000000000000000000000000000000000000000000000081526004016114fd90613beb565b60405180910390fd5b5f60065f9054906101000a900473ffffffffffffffffffffffffffffffffffffffff1673ffffffffffffffffffffffffffffffffffffffff163460405161154c90613c36565b5f6040518083038185875af1925050503d805f8114611586576040519150601f19603f3d011682016040523d82523d5f602084013e61158b565b606091505b50509050806115cf576040517f08c379a00000000000000000000000000000000000000000000000000000000081526004016115c690613c94565b60405180910390fd5b5f60025f9054906101000a900473ffffffffffffffffffffffffffffffffffffffff1673ffffffffffffffffffffffffffffffffffffffff16638d15f88f888888886040518563ffffffff1660e01b81526004016116309493929190613648565b602060405180830381865afa15801561164b573d5f5f3e3d5ffd5b505050506040513d601f19601f8201168201806040525081019061166f91906136a1565b905060011515811515146116b8576040517f08c379a00000000000000000000000000000000000000000000000000000000081526004016116af90613716565b60405180910390fd5b611727846003600e81106116cf576116ce6133db565b5b6020020135856004600e81106116e8576116e76133db565b5b6020020135866005600e8110611701576117006133db565b5b6020020135876006600e811061171a576117196133db565b5b602002013560085461211f565b61173383600854612361565b611759600854856002600e811061174d5761174c6133db565b5b60200201356001612181565b50505050505050565b5f5f9054906101000a900473ffffffffffffffffffffffffffffffffffffffff1681565b60606040518060400160405280600381526020017f4349500000000000000000000000000000000000000000000000000000000000815250905090565b5f6117cd826122ab565b61180c576040517f08c379a000000000000000000000000000000000000000000000000000000000815260040161180390613ab3565b60405180910390fd5b5f61181683612326565b90505f6b80000000000000000000000082166bffffffffffffffffffffffff161415915050919050565b67016345785d8a000081565b801515905081601c52670a5a2e7a00000000600852335f52806030600c2055805f528160601b60601c337f17307eab39ab6107e8899845ad3d59bd9653f200f220920489ca2b5937696c3160205fa35050565b60095481565b5f5f5f5f5f5f5f5f6118b6896112b1565b9150915060045f8a81526020019081526020015f205f015460045f8b81526020019081526020015f206001015460045f8c81526020019081526020015f206002015460045f8d81526020019081526020015f20600301548585975097509750975097509750505091939550919395565b61193484848484898b61242d565b61193f8787876128ba565b8660055f8781526020019081526020015f205f6101000a81548173ffffffffffffffffffffffffffffffffffffffff021916908373ffffffffffffffffffffffffffffffffffffffff160217905550846040518060400160405280835f600d81106119ad576119ac6133db565b5b60200201358152602001836001600d81106119cb576119ca6133db565b5b60200201358152506040516119e09190613d57565b6040518091039020604051806040016040528084600b600d8110611a0757611a066133db565b5b6020020135815260200184600c600d8110611a2557611a246133db565b5b6020020135815250604051611a3a9190613d57565b60405180910390207f939e1e60c704d150b520661f589430c03e562a7f805e5f6d6ebb577254ec7efa60405160405180910390a450505050505050565b5f611a81826122ab565b611ac0576040517f08c379a0000000000000000000000000000000000000000000000000000000008152600401611ab790613ab3565b60405180910390fd5b5f611aca83612326565b90506b8000000000000000000000001981166bffffffffffffffffffffffff16915050919050565b5f5f9054906101000a900473ffffffffffffffffffffffffffffffffffffffff1673ffffffffffffffffffffffffffffffffffffffff163373ffffffffffffffffffffffffffffffffffffffff1614611b80576040517f08c379a0000000000000000000000000000000000000000000000000000000008152600401611b779061377e565b60405180910390fd5b5f73ffffffffffffffffffffffffffffffffffffffff168173ffffffffffffffffffffffffffffffffffffffff1603611bee576040517f08c379a0000000000000000000000000000000000000000000000000000000008152600401611be590613dbb565b60405180910390fd5b5f60065f9054906101000a900473ffffffffffffffffffffffffffffffffffffffff1690508160065f6101000a81548173ffffffffffffffffffffffffffffffffffffffff021916908373ffffffffffffffffffffffffffffffffffffffff1602179055508173ffffffffffffffffffffffffffffffffffffffff168173ffffffffffffffffffffffffffffffffffffffff167f88bb0d30cd096c9e787230eb4b23281536acf0d6806dde8a6cc454808abbe8a460405160405180910390a35050565b6040517f08c379a0000000000000000000000000000000000000000000000000000000008152600401611ce390613950565b60405180910390fd5b6004602052805f5260405f205f91509050805f0154908060010154908060020154908060030154905084565b606060075f9054906101000a900473ffffffffffffffffffffffffffffffffffffffff1673ffffffffffffffffffffffffffffffffffffffff1663b6906d2e8360045f8681526020019081526020015f205f015460045f8781526020019081526020015f206001015460045f8881526020019081526020015f206002015460045f8981526020019081526020015f20600301546040518663ffffffff1660e01b8152600401611dcb959493929190613dd9565b5f60405180830381865afa158015611de5573d5f5f3e3d5ffd5b505050506040513d5f823e3d601f19601f82011682018060405250810190611e0d9190613f17565b9050919050565b5f81601c52670a5a2e7a00000000600852825f526030600c2054905092915050565b5f5f9054906101000a900473ffffffffffffffffffffffffffffffffffffffff1673ffffffffffffffffffffffffffffffffffffffff163373ffffffffffffffffffffffffffffffffffffffff1614611ec4576040517f08c379a0000000000000000000000000000000000000000000000000000000008152600401611ebb9061377e565b60405180910390fd5b805f5f6101000a81548173ffffffffffffffffffffffffffffffffffffffff021916908373ffffffffffffffffffffffffffffffffffffffff1602179055508073ffffffffffffffffffffffffffffffffffffffff163373ffffffffffffffffffffffffffffffffffffffff167f8be0079c531659141344cd1fd0a4f28419497f9722a3daafe3b4186f6b6457e060405160405180910390a350565b5f5f9054906101000a900473ffffffffffffffffffffffffffffffffffffffff1673ffffffffffffffffffffffffffffffffffffffff163373ffffffffffffffffffffffffffffffffffffffff1614611fee576040517f08c379a0000000000000000000000000000000000000000000000000000000008152600401611fe59061377e565b60405180910390fd5b5f73ffffffffffffffffffffffffffffffffffffffff168173ffffffffffffffffffffffffffffffffffffffff160361205c576040517f08c379a000000000000000000000000000000000000000000000000000000000815260040161205390613fa8565b60405180910390fd5b5f60075f9054906101000a900473ffffffffffffffffffffffffffffffffffffffff1690508160075f6101000a81548173ffffffffffffffffffffffffffffffffffffffff021916908373ffffffffffffffffffffffffffffffffffffffff1602179055508173ffffffffffffffffffffffffffffffffffffffff168173ffffffffffffffffffffffffffffffffffffffff167f4322befadca758edc2a0285b8184185f7bb363811ef3d9f3c646293a1fb448df60405160405180910390a35050565b60405180608001604052808681526020018581526020018481526020018381525060045f8381526020019081526020015f205f820151815f01556020820151816001015560408201518160020155606082015181600301559050505050505050565b6b80000000000000000000000082106121cf576040517f08c379a00000000000000000000000000000000000000000000000000000000081526004016121c690614010565b60405180910390fd5b5f82905081156121eb576b800000000000000000000000811790505b6121f584826129e4565b50505050565b5f1960601c82811692508381169350815f52837f7d8825530a5a2e7a00000000000000000000000000000000000000000000000017601c5260205f208201820180548216806122515763ceea21b65f526004601cfd5b80861486151761227657805f526030600c205461227557634b6e7f185f526004601cfd5b5b8482600101558385827f8c5be1e5ebec7d5bd14f71427d1e84f3dd0314c0f7b2291e5b200ac8c7c3b9255f38a4505050505050565b5f815f527f7d8825530a5a2e7a000000000000000000000000000000000000000000000000601c5260205f20820182015460601b15159050919050565b5f815f527f7d8825530a5a2e7a000000000000000000000000000000000000000000000000601c5260205f20820182015460601b60601c9050919050565b5f815f527f7d8825530a5a2e7a000000000000000000000000000000000000000000000000601c5260205f20820182015460a01c9050919050565b61236c5f8383612a28565b8160601b60601c9150805f527f7d8825530a5a2e7a000000000000000000000000000000000000000000000000601c5260205f208101810180548060601b156123bc5763c991cbb15f526004601cfd5b8381178255835f52601c600c20600181540163ffffffff811686026123f05767ea553b3401336cea861560021b526004601cfd5b808255505082845f7fddf252ad1be2c89b69c2b068fc378daa952ba7f163c4a11628f55a4df523b3ef5f38a450506124295f8383612a2d565b5050565b826007600d8110612441576124406133db565b5b602002013560045f8481526020019081526020015f205f01541461249a576040517f08c379a000000000000000000000000000000000000000000000000000000000815260040161249190613548565b60405180910390fd5b826008600d81106124ae576124ad6133db565b5b602002013560045f8481526020019081526020015f206001015414612508576040517f08c379a00000000000000000000000000000000000000000000000000000000081526004016124ff90613548565b60405180910390fd5b826009600d811061251c5761251b6133db565b5b602002013560045f8481526020019081526020015f206002015414612576576040517f08c379a000000000000000000000000000000000000000000000000000000000815260040161256d90613548565b60405180910390fd5b82600a600d811061258a576125896133db565b5b602002013560045f8481526020019081526020015f2060030154146125e4576040517f08c379a00000000000000000000000000000000000000000000000000000000081526004016125db90613548565b60405180910390fd5b825f600d81106125f7576125f66133db565b5b602002013560035f8373ffffffffffffffffffffffffffffffffffffffff1673ffffffffffffffffffffffffffffffffffffffff1681526020019081526020015f205f6002811061264b5761264a6133db565b5b01541461268d576040517f08c379a000000000000000000000000000000000000000000000000000000000815260040161268490614078565b60405180910390fd5b826001600d81106126a1576126a06133db565b5b602002013560035f8373ffffffffffffffffffffffffffffffffffffffff1673ffffffffffffffffffffffffffffffffffffffff1681526020019081526020015f206001600281106126f6576126f56133db565b5b015414612738576040517f08c379a000000000000000000000000000000000000000000000000000000000815260040161272f90614078565b60405180910390fd5b5f60015f9054906101000a900473ffffffffffffffffffffffffffffffffffffffff1673ffffffffffffffffffffffffffffffffffffffff1663f143a75e888888886040518563ffffffff1660e01b815260040161279994939291906140a7565b602060405180830381865afa1580156127b4573d5f5f3e3d5ffd5b505050506040513d601f19601f820116820180604052508101906127d891906136a1565b90506001151581151514612821576040517f08c379a000000000000000000000000000000000000000000000000000000000815260040161281890613716565b60405180910390fd5b61288e846003600d8110612838576128376133db565b5b6020020135856004600d8110612851576128506133db565b5b6020020135866005600d811061286a576128696133db565b5b6020020135876006600d8110612883576128826133db565b5b60200201358761211f565b6128b183856002600d81106128a6576128a56133db565b5b60200201355f612181565b50505050505050565b6128c5838383612a28565b5f1960601c83811693508281169250815f52337f7d8825530a5a2e7a00000000000000000000000000000000000000000000000017601c5260205f2082018201805480831686811481026129285767ceea21b6a1148100811560021b526004601cfd5b865f52826001015480331488331417612953576030600c205461295257634b6e7f185f526004601cfd5b5b8015612960575f84600101555b5085871882188355601c600c206001815403815550855f52601c600c20600181540163ffffffff811688026129a45767ea553b3401336cea881560021b526004601cfd5b80825550508486887fddf252ad1be2c89b69c2b068fc378daa952ba7f163c4a11628f55a4df523b3ef5f38a4505050506129df838383612a2d565b505050565b815f527f7d8825530a5a2e7a000000000000000000000000000000000000000000000000601c5260205f208201820180548060a01c831860a01b8118825550505050565b505050565b505050565b8260028101928215612a61579160200282015b82811115612a60578251825591602001919060010190612a45565b5b509050612a6e9190612a72565b5090565b5b80821115612a89575f815f905550600101612a73565b5090565b5f604051905090565b5f5ffd5b5f5ffd5b5f7fffffffff0000000000000000000000000000000000000000000000000000000082169050919050565b612ad281612a9e565b8114612adc575f5ffd5b50565b5f81359050612aed81612ac9565b92915050565b5f60208284031215612b0857612b07612a96565b5b5f612b1584828501612adf565b91505092915050565b5f8115159050919050565b612b3281612b1e565b82525050565b5f602082019050612b4b5f830184612b29565b92915050565b5f5ffd5b5f81905082602060020282011115612b7057612b6f612b51565b5b92915050565b5f81905082604060020282011115612b9157612b90612b51565b5b92915050565b5f819050826020600e0282011115612bb257612bb1612b51565b5b92915050565b5f819050919050565b612bca81612bb8565b8114612bd4575f5ffd5b50565b5f81359050612be581612bc1565b92915050565b5f5f5f5f5f6102e08688031215612c0557612c04612a96565b5b5f612c1288828901612b55565b9550506040612c2388828901612b76565b94505060c0612c3488828901612b55565b935050610100612c4688828901612b97565b9250506102c0612c5888828901612bd7565b9150509295509295909350565b5f81519050919050565b5f82825260208201905092915050565b8281835e5f83830152505050565b5f601f19601f8301169050919050565b5f612ca782612c65565b612cb18185612c6f565b9350612cc1818560208601612c7f565b612cca81612c8d565b840191505092915050565b5f6020820190508181035f830152612ced8184612c9d565b905092915050565b5f60208284031215612d0a57612d09612a96565b5b5f612d1784828501612bd7565b91505092915050565b5f73ffffffffffffffffffffffffffffffffffffffff82169050919050565b5f612d4982612d20565b9050919050565b612d5981612d3f565b82525050565b5f602082019050612d725f830184612d50565b92915050565b612d8181612d3f565b8114612d8b575f5ffd5b50565b5f81359050612d9c81612d78565b92915050565b5f5f60408385031215612db857612db7612a96565b5b5f612dc585828601612d8e565b9250506020612dd685828601612bd7565b9150509250929050565b612de981612bb8565b82525050565b5f602082019050612e025f830184612de0565b92915050565b5f5f60408385031215612e1e57612e1d612a96565b5b5f612e2b85828601612d8e565b9250506020612e3c85828601612d8e565b9150509250929050565b5f5f5f60608486031215612e5d57612e5c612a96565b5b5f612e6a86828701612d8e565b9350506020612e7b86828701612d8e565b9250506040612e8c86828701612bd7565b9150509250925092565b5f5f5f60608486031215612ead57612eac612a96565b5b5f612eba86828701612bd7565b9350506020612ecb86828701612bd7565b9250506040612edc86828701612d8e565b9150509250925092565b5f81519050919050565b5f82825260208201905092915050565b5f819050602082019050919050565b612f1881612bb8565b82525050565b5f612f298383612f0f565b60208301905092915050565b5f602082019050919050565b5f612f4b82612ee6565b612f558185612ef0565b9350612f6083612f00565b805f5b83811015612f90578151612f778882612f1e565b9750612f8283612f35565b925050600181019050612f63565b5085935050505092915050565b5f6020820190508181035f830152612fb58184612f41565b905092915050565b5f604082019050612fd05f830185612de0565b612fdd6020830184612b29565b9392505050565b5f5f60408385031215612ffa57612ff9612a96565b5b5f61300785828601612bd7565b925050602061301885828601612bd7565b9150509250929050565b5f6020828403121561303757613036612a96565b5b5f61304484828501612d8e565b91505092915050565b5f5f5f5f5f6102e0868803121561306757613066612a96565b5b5f61307488828901612b55565b955050604061308588828901612b76565b94505060c061309688828901612b55565b9350506101006130a888828901612b97565b9250506102c06130ba88828901612d8e565b9150509295509295909350565b6130d081612b1e565b81146130da575f5ffd5b50565b5f813590506130eb816130c7565b92915050565b5f5f6040838503121561310757613106612a96565b5b5f61311485828601612d8e565b9250506020613125858286016130dd565b9150509250929050565b5f60c0820190506131425f830189612de0565b61314f6020830188612de0565b61315c6040830187612de0565b6131696060830186612de0565b6131766080830185612de0565b61318360a0830184612b29565b979650505050505050565b5f819050826020600d02820111156131a9576131a8612b51565b5b92915050565b5f5f5f5f5f5f5f610300888a0312156131cb576131ca612a96565b5b5f6131d88a828b01612d8e565b97505060206131e98a828b01612d8e565b96505060406131fa8a828b01612bd7565b955050606061320b8a828b01612b55565b94505060a061321c8a828b01612b76565b93505061012061322e8a828b01612b55565b9250506101606132408a828b0161318e565b91505092959891949750929550565b5f5ffd5b5f5ffd5b5f5f83601f84011261326c5761326b61324f565b5b8235905067ffffffffffffffff81111561328957613288613253565b5b6020830191508360018202830111156132a5576132a4612b51565b5b9250929050565b5f5f5f5f5f608086880312156132c5576132c4612a96565b5b5f6132d288828901612d8e565b95505060206132e388828901612d8e565b94505060406132f488828901612bd7565b935050606086013567ffffffffffffffff81111561331557613314612a9a565b5b61332188828901613257565b92509250509295509295909350565b5f6080820190506133435f830187612de0565b6133506020830186612de0565b61335d6040830185612de0565b61336a6060830184612de0565b95945050505050565b7f4d53472053454e444552204e4545445320544f204245204f574e4552000000005f82015250565b5f6133a7601c83612c6f565b91506133b282613373565b602082019050919050565b5f6020820190508181035f8301526133d48161339b565b9050919050565b7f4e487b71000000000000000000000000000000000000000000000000000000005f52603260045260245ffd5b7f4e4545445320544f204245205245434950484552204d4f4445000000000000005f82015250565b5f61343c601983612c6f565b915061344782613408565b602082019050919050565b5f6020820190508181035f83015261346981613430565b9050919050565b7f43414e204f4e4c59205245434950484552204f4e4345532041465445522054525f8201527f414e534645520000000000000000000000000000000000000000000000000000602082015250565b5f6134ca602683612c6f565b91506134d582613470565b604082019050919050565b5f6020820190508181035f8301526134f7816134be565b9050919050565b7f4f4c4420454e43525950544544204441544120444f53454e54204d41544348005f82015250565b5f613532601f83612c6f565b915061353d826134fe565b602082019050919050565b5f6020820190508181035f83015261355f81613526565b9050919050565b82818337505050565b61357b60408383613566565b5050565b5f60029050919050565b5f81905092915050565b5f819050919050565b6135a860408383613566565b5050565b5f6135b7838361359c565b60408301905092915050565b5f82905092915050565b5f604082019050919050565b6135e28161357f565b6135ec8184613589565b92506135f782613593565b805f5b8381101561362f5761360c82846135c3565b61361687826135ac565b9650613621836135cd565b9250506001810190506135fa565b505050505050565b6136446101c08383613566565b5050565b5f6102c08201905061365c5f83018761356f565b61366960408301866135d9565b61367660c083018561356f565b613684610100830184613637565b95945050505050565b5f8151905061369b816130c7565b92915050565b5f602082840312156136b6576136b5612a96565b5b5f6136c38482850161368d565b91505092915050565b7f496e76616c69642050726f6f66000000000000000000000000000000000000005f82015250565b5f613700600d83612c6f565b915061370b826136cc565b602082019050919050565b5f6020820190508181035f83015261372d816136f4565b9050919050565b7f554e415554484f52495a454400000000000000000000000000000000000000005f82015250565b5f613768600c83612c6f565b915061377382613734565b602082019050919050565b5f6020820190508181035f8301526137958161375c565b9050919050565b7f496e76616c6964204543444820766572696669657220616464726573730000005f82015250565b5f6137d0601d83612c6f565b91506137db8261379c565b602082019050919050565b5f6020820190508181035f8301526137fd816137c4565b9050919050565b7f496e76616c6964206164642064617461207665726966696572206164647265735f8201527f7300000000000000000000000000000000000000000000000000000000000000602082015250565b5f61385e602183612c6f565b915061386982613804565b604082019050919050565b5f6020820190508181035f83015261388b81613852565b9050919050565b7f4e487b71000000000000000000000000000000000000000000000000000000005f52601160045260245ffd5b5f6138c982612bb8565b91507fffffffffffffffffffffffffffffffffffffffffffffffffffffffffffffffff82036138fb576138fa613892565b5b600182019050919050565b7f5573652076657269666965645472616e7366657246726f6d20696e73746561645f82015250565b5f61393a602083612c6f565b915061394582613906565b602082019050919050565b5f6020820190508181035f8301526139678161392e565b9050919050565b7f454e44203e2053544152540000000000000000000000000000000000000000005f82015250565b5f6139a2600b83612c6f565b91506139ad8261396e565b602082019050919050565b5f6020820190508181035f8301526139cf81613996565b9050919050565b5f6139e082612bb8565b91506139eb83612bb8565b9250828203905081811115613a0357613a02613892565b5b92915050565b7f4e487b71000000000000000000000000000000000000000000000000000000005f52604160045260245ffd5b5f613a4082612bb8565b9150613a4b83612bb8565b9250828201905080821115613a6357613a62613892565b5b92915050565b7f546f6b656e20646f6573206e6f742065786973740000000000000000000000005f82015250565b5f613a9d601483612c6f565b9150613aa882613a69565b602082019050919050565b5f6020820190508181035f830152613aca81613a91565b9050919050565b7f56616c756520646f73656e74206d6174636820707269636500000000000000005f82015250565b5f613b05601883612c6f565b9150613b1082613ad1565b602082019050919050565b5f6020820190508181035f830152613b3281613af9565b9050919050565b7f496e76616c6964206d6f64653a206d757374206265206d696e74206d6f6465005f82015250565b5f613b6d601f83612c6f565b9150613b7882613b39565b602082019050919050565b5f6020820190508181035f830152613b9a81613b61565b9050919050565b7f4d696e74206f76657200000000000000000000000000000000000000000000005f82015250565b5f613bd5600983612c6f565b9150613be082613ba1565b602082019050919050565b5f6020820190508181035f830152613c0281613bc9565b9050919050565b5f81905092915050565b50565b5f613c215f83613c09565b9150613c2c82613c13565b5f82019050919050565b5f613c4082613c16565b9150819050919050565b7f4661696c656420746f2073656e642045746865720000000000000000000000005f82015250565b5f613c7e601483612c6f565b9150613c8982613c4a565b602082019050919050565b5f6020820190508181035f830152613cab81613c72565b9050919050565b5f60029050919050565b5f81905092915050565b5f819050919050565b613cd881612bb8565b82525050565b5f613ce98383613ccf565b60208301905092915050565b5f602082019050919050565b613d0a81613cb2565b613d148184613cbc565b9250613d1f82613cc6565b805f5b83811015613d4f578151613d368782613cde565b9650613d4183613cf5565b925050600181019050613d22565b505050505050565b5f613d628284613d01565b60408201915081905092915050565b7f496e76616c6964206172746973742061646472657373000000000000000000005f82015250565b5f613da5601683612c6f565b9150613db082613d71565b602082019050919050565b5f6020820190508181035f830152613dd281613d99565b9050919050565b5f60a082019050613dec5f830188612de0565b613df96020830187612de0565b613e066040830186612de0565b613e136060830185612de0565b613e206080830184612de0565b9695505050505050565b5f5ffd5b613e3782612c8d565b810181811067ffffffffffffffff82111715613e5657613e55613a09565b5b80604052505050565b5f613e68612a8d565b9050613e748282613e2e565b919050565b5f67ffffffffffffffff821115613e9357613e92613a09565b5b613e9c82612c8d565b9050602081019050919050565b5f613ebb613eb684613e79565b613e5f565b905082815260208101848484011115613ed757613ed6613e2a565b5b613ee2848285612c7f565b509392505050565b5f82601f830112613efe57613efd61324f565b5b8151613f0e848260208601613ea9565b91505092915050565b5f60208284031215613f2c57613f2b612a96565b5b5f82015167ffffffffffffffff811115613f4957613f48612a9a565b5b613f5584828501613eea565b91505092915050565b7f496e76616c6964206d65746164617461206164647265737300000000000000005f82015250565b5f613f92601883612c6f565b9150613f9d82613f5e565b602082019050919050565b5f6020820190508181035f830152613fbf81613f86565b9050919050565b7f54696d657374616d7020746f6f206c61726765000000000000000000000000005f82015250565b5f613ffa601383612c6f565b915061400582613fc6565b602082019050919050565b5f6020820190508181035f83015261402781613fee565b9050919050565b7f52454349564552204b45595320444f4e54204d415443480000000000000000005f82015250565b5f614062601783612c6f565b915061406d8261402e565b602082019050919050565b5f6020820190508181035f83015261408f81614056565b9050919050565b6140a36101a08383613566565b5050565b5f6102a0820190506140bb5f83018761356f565b6140c860408301866135d9565b6140d560c083018561356f565b6140e3610100830184614096565b9594505050505056fea2646970667358221220fbf9c6762aa336bb23208ef5e911c1965146022082aabf79a79be1f6621cf8e764736f6c634300081b0033",
        "linkReferences": {}
    },
    "methodIdentifiers": {
        "approve(address,uint256)": "095ea7b3",
        "artist()": "43bc1612",
        "balanceOf(address)": "70a08231",
        "getApproved(uint256)": "081812fc",
        "getEncryptedNote(uint256)": "a6402b50",
        "getFlag(uint256)": "95fdc999",
        "getTimestamp(uint256)": "b633620c",
        "getTimestampAndFlag(uint256)": "6d32adb8",
        "isApprovedForAll(address,address)": "e985e9c5",
        "mapLastOwner(uint256)": "3a8016b3",
        "maxNumber()": "3a4f6999",
        "metadata()": "392f37e9",
        "mint(uint256[2],uint256[2][2],uint256[2],uint256[14],address)": "8d379619",
        "name()": "06fdde03",
        "owner()": "8da5cb5b",
        "ownerOf(uint256)": "6352211e",
        "price()": "a035b1fe",
        "reCipher(uint256[2],uint256[2][2],uint256[2],uint256[14],uint256)": "0674b24b",
        "registerPublicKey(uint256,uint256)": "6f494049",
        "returnTokenIdsOfOwner(uint256,uint256,address)": "3c20bbb5",
        "safeTransferFrom(address,address,uint256)": "42842e0e",
        "safeTransferFrom(address,address,uint256,bytes)": "b88d4fde",
        "setApprovalForAll(address,bool)": "a22cb465",
        "setMetadata(address)": "f3cb8385",
        "supportsInterface(bytes4)": "01ffc9a7",
        "symbol()": "95d89b41",
        "tokenIdToNote(uint256)": "c76f5066",
        "tokenIds()": "714cff56",
        "tokenURI(uint256)": "c87b56dd",
        "transferFrom(address,address,uint256)": "23b872dd",
        "transferOwnership(address)": "f2fde38b",
        "updateArtistAddress(address)": "b784c966",
        "updateVerifiers(address,address)": "1fa5ef38",
        "userPublicKeys(address,uint256)": "10eefaf1",
        "verifiedTransferFrom(address,address,uint256,uint256[2],uint256[2][2],uint256[2],uint256[13])": "b18fe840",
        "verifierVersion()": "a3f966a9"
    },
    "id": 30
}