{"abi":[{"type":"constructor","inputs":[{"name":"_ecdhVerifierAddress","type":"address","internalType":"address"},{"name":"_addDataVerifierAddress","type":"address","internalType":"address"}],"stateMutability":"nonpayable"},{"type":"function","name":"approve","inputs":[{"name":"account","type":"address","internalType":"address"},{"name":"id","type":"uint256","internalType":"uint256"}],"outputs":[],"stateMutability":"payable"},{"type":"function","name":"balanceOf","inputs":[{"name":"owner","type":"address","internalType":"address"}],"outputs":[{"name":"result","type":"uint256","internalType":"uint256"}],"stateMutability":"view"},{"type":"function","name":"getApproved","inputs":[{"name":"id","type":"uint256","internalType":"uint256"}],"outputs":[{"name":"result","type":"address","internalType":"address"}],"stateMutability":"view"},{"type":"function","name":"getEncryptedNote","inputs":[{"name":"tokenId","type":"uint256","internalType":"uint256"}],"outputs":[{"name":"a","type":"uint256","internalType":"uint256"},{"name":"b","type":"uint256","internalType":"uint256"},{"name":"c","type":"uint256","internalType":"uint256"},{"name":"d","type":"uint256","internalType":"uint256"},{"name":"timestamp","type":"uint256","internalType":"uint256"},{"name":"flag","type":"bool","internalType":"bool"}],"stateMutability":"view"},{"type":"function","name":"getFlag","inputs":[{"name":"tokenId","type":"uint256","internalType":"uint256"}],"outputs":[{"name":"","type":"bool","internalType":"bool"}],"stateMutability":"view"},{"type":"function","name":"getTimestamp","inputs":[{"name":"tokenId","type":"uint256","internalType":"uint256"}],"outputs":[{"name":"","type":"uint256","internalType":"uint256"}],"stateMutability":"view"},{"type":"function","name":"getTimestampAndFlag","inputs":[{"name":"tokenId","type":"uint256","internalType":"uint256"}],"outputs":[{"name":"timestamp","type":"uint256","internalType":"uint256"},{"name":"flag","type":"bool","internalType":"bool"}],"stateMutability":"view"},{"type":"function","name":"isApprovedForAll","inputs":[{"name":"owner","type":"address","internalType":"address"},{"name":"operator","type":"address","internalType":"address"}],"outputs":[{"name":"result","type":"bool","internalType":"bool"}],"stateMutability":"view"},{"type":"function","name":"mint","inputs":[{"name":"_pA","type":"uint256[2]","internalType":"uint256[2]"},{"name":"_pB","type":"uint256[2][2]","internalType":"uint256[2][2]"},{"name":"_pC","type":"uint256[2]","internalType":"uint256[2]"},{"name":"_pubSignals","type":"uint256[5]","internalType":"uint256[5]"},{"name":"to","type":"address","internalType":"address"}],"outputs":[],"stateMutability":"nonpayable"},{"type":"function","name":"name","inputs":[],"outputs":[{"name":"","type":"string","internalType":"string"}],"stateMutability":"view"},{"type":"function","name":"ownerOf","inputs":[{"name":"id","type":"uint256","internalType":"uint256"}],"outputs":[{"name":"result","type":"address","internalType":"address"}],"stateMutability":"view"},{"type":"function","name":"registerPublicKey","inputs":[{"name":"x","type":"uint256","internalType":"uint256"},{"name":"y","type":"uint256","internalType":"uint256"}],"outputs":[],"stateMutability":"nonpayable"},{"type":"function","name":"safeTransferFrom","inputs":[{"name":"from","type":"address","internalType":"address"},{"name":"to","type":"address","internalType":"address"},{"name":"id","type":"uint256","internalType":"uint256"}],"outputs":[],"stateMutability":"payable"},{"type":"function","name":"safeTransferFrom","inputs":[{"name":"from","type":"address","internalType":"address"},{"name":"to","type":"address","internalType":"address"},{"name":"id","type":"uint256","internalType":"uint256"},{"name":"data","type":"bytes","internalType":"bytes"}],"outputs":[],"stateMutability":"payable"},{"type":"function","name":"setApprovalForAll","inputs":[{"name":"operator","type":"address","internalType":"address"},{"name":"isApproved","type":"bool","internalType":"bool"}],"outputs":[],"stateMutability":"nonpayable"},{"type":"function","name":"supportsInterface","inputs":[{"name":"interfaceId","type":"bytes4","internalType":"bytes4"}],"outputs":[{"name":"result","type":"bool","internalType":"bool"}],"stateMutability":"view"},{"type":"function","name":"symbol","inputs":[],"outputs":[{"name":"","type":"string","internalType":"string"}],"stateMutability":"view"},{"type":"function","name":"tokenIdToNote","inputs":[{"name":"","type":"uint256","internalType":"uint256"}],"outputs":[{"name":"field1","type":"uint256","internalType":"uint256"},{"name":"field2","type":"uint256","internalType":"uint256"},{"name":"field3","type":"uint256","internalType":"uint256"},{"name":"field4","type":"uint256","internalType":"uint256"}],"stateMutability":"view"},{"type":"function","name":"tokenIds","inputs":[],"outputs":[{"name":"","type":"uint256","internalType":"uint256"}],"stateMutability":"view"},{"type":"function","name":"tokenURI","inputs":[{"name":"id","type":"uint256","internalType":"uint256"}],"outputs":[{"name":"","type":"string","internalType":"string"}],"stateMutability":"view"},{"type":"function","name":"transferFrom","inputs":[{"name":"from","type":"address","internalType":"address"},{"name":"to","type":"address","internalType":"address"},{"name":"id","type":"uint256","internalType":"uint256"}],"outputs":[],"stateMutability":"payable"},{"type":"function","name":"userPublicKeys","inputs":[{"name":"","type":"address","internalType":"address"},{"name":"","type":"uint256","internalType":"uint256"}],"outputs":[{"name":"","type":"uint256","internalType":"uint256"}],"stateMutability":"view"},{"type":"function","name":"verifiedTransferFrom","inputs":[{"name":"from","type":"address","internalType":"address"},{"name":"to","type":"address","internalType":"address"},{"name":"id","type":"uint256","internalType":"uint256"},{"name":"_pA","type":"uint256[2]","internalType":"uint256[2]"},{"name":"_pB","type":"uint256[2][2]","internalType":"uint256[2][2]"},{"name":"_pC","type":"uint256[2]","internalType":"uint256[2]"},{"name":"_pubSignals","type":"uint256[11]","internalType":"uint256[11]"}],"outputs":[],"stateMutability":"payable"},{"type":"event","name":"Approval","inputs":[{"name":"owner","type":"address","indexed":true,"internalType":"address"},{"name":"account","type":"address","indexed":true,"internalType":"address"},{"name":"id","type":"uint256","indexed":true,"internalType":"uint256"}],"anonymous":false},{"type":"event","name":"ApprovalForAll","inputs":[{"name":"owner","type":"address","indexed":true,"internalType":"address"},{"name":"operator","type":"address","indexed":true,"internalType":"address"},{"name":"isApproved","type":"bool","indexed":false,"internalType":"bool"}],"anonymous":false},{"type":"event","name":"Transfer","inputs":[{"name":"from","type":"address","indexed":true,"internalType":"address"},{"name":"to","type":"address","indexed":true,"internalType":"address"},{"name":"id","type":"uint256","indexed":true,"internalType":"uint256"}],"anonymous":false},{"type":"error","name":"AccountBalanceOverflow","inputs":[]},{"type":"error","name":"BalanceQueryForZeroAddress","inputs":[]},{"type":"error","name":"NotOwnerNorApproved","inputs":[]},{"type":"error","name":"TokenAlreadyExists","inputs":[]},{"type":"error","name":"TokenDoesNotExist","inputs":[]},{"type":"error","name":"TransferFromIncorrectOwner","inputs":[]},{"type":"error","name":"TransferToNonERC721ReceiverImplementer","inputs":[]},{"type":"error","name":"TransferToZeroAddress","inputs":[]}],"bytecode":{"object":"0x608060405234801561001057600080fd5b506040516115b53803806115b583398101604081905261002f9161007c565b600080546001600160a01b039384166001600160a01b031991821617909155600180549290931691161790556100af565b80516001600160a01b038116811461007757600080fd5b919050565b6000806040838503121561008f57600080fd5b61009883610060565b91506100a660208401610060565b90509250929050565b6114f7806100be6000396000f3fe6080604052600436106101405760003560e01c8063714cff56116100b6578063b633620c1161006f578063b633620c146103f6578063b88d4fde14610416578063c76f506614610429578063c87b56dd1461048d578063e300357e146104d0578063e985e9c5146104e357600080fd5b8063714cff561461030557806395d89b411461031b57806395fdc99914610347578063a22cb46514610367578063a6402b5014610387578063a728776d146103d657600080fd5b806323b872dd1161010857806323b872dd1461024a57806342842e0e1461025d5780636352211e146102705780636d32adb8146102905780636f494049146102c557806370a08231146102e557600080fd5b806301ffc9a71461014557806306fdde0314610197578063081812fc146101cf578063095ea7b31461020757806310eefaf11461021c575b600080fd5b34801561015157600080fd5b50610182610160366004611006565b6301ffc9a760e09190911c9081146380ac58cd821417635b5e139f9091141790565b60405190151581526020015b60405180910390f35b3480156101a357600080fd5b5060408051808201909152600681526521a4a82422a960d11b60208201525b60405161018e9190611037565b3480156101db57600080fd5b506101ef6101ea366004611086565b610519565b6040516001600160a01b03909116815260200161018e565b61021a6102153660046110b6565b610558565b005b34801561022857600080fd5b5061023c6102373660046110b6565b610567565b60405190815260200161018e565b61021a6102583660046110e0565b61058c565b61021a61026b3660046110e0565b6105d9565b34801561027c57600080fd5b506101ef61028b366004611086565b61060b565b34801561029c57600080fd5b506102b06102ab366004611086565b610649565b6040805192835290151560208301520161018e565b3480156102d157600080fd5b5061021a6102e036600461111c565b61069e565b3480156102f157600080fd5b5061023c61030036600461113e565b6106ce565b34801561031157600080fd5b5061023c60045481565b34801561032757600080fd5b5060408051808201909152600381526204349560ec1b60208201526101c2565b34801561035357600080fd5b50610182610362366004611086565b610709565b34801561037357600080fd5b5061021a61038236600461116a565b61074a565b34801561039357600080fd5b506103a76103a2366004611086565b6107a0565b6040805196875260208701959095529385019290925260608401526080830152151560a082015260c00161018e565b3480156103e257600080fd5b5061021a6103f13660046111c9565b6107ea565b34801561040257600080fd5b5061023c610411366004611086565b6108c2565b61021a61042436600461123b565b610909565b34801561043557600080fd5b5061046d610444366004611086565b600360208190526000918252604090912080546001820154600283015492909301549092919084565b60408051948552602085019390935291830152606082015260800161018e565b34801561049957600080fd5b506101c26104a8366004611086565b5060408051808201909152600d81526c656d70747920666f72206e6f7760981b602082015290565b61021a6104de3660046112d6565b610964565b3480156104ef57600080fd5b506101826104fe366004611364565b601c52670a5a2e7a000000006008526000526030600c205490565b600081600052673ec412a9852d173d60c11b601c52602060002082018201805460601b61054e5763ceea21b66000526004601cfd5b6001015492915050565b610563338383610987565b5050565b6002602052816000526040600020816002811061058357600080fd5b01549150829050565b60405162461bcd60e51b815260206004820181905260248201527f5573652076657269666965645472616e7366657246726f6d20696e737465616460448201526064015b60405180910390fd5b6105e483838361058c565b813b156106065761060683838360405180602001604052806000815250610a28565b505050565b6000818152673ec412a9852d173d60c11b601c526020902081018101546001600160a01b0316806106445763ceea21b66000526004601cfd5b919050565b60008061065583610aac565b6106715760405162461bcd60e51b81526004016105d090611397565b600061067c84610ad0565b6b7fffffffffffffffffffffff8116956001605f1b9091161515945092505050565b60408051808201825283815260208082018490523360009081526002918290529290922061060692909190610fb3565b6000816106e357638f4eb6046000526004601cfd5b673ec412a9852d173d60c11b601c528160005263ffffffff601c600c2054169050919050565b600061071482610aac565b6107305760405162461bcd60e51b81526004016105d090611397565b600061073b83610ad0565b6001605f1b1615159392505050565b801515905081601c52670a5a2e7a0000000060085233600052806030600c2055806000528160601b60601c337f17307eab39ab6107e8899845ad3d59bd9653f200f220920489ca2b5937696c3160206000a35050565b6000806000806000806000806107b589610649565b60009a8b52600360208190526040909b2080546001820154600283015492909d0154909d919b50995091975095509350505050565b6001546040516334baeab960e01b81526000916001600160a01b0316906334baeab9906108219089908990899089906004016113e9565b602060405180830381865afa15801561083e573d6000803e3d6000fd5b505050506040513d601f19601f82011682018060405250810190610862919061141a565b905080156108ba57600454610878906001611437565b600481905561089e90602085013590604086013590606087013590608088013590610af2565b6108aa82600454610b39565b6004546108ba9084356001610bda565b505050505050565b60006108cd82610aac565b6108e95760405162461bcd60e51b81526004016105d090611397565b60006108f483610ad0565b6b7fffffffffffffffffffffff169392505050565b61091485858561058c565b833b1561095d5761095d85858585858080601f016020809104026020016040519081016040528093929190818152602001838380828437600092019190915250610a2892505050565b5050505050565b61097284848484898b610c62565b5061097e878787610eb3565b50505050505050565b60001960601c828116925083811693508160005283673ec412a9852d173d60c11b17601c52602060002082018201805482169150816109ce5763ceea21b66000526004601cfd5b8185148515176109f457816000526030600c20546109f457634b6e7f186000526004601cfd5b6001018390558183827f8c5be1e5ebec7d5bd14f71427d1e84f3dd0314c0f7b2291e5b200ac8c7c3b925600038a450505050565b60405163150b7a028082523360208301528560601b60601c604083015283606083015260808083015282518060a08401528015610a6f578060c08401826020870160045afa505b60208360a48301601c860160008a5af1610a92573d15610a92573d6000843e3d83fd5b508060e01b8251146108ba5763d1a57ed66000526004601cfd5b6000818152673ec412a9852d173d60c11b601c52602090208101015460601b151590565b6000818152673ec412a9852d173d60c11b601c52602090208101015460a01c90565b604080516080810182529586526020808701958652868201948552606087019384526000928352600390819052912094518555925160018501559051600284015551910155565b8160601b60601c915080600052673ec412a9852d173d60c11b601c5260206000208101810180548060601b15610b775763c991cbb16000526004601cfd5b831790556000829052601c600c20805460010163ffffffff81168402610bac5767ea553b3401336cea841560021b526004601cfd5b9055808260007fddf252ad1be2c89b69c2b068fc378daa952ba7f163c4a11628f55a4df523b3ef8138a45050565b6001605f1b8210610c235760405162461bcd60e51b815260206004820152601360248201527254696d657374616d7020746f6f206c6172676560681b60448201526064016105d0565b818115610c31576001605f1b175b6000848152673ec412a9852d173d60c11b601c526020902084018401805460a081811c8418901b1890555b50505050565b60008281526003602052604081205460e085013514610c935760405162461bcd60e51b81526004016105d090611458565b60008381526003602052604090206001015461010085013514610cc85760405162461bcd60e51b81526004016105d090611458565b60008381526003602052604090206002015461012085013514610cfd5760405162461bcd60e51b81526004016105d090611458565b6000838152600360208190526040909120015461014085013514610d335760405162461bcd60e51b81526004016105d090611458565b6001600160a01b038216600090815260026020526040902054843514610d8d5760405162461bcd60e51b815260206004820152600f60248201526e0968ab2a640889e9ca8409a82a8869608b1b60448201526064016105d0565b6001600160a01b0382166000908152600260209081526040909120600101549085013514610def5760405162461bcd60e51b815260206004820152600f60248201526e0968ab2a640889e9ca8409a82a8869608b1b60448201526064016105d0565b6000805460405163b9c6ea8760e01b81526001600160a01b039091169063b9c6ea8790610e26908b908b908b908b9060040161148f565b602060405180830381865afa158015610e43573d6000803e3d6000fd5b505050506040513d601f19601f82011682018060405250810190610e67919061141a565b90508015610ea357610e8c6060860135608087013560a088013560c089013588610af2565b610e9c8460408701356000610bda565b9050610ea9565b60009150505b9695505050505050565b6000818152673ec412a9852d173d60c11b3317601c52602090208101810180546001600160a01b039485169493841693811691908286148302610f055767ceea21b6a1148100831560021b526004601cfd5b856000528160010154925082331486331417610f33576030600c2054610f3357634b6e7f186000526004601cfd5b8215610f4157600082600101555b85851818905550601c600c8181208054600019019055600084905220805460010163ffffffff81168402610f845767ea553b3401336cea841560021b526004601cfd5b90558082847fddf252ad1be2c89b69c2b068fc378daa952ba7f163c4a11628f55a4df523b3ef600038a4505050565b8260028101928215610fe1579160200282015b82811115610fe1578251825591602001919060010190610fc6565b50610fed929150610ff1565b5090565b5b80821115610fed5760008155600101610ff2565b60006020828403121561101857600080fd5b81356001600160e01b03198116811461103057600080fd5b9392505050565b60006020808352835180602085015260005b8181101561106557858101830151858201604001528201611049565b506000604082860101526040601f19601f8301168501019250505092915050565b60006020828403121561109857600080fd5b5035919050565b80356001600160a01b038116811461064457600080fd5b600080604083850312156110c957600080fd5b6110d28361109f565b946020939093013593505050565b6000806000606084860312156110f557600080fd5b6110fe8461109f565b925061110c6020850161109f565b9150604084013590509250925092565b6000806040838503121561112f57600080fd5b50508035926020909101359150565b60006020828403121561115057600080fd5b6110308261109f565b801515811461116757600080fd5b50565b6000806040838503121561117d57600080fd5b6111868361109f565b9150602083013561119681611159565b809150509250929050565b80604081018310156111b257600080fd5b92915050565b80608081018310156111b257600080fd5b60008060008060006101c086880312156111e257600080fd5b6111ec87876111a1565b94506111fb87604088016111b8565b935061120a8760c088016111a1565b92506101a086018781111561121e57600080fd5b6101008701925061122e8161109f565b9150509295509295909350565b60008060008060006080868803121561125357600080fd5b61125c8661109f565b945061126a6020870161109f565b935060408601359250606086013567ffffffffffffffff8082111561128e57600080fd5b818801915088601f8301126112a257600080fd5b8135818111156112b157600080fd5b8960208285010111156112c357600080fd5b9699959850939650602001949392505050565b60008060008060008060006102c080898b0312156112f357600080fd5b6112fc8961109f565b975061130a60208a0161109f565b9650604089013595506113208a60608b016111a1565b945061132f8a60a08b016111b8565b935061133f8a6101208b016111a1565b925089818a01111561135057600080fd5b506101608801905092959891949750929550565b6000806040838503121561137757600080fd5b6113808361109f565b915061138e6020840161109f565b90509250929050565b602080825260149082015273151bdad95b88191bd95cc81b9bdd08195e1a5cdd60621b604082015260600190565b8060005b6002811015610c5c576040808386379384019391909101906001016113c9565b6101a08101604086833761140060408301866113c5565b60408460c084013760a08361010084013795945050505050565b60006020828403121561142c57600080fd5b815161103081611159565b808201808211156111b257634e487b7160e01b600052601160045260246000fd5b6020808252601f908201527f4f4c4420454e43525950544544204441544120444f53454e54204d4154434800604082015260600190565b610260810160408683376114a660408301866113c5565b60408460c0840137610160836101008401379594505050505056fea2646970667358221220a8b11a541d65f3e585c987da78ab7de6fc340d4413c91d7ba2631dfc53f22cba64736f6c63430008180033","linkReferences":{}},"methodIdentifiers":{"approve(address,uint256)":"095ea7b3","balanceOf(address)":"70a08231","getApproved(uint256)":"081812fc","getEncryptedNote(uint256)":"a6402b50","getFlag(uint256)":"95fdc999","getTimestamp(uint256)":"b633620c","getTimestampAndFlag(uint256)":"6d32adb8","isApprovedForAll(address,address)":"e985e9c5","mint(uint256[2],uint256[2][2],uint256[2],uint256[5],address)":"a728776d","name()":"06fdde03","ownerOf(uint256)":"6352211e","registerPublicKey(uint256,uint256)":"6f494049","safeTransferFrom(address,address,uint256)":"42842e0e","safeTransferFrom(address,address,uint256,bytes)":"b88d4fde","setApprovalForAll(address,bool)":"a22cb465","supportsInterface(bytes4)":"01ffc9a7","symbol()":"95d89b41","tokenIdToNote(uint256)":"c76f5066","tokenIds()":"714cff56","tokenURI(uint256)":"c87b56dd","transferFrom(address,address,uint256)":"23b872dd","userPublicKeys(address,uint256)":"10eefaf1","verifiedTransferFrom(address,address,uint256,uint256[2],uint256[2][2],uint256[2],uint256[11])":"e300357e"},"id":26}