{
    "abi": [
        {
            "type": "constructor",
            "inputs": [
                {
                    "name": "_ecdhVerifierAddress",
                    "type": "address",
                    "internalType": "address"
                },
                {
                    "name": "_addDataVerifierAddress",
                    "type": "address",
                    "internalType": "address"
                }
            ],
            "stateMutability": "nonpayable"
        },
        {
            "type": "function",
            "name": "approve",
            "inputs": [
                {
                    "name": "account",
                    "type": "address",
                    "internalType": "address"
                },
                {
                    "name": "id",
                    "type": "uint256",
                    "internalType": "uint256"
                }
            ],
            "outputs": [],
            "stateMutability": "payable"
        },
        {
            "type": "function",
            "name": "balanceOf",
            "inputs": [
                {
                    "name": "owner",
                    "type": "address",
                    "internalType": "address"
                }
            ],
            "outputs": [
                {
                    "name": "result",
                    "type": "uint256",
                    "internalType": "uint256"
                }
            ],
            "stateMutability": "view"
        },
        {
            "type": "function",
            "name": "getApproved",
            "inputs": [
                {
                    "name": "id",
                    "type": "uint256",
                    "internalType": "uint256"
                }
            ],
            "outputs": [
                {
                    "name": "result",
                    "type": "address",
                    "internalType": "address"
                }
            ],
            "stateMutability": "view"
        },
        {
            "type": "function",
            "name": "getEncryptedNote",
            "inputs": [
                {
                    "name": "tokenId",
                    "type": "uint256",
                    "internalType": "uint256"
                }
            ],
            "outputs": [
                {
                    "name": "a",
                    "type": "uint256",
                    "internalType": "uint256"
                },
                {
                    "name": "b",
                    "type": "uint256",
                    "internalType": "uint256"
                },
                {
                    "name": "c",
                    "type": "uint256",
                    "internalType": "uint256"
                },
                {
                    "name": "d",
                    "type": "uint256",
                    "internalType": "uint256"
                },
                {
                    "name": "timestamp",
                    "type": "uint256",
                    "internalType": "uint256"
                },
                {
                    "name": "flag",
                    "type": "bool",
                    "internalType": "bool"
                }
            ],
            "stateMutability": "view"
        },
        {
            "type": "function",
            "name": "getFlag",
            "inputs": [
                {
                    "name": "tokenId",
                    "type": "uint256",
                    "internalType": "uint256"
                }
            ],
            "outputs": [
                {
                    "name": "",
                    "type": "bool",
                    "internalType": "bool"
                }
            ],
            "stateMutability": "view"
        },
        {
            "type": "function",
            "name": "getTimestamp",
            "inputs": [
                {
                    "name": "tokenId",
                    "type": "uint256",
                    "internalType": "uint256"
                }
            ],
            "outputs": [
                {
                    "name": "",
                    "type": "uint256",
                    "internalType": "uint256"
                }
            ],
            "stateMutability": "view"
        },
        {
            "type": "function",
            "name": "getTimestampAndFlag",
            "inputs": [
                {
                    "name": "tokenId",
                    "type": "uint256",
                    "internalType": "uint256"
                }
            ],
            "outputs": [
                {
                    "name": "timestamp",
                    "type": "uint256",
                    "internalType": "uint256"
                },
                {
                    "name": "flag",
                    "type": "bool",
                    "internalType": "bool"
                }
            ],
            "stateMutability": "view"
        },
        {
            "type": "function",
            "name": "isApprovedForAll",
            "inputs": [
                {
                    "name": "owner",
                    "type": "address",
                    "internalType": "address"
                },
                {
                    "name": "operator",
                    "type": "address",
                    "internalType": "address"
                }
            ],
            "outputs": [
                {
                    "name": "result",
                    "type": "bool",
                    "internalType": "bool"
                }
            ],
            "stateMutability": "view"
        },
        {
            "type": "function",
            "name": "mapLastOwner",
            "inputs": [
                {
                    "name": "",
                    "type": "uint256",
                    "internalType": "uint256"
                }
            ],
            "outputs": [
                {
                    "name": "",
                    "type": "address",
                    "internalType": "address"
                }
            ],
            "stateMutability": "view"
        },
        {
            "type": "function",
            "name": "mint",
            "inputs": [
                {
                    "name": "_pA",
                    "type": "uint256[2]",
                    "internalType": "uint256[2]"
                },
                {
                    "name": "_pB",
                    "type": "uint256[2][2]",
                    "internalType": "uint256[2][2]"
                },
                {
                    "name": "_pC",
                    "type": "uint256[2]",
                    "internalType": "uint256[2]"
                },
                {
                    "name": "_pubSignals",
                    "type": "uint256[5]",
                    "internalType": "uint256[5]"
                },
                {
                    "name": "to",
                    "type": "address",
                    "internalType": "address"
                }
            ],
            "outputs": [],
            "stateMutability": "nonpayable"
        },
        {
            "type": "function",
            "name": "name",
            "inputs": [],
            "outputs": [
                {
                    "name": "",
                    "type": "string",
                    "internalType": "string"
                }
            ],
            "stateMutability": "view"
        },
        {
            "type": "function",
            "name": "ownerOf",
            "inputs": [
                {
                    "name": "id",
                    "type": "uint256",
                    "internalType": "uint256"
                }
            ],
            "outputs": [
                {
                    "name": "result",
                    "type": "address",
                    "internalType": "address"
                }
            ],
            "stateMutability": "view"
        },
        {
            "type": "function",
            "name": "registerPublicKey",
            "inputs": [
                {
                    "name": "x",
                    "type": "uint256",
                    "internalType": "uint256"
                },
                {
                    "name": "y",
                    "type": "uint256",
                    "internalType": "uint256"
                }
            ],
            "outputs": [],
            "stateMutability": "nonpayable"
        },
        {
            "type": "function",
            "name": "returnTokenIdsOfOwner",
            "inputs": [
                {
                    "name": "start",
                    "type": "uint256",
                    "internalType": "uint256"
                },
                {
                    "name": "end",
                    "type": "uint256",
                    "internalType": "uint256"
                },
                {
                    "name": "owner",
                    "type": "address",
                    "internalType": "address"
                }
            ],
            "outputs": [
                {
                    "name": "",
                    "type": "uint256[]",
                    "internalType": "uint256[]"
                }
            ],
            "stateMutability": "view"
        },
        {
            "type": "function",
            "name": "safeTransferFrom",
            "inputs": [
                {
                    "name": "from",
                    "type": "address",
                    "internalType": "address"
                },
                {
                    "name": "to",
                    "type": "address",
                    "internalType": "address"
                },
                {
                    "name": "id",
                    "type": "uint256",
                    "internalType": "uint256"
                }
            ],
            "outputs": [],
            "stateMutability": "payable"
        },
        {
            "type": "function",
            "name": "safeTransferFrom",
            "inputs": [
                {
                    "name": "from",
                    "type": "address",
                    "internalType": "address"
                },
                {
                    "name": "to",
                    "type": "address",
                    "internalType": "address"
                },
                {
                    "name": "id",
                    "type": "uint256",
                    "internalType": "uint256"
                },
                {
                    "name": "data",
                    "type": "bytes",
                    "internalType": "bytes"
                }
            ],
            "outputs": [],
            "stateMutability": "payable"
        },
        {
            "type": "function",
            "name": "setApprovalForAll",
            "inputs": [
                {
                    "name": "operator",
                    "type": "address",
                    "internalType": "address"
                },
                {
                    "name": "isApproved",
                    "type": "bool",
                    "internalType": "bool"
                }
            ],
            "outputs": [],
            "stateMutability": "nonpayable"
        },
        {
            "type": "function",
            "name": "supportsInterface",
            "inputs": [
                {
                    "name": "interfaceId",
                    "type": "bytes4",
                    "internalType": "bytes4"
                }
            ],
            "outputs": [
                {
                    "name": "result",
                    "type": "bool",
                    "internalType": "bool"
                }
            ],
            "stateMutability": "view"
        },
        {
            "type": "function",
            "name": "symbol",
            "inputs": [],
            "outputs": [
                {
                    "name": "",
                    "type": "string",
                    "internalType": "string"
                }
            ],
            "stateMutability": "view"
        },
        {
            "type": "function",
            "name": "tokenIdToNote",
            "inputs": [
                {
                    "name": "",
                    "type": "uint256",
                    "internalType": "uint256"
                }
            ],
            "outputs": [
                {
                    "name": "field1",
                    "type": "uint256",
                    "internalType": "uint256"
                },
                {
                    "name": "field2",
                    "type": "uint256",
                    "internalType": "uint256"
                },
                {
                    "name": "field3",
                    "type": "uint256",
                    "internalType": "uint256"
                },
                {
                    "name": "field4",
                    "type": "uint256",
                    "internalType": "uint256"
                }
            ],
            "stateMutability": "view"
        },
        {
            "type": "function",
            "name": "tokenIds",
            "inputs": [],
            "outputs": [
                {
                    "name": "",
                    "type": "uint256",
                    "internalType": "uint256"
                }
            ],
            "stateMutability": "view"
        },
        {
            "type": "function",
            "name": "tokenURI",
            "inputs": [
                {
                    "name": "id",
                    "type": "uint256",
                    "internalType": "uint256"
                }
            ],
            "outputs": [
                {
                    "name": "",
                    "type": "string",
                    "internalType": "string"
                }
            ],
            "stateMutability": "view"
        },
        {
            "type": "function",
            "name": "transferFrom",
            "inputs": [
                {
                    "name": "from",
                    "type": "address",
                    "internalType": "address"
                },
                {
                    "name": "to",
                    "type": "address",
                    "internalType": "address"
                },
                {
                    "name": "id",
                    "type": "uint256",
                    "internalType": "uint256"
                }
            ],
            "outputs": [],
            "stateMutability": "payable"
        },
        {
            "type": "function",
            "name": "userPublicKeys",
            "inputs": [
                {
                    "name": "",
                    "type": "address",
                    "internalType": "address"
                },
                {
                    "name": "",
                    "type": "uint256",
                    "internalType": "uint256"
                }
            ],
            "outputs": [
                {
                    "name": "",
                    "type": "uint256",
                    "internalType": "uint256"
                }
            ],
            "stateMutability": "view"
        },
        {
            "type": "function",
            "name": "verifiedTransferFrom",
            "inputs": [
                {
                    "name": "from",
                    "type": "address",
                    "internalType": "address"
                },
                {
                    "name": "to",
                    "type": "address",
                    "internalType": "address"
                },
                {
                    "name": "id",
                    "type": "uint256",
                    "internalType": "uint256"
                },
                {
                    "name": "_pA",
                    "type": "uint256[2]",
                    "internalType": "uint256[2]"
                },
                {
                    "name": "_pB",
                    "type": "uint256[2][2]",
                    "internalType": "uint256[2][2]"
                },
                {
                    "name": "_pC",
                    "type": "uint256[2]",
                    "internalType": "uint256[2]"
                },
                {
                    "name": "_pubSignals",
                    "type": "uint256[11]",
                    "internalType": "uint256[11]"
                }
            ],
            "outputs": [],
            "stateMutability": "payable"
        },
        {
            "type": "event",
            "name": "Approval",
            "inputs": [
                {
                    "name": "owner",
                    "type": "address",
                    "indexed": true,
                    "internalType": "address"
                },
                {
                    "name": "account",
                    "type": "address",
                    "indexed": true,
                    "internalType": "address"
                },
                {
                    "name": "id",
                    "type": "uint256",
                    "indexed": true,
                    "internalType": "uint256"
                }
            ],
            "anonymous": false
        },
        {
            "type": "event",
            "name": "ApprovalForAll",
            "inputs": [
                {
                    "name": "owner",
                    "type": "address",
                    "indexed": true,
                    "internalType": "address"
                },
                {
                    "name": "operator",
                    "type": "address",
                    "indexed": true,
                    "internalType": "address"
                },
                {
                    "name": "isApproved",
                    "type": "bool",
                    "indexed": false,
                    "internalType": "bool"
                }
            ],
            "anonymous": false
        },
        {
            "type": "event",
            "name": "Transfer",
            "inputs": [
                {
                    "name": "from",
                    "type": "address",
                    "indexed": true,
                    "internalType": "address"
                },
                {
                    "name": "to",
                    "type": "address",
                    "indexed": true,
                    "internalType": "address"
                },
                {
                    "name": "id",
                    "type": "uint256",
                    "indexed": true,
                    "internalType": "uint256"
                }
            ],
            "anonymous": false
        },
        {
            "type": "error",
            "name": "AccountBalanceOverflow",
            "inputs": []
        },
        {
            "type": "error",
            "name": "BalanceQueryForZeroAddress",
            "inputs": []
        },
        {
            "type": "error",
            "name": "NotOwnerNorApproved",
            "inputs": []
        },
        {
            "type": "error",
            "name": "TokenAlreadyExists",
            "inputs": []
        },
        {
            "type": "error",
            "name": "TokenDoesNotExist",
            "inputs": []
        },
        {
            "type": "error",
            "name": "TransferFromIncorrectOwner",
            "inputs": []
        },
        {
            "type": "error",
            "name": "TransferToNonERC721ReceiverImplementer",
            "inputs": []
        },
        {
            "type": "error",
            "name": "TransferToZeroAddress",
            "inputs": []
        }
    ],
    "bytecode": {
        "object": "0x608060405234801561001057600080fd5b506040516200183d3803806200183d8339810160408190526100319161007e565b600080546001600160a01b039384166001600160a01b031991821617909155600180549290931691161790556100b1565b80516001600160a01b038116811461007957600080fd5b919050565b6000806040838503121561009157600080fd5b61009a83610062565b91506100a860208401610062565b90509250929050565b61177c80620000c16000396000f3fe6080604052600436106101665760003560e01c806370a08231116100d1578063a728776d1161008a578063c76f506611610064578063c76f5066146104b2578063c87b56dd14610516578063e300357e14610559578063e985e9c51461056c57600080fd5b8063a728776d1461045f578063b633620c1461047f578063b88d4fde1461049f57600080fd5b806370a082311461036e578063714cff561461038e57806395d89b41146103a457806395fdc999146103d0578063a22cb465146103f0578063a6402b501461041057600080fd5b80633a8016b3116101235780633a8016b3146102835780633c20bbb5146102b957806342842e0e146102e65780636352211e146102f95780636d32adb8146103195780636f4940491461034e57600080fd5b806301ffc9a71461016b57806306fdde03146101bd578063081812fc146101f5578063095ea7b31461022d57806310eefaf11461024257806323b872dd14610270575b600080fd5b34801561017757600080fd5b506101a86101863660046111cb565b6301ffc9a760e09190911c9081146380ac58cd821417635b5e139f9091141790565b60405190151581526020015b60405180910390f35b3480156101c957600080fd5b5060408051808201909152600681526521a4a82422a960d11b60208201525b6040516101b491906111fc565b34801561020157600080fd5b5061021561021036600461124b565b6105a2565b6040516001600160a01b0390911681526020016101b4565b61024061023b36600461127b565b6105e1565b005b34801561024e57600080fd5b5061026261025d36600461127b565b6105f0565b6040519081526020016101b4565b61024061027e3660046112a5565b610615565b34801561028f57600080fd5b5061021561029e36600461124b565b6004602052600090815260409020546001600160a01b031681565b3480156102c557600080fd5b506102d96102d43660046112e1565b610662565b6040516101b49190611316565b6102406102f43660046112a5565b610773565b34801561030557600080fd5b5061021561031436600461124b565b6107a5565b34801561032557600080fd5b5061033961033436600461124b565b6107e3565b604080519283529015156020830152016101b4565b34801561035a57600080fd5b5061024061036936600461135a565b610838565b34801561037a57600080fd5b5061026261038936600461137c565b610868565b34801561039a57600080fd5b5061026260055481565b3480156103b057600080fd5b5060408051808201909152600381526204349560ec1b60208201526101e8565b3480156103dc57600080fd5b506101a86103eb36600461124b565b6108a3565b3480156103fc57600080fd5b5061024061040b3660046113a8565b6108e4565b34801561041c57600080fd5b5061043061042b36600461124b565b61093a565b6040805196875260208701959095529385019290925260608401526080830152151560a082015260c0016101b4565b34801561046b57600080fd5b5061024061047a366004611407565b610984565b34801561048b57600080fd5b5061026261049a36600461124b565b610a5c565b6102406104ad366004611479565b610aa3565b3480156104be57600080fd5b506104f66104cd36600461124b565b600360208190526000918252604090912080546001820154600283015492909301549092919084565b6040805194855260208501939093529183015260608201526080016101b4565b34801561052257600080fd5b506101e861053136600461124b565b5060408051808201909152600d81526c656d70747920666f72206e6f7760981b602082015290565b610240610567366004611514565b610afe565b34801561057857600080fd5b506101a86105873660046115a2565b601c52670a5a2e7a000000006008526000526030600c205490565b600081600052673ec412a9852d173d60c11b601c52602060002082018201805460601b6105d75763ceea21b66000526004601cfd5b6001015492915050565b6105ec338383610b4c565b5050565b6002602052816000526040600020816002811061060c57600080fd5b01549150829050565b60405162461bcd60e51b815260206004820181905260248201527f5573652076657269666965645472616e7366657246726f6d20696e737465616460448201526064015b60405180910390fd5b60608284106106a15760405162461bcd60e51b815260206004820152600b60248201526a115391080f8814d510549560aa1b6044820152606401610659565b60006106ad85856115eb565b67ffffffffffffffff8111156106c5576106c56115fe565b6040519080825280602002602001820160405280156106ee578160200160208202803683370190505b50905060005b848610156107695761070586610bed565b1561075757836001600160a01b031661071d876107a5565b6001600160a01b031603610757578582828151811061073e5761073e611614565b602090810291909101015261075481600161162a565b90505b61076286600161162a565b95506106f4565b8152949350505050565b61077e838383610615565b813b156107a0576107a083838360405180602001604052806000815250610c11565b505050565b6000818152673ec412a9852d173d60c11b601c526020902081018101546001600160a01b0316806107de5763ceea21b66000526004601cfd5b919050565b6000806107ef83610bed565b61080b5760405162461bcd60e51b81526004016106599061163d565b600061081684610c95565b6b7fffffffffffffffffffffff8116956001605f1b9091161515945092505050565b6040805180820182528381526020808201849052336000908152600291829052929092206107a092909190611178565b60008161087d57638f4eb6046000526004601cfd5b673ec412a9852d173d60c11b601c528160005263ffffffff601c600c2054169050919050565b60006108ae82610bed565b6108ca5760405162461bcd60e51b81526004016106599061163d565b60006108d583610c95565b6001605f1b1615159392505050565b801515905081601c52670a5a2e7a0000000060085233600052806030600c2055806000528160601b60601c337f17307eab39ab6107e8899845ad3d59bd9653f200f220920489ca2b5937696c3160206000a35050565b60008060008060008060008061094f896107e3565b60009a8b52600360208190526040909b2080546001820154600283015492909d0154909d919b50995091975095509350505050565b6001546040516334baeab960e01b81526000916001600160a01b0316906334baeab9906109bb90899089908990899060040161168f565b602060405180830381865afa1580156109d8573d6000803e3d6000fd5b505050506040513d601f19601f820116820180604052508101906109fc91906116c0565b90508015610a5457600554610a1290600161162a565b6005819055610a3890602085013590604086013590606087013590608088013590610cb7565b610a4482600554610cfe565b600554610a549084356001610d9f565b505050505050565b6000610a6782610bed565b610a835760405162461bcd60e51b81526004016106599061163d565b6000610a8e83610c95565b6b7fffffffffffffffffffffff169392505050565b610aae858585610615565b833b15610af757610af785858585858080601f016020809104026020016040519081016040528093929190818152602001838380828437600092019190915250610c1192505050565b5050505050565b610b0c84848484898b610e27565b50610b18878787611078565b50505060009182525060046020526040902080546001600160a01b0319166001600160a01b03939093169290921790915550565b60001960601c828116925083811693508160005283673ec412a9852d173d60c11b17601c5260206000208201820180548216915081610b935763ceea21b66000526004601cfd5b818514851517610bb957816000526030600c2054610bb957634b6e7f186000526004601cfd5b6001018390558183827f8c5be1e5ebec7d5bd14f71427d1e84f3dd0314c0f7b2291e5b200ac8c7c3b925600038a450505050565b6000818152673ec412a9852d173d60c11b601c52602090208101015460601b151590565b60405163150b7a028082523360208301528560601b60601c604083015283606083015260808083015282518060a08401528015610c58578060c08401826020870160045afa505b60208360a48301601c860160008a5af1610c7b573d15610c7b573d6000843e3d83fd5b508060e01b825114610a545763d1a57ed66000526004601cfd5b6000818152673ec412a9852d173d60c11b601c52602090208101015460a01c90565b604080516080810182529586526020808701958652868201948552606087019384526000928352600390819052912094518555925160018501559051600284015551910155565b8160601b60601c915080600052673ec412a9852d173d60c11b601c5260206000208101810180548060601b15610d3c5763c991cbb16000526004601cfd5b831790556000829052601c600c20805460010163ffffffff81168402610d715767ea553b3401336cea841560021b526004601cfd5b9055808260007fddf252ad1be2c89b69c2b068fc378daa952ba7f163c4a11628f55a4df523b3ef8138a45050565b6001605f1b8210610de85760405162461bcd60e51b815260206004820152601360248201527254696d657374616d7020746f6f206c6172676560681b6044820152606401610659565b818115610df6576001605f1b175b6000848152673ec412a9852d173d60c11b601c526020902084018401805460a081811c8418901b1890555b50505050565b60008281526003602052604081205460e085013514610e585760405162461bcd60e51b8152600401610659906116dd565b60008381526003602052604090206001015461010085013514610e8d5760405162461bcd60e51b8152600401610659906116dd565b60008381526003602052604090206002015461012085013514610ec25760405162461bcd60e51b8152600401610659906116dd565b6000838152600360208190526040909120015461014085013514610ef85760405162461bcd60e51b8152600401610659906116dd565b6001600160a01b038216600090815260026020526040902054843514610f525760405162461bcd60e51b815260206004820152600f60248201526e0968ab2a640889e9ca8409a82a8869608b1b6044820152606401610659565b6001600160a01b0382166000908152600260209081526040909120600101549085013514610fb45760405162461bcd60e51b815260206004820152600f60248201526e0968ab2a640889e9ca8409a82a8869608b1b6044820152606401610659565b6000805460405163b9c6ea8760e01b81526001600160a01b039091169063b9c6ea8790610feb908b908b908b908b90600401611714565b602060405180830381865afa158015611008573d6000803e3d6000fd5b505050506040513d601f19601f8201168201806040525081019061102c91906116c0565b90508015611068576110516060860135608087013560a088013560c089013588610cb7565b6110618460408701356000610d9f565b905061106e565b60009150505b9695505050505050565b6000818152673ec412a9852d173d60c11b3317601c52602090208101810180546001600160a01b0394851694938416938116919082861483026110ca5767ceea21b6a1148100831560021b526004601cfd5b8560005281600101549250823314863314176110f8576030600c20546110f857634b6e7f186000526004601cfd5b821561110657600082600101555b85851818905550601c600c8181208054600019019055600084905220805460010163ffffffff811684026111495767ea553b3401336cea841560021b526004601cfd5b90558082847fddf252ad1be2c89b69c2b068fc378daa952ba7f163c4a11628f55a4df523b3ef600038a4505050565b82600281019282156111a6579160200282015b828111156111a657825182559160200191906001019061118b565b506111b29291506111b6565b5090565b5b808211156111b257600081556001016111b7565b6000602082840312156111dd57600080fd5b81356001600160e01b0319811681146111f557600080fd5b9392505050565b60006020808352835180602085015260005b8181101561122a5785810183015185820160400152820161120e565b506000604082860101526040601f19601f8301168501019250505092915050565b60006020828403121561125d57600080fd5b5035919050565b80356001600160a01b03811681146107de57600080fd5b6000806040838503121561128e57600080fd5b61129783611264565b946020939093013593505050565b6000806000606084860312156112ba57600080fd5b6112c384611264565b92506112d160208501611264565b9150604084013590509250925092565b6000806000606084860312156112f657600080fd5b833592506020840135915061130d60408501611264565b90509250925092565b6020808252825182820181905260009190848201906040850190845b8181101561134e57835183529284019291840191600101611332565b50909695505050505050565b6000806040838503121561136d57600080fd5b50508035926020909101359150565b60006020828403121561138e57600080fd5b6111f582611264565b80151581146113a557600080fd5b50565b600080604083850312156113bb57600080fd5b6113c483611264565b915060208301356113d481611397565b809150509250929050565b80604081018310156113f057600080fd5b92915050565b80608081018310156113f057600080fd5b60008060008060006101c0868803121561142057600080fd5b61142a87876113df565b945061143987604088016113f6565b93506114488760c088016113df565b92506101a086018781111561145c57600080fd5b6101008701925061146c81611264565b9150509295509295909350565b60008060008060006080868803121561149157600080fd5b61149a86611264565b94506114a860208701611264565b935060408601359250606086013567ffffffffffffffff808211156114cc57600080fd5b818801915088601f8301126114e057600080fd5b8135818111156114ef57600080fd5b89602082850101111561150157600080fd5b9699959850939650602001949392505050565b60008060008060008060006102c080898b03121561153157600080fd5b61153a89611264565b975061154860208a01611264565b96506040890135955061155e8a60608b016113df565b945061156d8a60a08b016113f6565b935061157d8a6101208b016113df565b925089818a01111561158e57600080fd5b506101608801905092959891949750929550565b600080604083850312156115b557600080fd5b6115be83611264565b91506115cc60208401611264565b90509250929050565b634e487b7160e01b600052601160045260246000fd5b818103818111156113f0576113f06115d5565b634e487b7160e01b600052604160045260246000fd5b634e487b7160e01b600052603260045260246000fd5b808201808211156113f0576113f06115d5565b602080825260149082015273151bdad95b88191bd95cc81b9bdd08195e1a5cdd60621b604082015260600190565b8060005b6002811015610e215760408083863793840193919091019060010161166f565b6101a0810160408683376116a6604083018661166b565b60408460c084013760a08361010084013795945050505050565b6000602082840312156116d257600080fd5b81516111f581611397565b6020808252601f908201527f4f4c4420454e43525950544544204441544120444f53454e54204d4154434800604082015260600190565b6102608101604086833761172b604083018661166b565b60408460c0840137610160836101008401379594505050505056fea26469706673582212200125bb9d0a156a4a2ae711d56b9102d4ea2ba815c83a1853f683139b9d15d8ff64736f6c63430008180033",
        "linkReferences": {}
    },
    "methodIdentifiers": {
        "approve(address,uint256)": "095ea7b3",
        "balanceOf(address)": "70a08231",
        "getApproved(uint256)": "081812fc",
        "getEncryptedNote(uint256)": "a6402b50",
        "getFlag(uint256)": "95fdc999",
        "getTimestamp(uint256)": "b633620c",
        "getTimestampAndFlag(uint256)": "6d32adb8",
        "isApprovedForAll(address,address)": "e985e9c5",
        "mapLastOwner(uint256)": "3a8016b3",
        "mint(uint256[2],uint256[2][2],uint256[2],uint256[5],address)": "a728776d",
        "name()": "06fdde03",
        "ownerOf(uint256)": "6352211e",
        "registerPublicKey(uint256,uint256)": "6f494049",
        "returnTokenIdsOfOwner(uint256,uint256,address)": "3c20bbb5",
        "safeTransferFrom(address,address,uint256)": "42842e0e",
        "safeTransferFrom(address,address,uint256,bytes)": "b88d4fde",
        "setApprovalForAll(address,bool)": "a22cb465",
        "supportsInterface(bytes4)": "01ffc9a7",
        "symbol()": "95d89b41",
        "tokenIdToNote(uint256)": "c76f5066",
        "tokenIds()": "714cff56",
        "tokenURI(uint256)": "c87b56dd",
        "transferFrom(address,address,uint256)": "23b872dd",
        "userPublicKeys(address,uint256)": "10eefaf1",
        "verifiedTransferFrom(address,address,uint256,uint256[2],uint256[2][2],uint256[2],uint256[11])": "e300357e"
    },
    "id": 26
}